:020000040800F2
:10000000F80A002081010008253A00087936000826
:1000100000000000000000000000000000000000E0
:100020000000000000000000000000006F3A00081F
:1000300000000000000000006D3A0008713A00085E
:100040009301000893010008930100089301000840
:100050009301000893010008930100081D24000883
:100060000000000093010008930100080000000058
:1000700093010008930100089301000800000000AC
:10008000930100089301000800000000930100089C
:10009000000000009301000893010008930100088C
:1000A000000000009301000800000000253D00084A
:1000B00093010008000000000000000000000000A4
:1000C00000F002F800F030F80CA030C8083824180E
:1000D0002D18A246671EAB4654465D46AC4201D180
:1000E00000F022F87E460F3E0FCCB6460126334282
:1000F00000D0FB1AA246AB4633431847985700007E
:10010000B85700000023002400250026103A01D330
:1001100078C1FBD8520700D330C100D50B607047BF
:100120001FB51FBD10B510BD00F012FE1146FFF740
:10013000F7FF00F099FE00F02AFE03B4FFF7F2FF8C
:1001400003BC00F05FFE000070B505460C46164685
:1001500002E00FCC0FC5103E102EFAD2082E02D3AB
:1001600003CC03C5083E042E07D301CC01C5361FBE
:1001700003E021782970641C6D1C761EF9D270BDD5
:100180000748804707480047FEE7FEE7FEE7FEE72F
:10019000FEE7FEE704480549034A054B70470000A7
:1001A000793A0008C1000008F8060020F80A00208B
:1001B000F8060020034610B50B439B070FD1042A15
:1001C0000DD308C810C9121FA342F8D018BA21BA1B
:1001D000884201D9012010BD0020C04310BD002A73
:1001E00003D0D30703D0521C07E0002010BD0378D2
:1001F0000C78401C491C1B1B07D103780C78401C51
:10020000491C1B1B01D1921EF1D1184610BD01E003
:1002100004C0091F0429FBD28B0701D50280801C72
:10022000C90700D00270704700290BD0C30702D065
:100230000270401C491E022904D3830702D50280A4
:10024000801C891EE3E70022EEE70022DFE70022A0
:1002500003098B422CD3030A8B4211D300239C4603
:100260004EE003460B433CD4002243088B4231D37B
:1002700003098B421CD3030A8B4201D394463FE00F
:10028000C3098B4201D3CB01C01A524183098B426F
:1002900001D38B01C01A524143098B4201D34B0158
:1002A000C01A524103098B4201D30B01C01A5241BB
:1002B000C3088B4201D3CB00C01A524183088B4242
:1002C00001D38B00C01A524143088B4201D34B002B
:1002D000C01A5241411A00D201465241104670479D
:1002E0005DE0CA0F00D04942031000D340425340A2
:1002F00000229C4603098B422DD3030A8B4212D362
:10030000FC22890112BA030A8B420CD38901921193
:100310008B4208D3890192118B4204D389013AD0D0
:10032000921100E08909C3098B4201D3CB01C01AA5
:10033000524183098B4201D38B01C01A52414309B8
:100340008B4201D34B01C01A524103098B4201D3A6
:100350000B01C01A5241C3088B4201D3CB00C01A13
:10036000524183088B4201D38B00C01A5241D9D22B
:1003700043088B4201D34B00C01A5241411A00D2AC
:100380000146634652415B10104601D34042002BA8
:1003900000D54942704763465B1000D3404201B527
:1003A0000020C046C04602BD70477047704700003D
:1003B0000246C80FC00781434B0030B54B405B007D
:1003C0009B0D20D01923DB06C91801231B05994278
:1003D00020DB0324A40704251346AB400BD3002BDA
:1003E00004D1EB0613409B00E34204D401246407CC
:1003F000002312195941FF231B0599420BD2C90052
:100400000143500F09E0CB0204D501430803024326
:1004100005D0054830BDFF21C905084330BD084659
:1004200007210905884330BD0000C07FF0B50C46A8
:10043000871A9C410D46861A9D4103D2C01BA141DB
:10044000D21963410D0D1F0DC94EEC1BAE435CD09C
:100450007F057F0D0026002F51D02D05AC46A94306
:10046000DD020123ED0A1B051D4320231B1B24D4A1
:100470001746E740381871412F46E740CC199D4098
:100480002818314661410C0D27D161449A4013D59B
:100490000023401C594152000ED140084000012267
:1004A0004B005205D34207D305204007C14201D576
:1004B000B04900E0B0493046F0BD6B00002A00D0E2
:1004C00001229A181F23203C1B1B01D5002302E0A8
:1004D000E540281871410C0DD7D0012424050919D5
:1004E000C407CD0740084908E40F28436144002CA5
:1004F000D5D00024401C61419A40D0D1CDE76A0597
:10050000520DD9D1C90FC907D5E79C4D4E0000281F
:1005100001D0012400E0002434195F00002A01D03A
:10052000012600E00026BE19954FAC420CD8AE4221
:100530000AD8B44206D001256D05EC42BCD0104665
:100540001946F0BD9942FCD000203946F0BDF0B507
:100550001FB40C460F46811A9F412546861A9D41BD
:1005600006D20125ED076F40401ABC4152187B416D
:10057000210D1E0D8D1BAC467D4D8D437ED0750526
:100580006D0D7CD00D05AE46AC431B031B0B794DA6
:1005900052429D41202366469B1B14D31746F740C9
:1005A000381800260090744160462F460741E41930
:1005B00000989D402818664116D4714671189A40DB
:1005C00025D5012320E093182A466A415200002BCA
:1005D00000D0521C1E23203E9B1B002B61DD3541A9
:1005E000EE1728186641E8D5001876415B1C9A4042
:1005F00000D3401C4B05F3181524E34010D3002B07
:1006000052D071467118D30FC01802D3491C05B0DF
:10061000F0BD0123DB079A42F9D140084000F6E71C
:1006200001225205B21801D1002853D00123CC0A6F
:10063000DB029943891E002A08D1020C03D0020C68
:100640000004103902E00246002020390023550B37
:1006500005D112020823550B01D152010D23550C6F
:1006600001D112011B1DD50C01D192009B1C150D4F
:1006700001D152005B1C2025EE1A01E02CE022E0A3
:100680000546F54015439840CA1AE1076918130555
:10069000C918002ABBDA032040070818C10FC90790
:1006A0000FE071466118B2E7F10740080843711086
:1006B00071444A000CD001235B059A42A7D2C90FAE
:1006C000C9070020A3E74905490D26D1002001E014
:1006D0000028F4D100219AE7284D6600002801D0B7
:1006E000012100E0002171185F00002A01D00126DD
:1006F00000E00026BE19224FA94210D8AE420ED803
:10070000B14208D001256D05E94206D01946A8027C
:10071000414010467BE79C4201D0214677E700200C
:10072000394674E710B50C465C4005D50124E40752
:100730006340FFF70CFF10BDFFF778FE10BD30B42B
:100740000C465C4004D50124E407634030BC6DE6F0
:1007500030BCFCE670B50124E40761400D465D4005
:1007600002D4FFF763FE70BD6340FFF7F0FE70BD7B
:10077000FF0700000000F0FF0000F07F0000E0FF36
:100780000000F87F1F22030C02D10F22000402D0C8
:10079000030E03D004E00020014670470002083A2F
:1007A000030F01D10001121F830F01D18000921E9F
:1007B000002801DB4000521E120551184205C012EC
:1007C000411810467047C10FC90700D040420122AE
:1007D00092071143D6E701218907D3E7F0B58B4C87
:1007E0000F09254689B0BD437BD01D092646AE437F
:1007F000FAD00E465E402740F60F3E43254071D0AA
:1008000024012142FBD0FF24AD19A4042D1B039524
:1008100001252D05DB02DB0AC9022B43C90A294346
:100820001E010901040F130F050121431701880B55
:10083000820391432D098C46A90B1E438A039543DD
:10084000B30B9A0396433F09BA0B9403A74302964E
:100850002E467E430497B6464E19D7190C4601968C
:10086000544305977E43371B7646BF1B3601B64679
:10087000BE0B361900967646BC043719009C01D38E
:10088000641C00946400002F01D001263443029EB2
:10089000049F754366467E430496760034196E00C5
:1008A00034190094029C019E1C196643751BAE46C8
:1008B000069465464519059C05956C435943754654
:1008C0000891691A0191049E01465143A41B0491A9
:1008D000611A009C0791E10605D0610901221143CC
:1008E00002E072E06EE06109089D00272C0A2D06E7
:1008F0006918049D7C412A0A2D066918019D6241F0
:10090000AC0DAD026D185441079A910D9202551924
:100910006141029A644658435443069B059A5A43E0
:10092000121A131B9A0E9B015B187A41010B0005EA
:10093000C3185141220A200644195A419A4200D252
:10094000491C01204002814203D315230226F643AD
:1009500002E014230326F6432020C51AA9401746B7
:10096000AF40DA400A4320460399D840091473186F
:1009700019055118039A3843D2075140AC4009D0A9
:100980000122944006D30022401C5141002C01D189
:10099000400840001E4A934212D301220398920657
:1009A000904207DB0520400709181A480143C0128E
:1009B000414004E0032040070818C10FC907002088
:1009C00009B0F0BD0020F107FAE705180C464C41CC
:1009D00011486D42A04115D394181A465A410E4849
:1009E000644290410ED301204A004005824209D35F
:1009F0005A00824206D35940C90F084AC90700204D
:100A00001143DDE700200649DAE700000000FF0798
:100A1000FE070000FFFFFF7F0000E0FF0000F07F07
:100A20000000F87F0121C9050123411842001B067F
:100A3000D3185B0E0AD0C1100722D20689184007CE
:100A40005242D14201D5520089187047090208D597
:100A50000146002A03D0C10FC90700207047104685
:100A60007047420202D00020024970470721090561
:100A70000143F4E70000F87FF0B5FF252D04C60917
:100A8000C209FF2704462E400137CB093E434840A8
:100A90002A402B400746002A6BD0002B69D0AA427F
:100AA00067D0AB4265D0002800DA32460125ED055B
:100AB00029432C4309022002090AD21A4B0C7F2435
:100AC000E31A434C000A7C44E35C7D24240412199D
:100AD00014145B00A218884201D3521C00E04000AD
:100AE00049420C465C4324115C43DB016415E31866
:100AF000040A5C43C502200D0C4644436419250AD0
:100B00005D432303EC0C0D46654300030019EB180D
:100B10004C42A34201D35B18401CD4052018002B83
:100B200007D05B00C91804D3401C002901D140083C
:100B300040003F2189048A4209D3002A08DC1106BB
:100B4000090F04D0032149074018C00FC007F0BDAA
:100B500001224100120689187F2252069142F6D2E4
:100B600005214907C84201D59010F0BDFF20C005FE
:100B7000F0BD002F00DA32461648AA4207D2AB4237
:100B800005D21902090E17D0F80FC007F0BDFF25D6
:100B900063002D06AB42F9D84900A942F6D8AB4212
:100BA00001D1A942F2D0A94201D1002101E06100A6
:100BB0004908D0050843F0BD1102090EFBD0FF2003
:100BC0000243D005F0BD0A460146104654E7000036
:100BD0008A4D00000000C07F0102C21504D001232D
:100BE000DB071943002A0ADB9E239A1A02D408461F
:100BF000D0407047FF2241001206914201D90020E7
:100C00007047C017C04370471F22030C02D10F2248
:100C100000041CD0030E01D10002083A030F01D1D9
:100C20000001121F830F01D18000921E002801DBFA
:100C30004000521ED205511802125118192290403C
:100C400004D3491C002801D14908490008467047CF
:100C5000C10FC90700D04042012292071143D3E7D8
:100C600001218907D0E7000010B5FF22C30D134012
:100C700009D05A4007D0914205DA5C42A14202DD18
:100C8000C905081810BDC40FE407002B06D0002AC0
:100C900006D0002902DBFF20C0050443204610BD1A
:100CA0004102FCD0004810BD0000C07F10B5FF23FA
:100CB0001B0644009C421DD84C009C421AD8034697
:100CC000124A0B4307D4401A02D3EFF3008010BD41
:100CD000EFF3008010BD081A06D2EFF30080012167
:100CE0009043C907084302E0EFF30080904380F38C
:100CF000008810BD0D231B041A4204D011460020A9
:100D000000F006F810BD00F01BF810BD00000090C8
:100D1000C80212D54803400F002804D0C803C043BE
:100D2000012188407047EFF3008000010009032192
:100D30000907084380F300887047002070470000CF
:100D400010B5024800F02BF810BD00000000C07F75
:100D5000754600F053F8AE46050069465346C00894
:100D6000C000854618B020B5FFF714FA60BC002714
:100D70004908B6460026C0C5C0C5C0C5C0C5C0C567
:100D8000C0C5C0C5C0C5403D49008D46704710B5BF
:100D90000446C046C0462046FFF7CFF910BD10B547
:100DA0000C461107090F092904D00A290AD008297D
:100DB0000CD104E011460820FFF7AAFF06E0510617
:100DC00006D501E0510601D50120C007214610BD1E
:100DD000D10607D501010909CC084907000E000614
:100DE000044309E0410F20024907000A0143200E95
:100DF00000061D22D14101430846E7E7004870473D
:100E00009406002001491820ABBEFEE72600020030
:100E1000704770B58C180578401C6B075B0F01D1CB
:100E20000378401C2A1106D10278401C03E00678A2
:100E3000401C0E70491C5B1EF9D12B0705D4002302
:100E4000521E0DD40B70491CFAE70378401CCB1AD4
:100E5000921C03E01D780D70491C5B1C521EF9D5D5
:100E6000A142D8D3002070BD10B50122D2060020C7
:100E7000074B810054585C50401CC0B23028F8D356
:100E8000012004494007886004F0A0F8002010BD4C
:100E90000000002000ED00E008B50021009101688D
:100EA0008A68D243D2071ED08A68104B1A400123A9
:100EB000002A08D0816B102211438163C16B194352
:100EC000C163012008BD8868184388600948084943
:100ED0000068FFF7BCF9009002E00098401E009007
:100EE00000980028F9D1002008BD000015000080FE
:100EF00040420F006C030020F0B5002314E09A007C
:100F00008458944627461E465A1C06E095004559CB
:100F1000A54201DA2C461646521C8A42F6DBB20084
:100F20008750624684505B1C8B42E8DBF0BD0000BA
:100F300010B586B010494B6B202213434B63496BAD
:100F4000114000910024022101220C4B002809D0FD
:100F5000019102940392049101A9184601F08CFFBB
:100F600006B010BD019102920394049101A91846A4
:100F700001F082FFF4E7000000100240001400506E
:100F800010B50120FFF7D4FF00F016F8094C01223C
:100F90001146204602F001F800F00EF8002201216F
:100FA000204601F0FAFF00F007F80020FFF7C0FF2D
:100FB00010BD000000140050002000BF401CC0B253
:100FC0000A28FAD37047000070B50446144D00207B
:100FD0002870144E200605D501220221304601F06A
:100FE000DCFF04E000220221304601F0D6FFFFF7CB
:100FF000E3FF01221146304601F0CFFFFFF7DCFF8F
:1010000000220121304601F0C8FF6006040E287856
:10101000401CC0B228700828DCD3FFF7B1FF70BDB8
:10102000CC0000200014005010B5084C0022022112
:10103000204601F0B2FFFFF7BFFF0022012120464A
:1010400001F0ABFFFFF7B8FF10BD00000014005027
:1010500010B50B4C00220221204601F09EFFFFF745
:10106000ABFF01221146204601F097FFFFF7A4FFD6
:1010700001220221204601F090FFFFF79DFF10BDE5
:101080000014005070B501F027F90121002002F092
:10109000A3FB0121084602F09FFB0121022002F080
:1010A0009BFB0121032002F097FB0021062002F0A8
:1010B00093FB0021052002F08FFB00221146104611
:1010C00002F0FCFA294C2A4D2A4801F09FFF207EAD
:1010D000030002F03BFE0928060C122828282318DA
:1010E0002800052201210F2002F0E8FA1BE005226A
:1010F0000121022002F0E2FA15E005220121002080
:1011000002F0DCFA0FE005220121032002F0D6FAFA
:1011100000F0B2FB207E002826D004E00121052249
:10112000084602F0CBFA00F045FE2878002806D1E8
:1011300000221146102000F06FFD01202870FF26CC
:10114000F536304601F008FD00221146104602F047
:10115000B5FA00F02FFE304601F0FEFC00221146E9
:10116000102000F059FDAFE770BD0000940400208E
:1011700070030020C805002001B582B0012301AA38
:1011800002A9024803F0B2FE01980EBD2001002022
:1011900070B52248006F0121C905214D214C8842BC
:1011A00003DA00202860E07070BD1F49884205DB2B
:1011B000412000062860FF20E07070BDFFF75CFC56
:1011C0000321FFF751FD194904F08AF9FFF704FDE7
:1011D000C0B2082800D90820FFF742FD29680E4652
:1011E00004F07EFA124904F0EBF9314604F078F984
:1011F00028603F21090604F073F9FFF7EDFCC0B247
:10120000082800D90820002805D001218140491E66
:10121000C8B2E07070BD0020FBE70000F4030020BE
:10122000E0000020CD00002000401C46CDCC4C3F0B
:1012300017D9EE3EF8B5224D22492C462A6A0027DE
:101240008879803C002A2FD02646C03600281AD044
:101250000846008A401C088203F0C6F9E16A194872
:10126000008A81420ED8E068322802D3E068323822
:10127000E0602F62B776134887710782012106204C
:1012800002F0AAFAF8BDE068FF22C332904203D907
:101290002F628F710F82F8BDE0683230E060B77660
:1012A000012088710F82F8BD0028FCD0E068322848
:1012B00002D3E0683238E0608F710F82F8BD000021
:1012C00074040020B801002070B5FFF7C9FC064681
:1012D0000D4904F075F90446304603F0CFFE0B4982
:1012E00004F06EF90546304603F0CDFE084904F0DF
:1012F00067F9294604F0F4F8214604F0F1F80549AD
:1013000004F0EEF870BD0000D26F1FBEB67A7338DD
:10131000E46A0FB2CD4C544310B50848406B002826
:101320000AD0074C2079401CC0B22071052803D98F
:1013300000F02FFD0020207110BD0000F4030020FC
:101340003403002010B50D48007E042812D10C4A49
:10135000D088FA3080B2D080FF21F531884209D39D
:101360000020D0805078002805D000215170042042
:1013700002F032FA10BD0121F8E7000094040020C9
:1013800034030020FEB500F0DFF80646694C6A4DD4
:10139000207E082806D0022804D02746203F0028B7
:1013A00004D00EE0002028636863FEBD00F034F92D
:1013B000F86400F0F7F8F96C884202D20020286344
:1013C00068635C48217EA0380190002911D1019802
:1013D000C068FFF745FC5949096F04F081F9009096
:1013E00000F060F9009904F0C1F802D200202863EF
:1013F0006863386A002804D0207E002801D1286361
:101400006863A8782A46002802D1D662012090702D
:10141000D06A864201D9311A00E0811B0198456AE1
:101420007D20C00045430198876A454847434148AD
:1014300001239B02203099421DD9002315461363D6
:101440006B63217E042903D0052901D0062910D120
:1014500023763A494A680199CA60837600210420BC
:1014600002F0BAF900221146102000F0D5FB00F07E
:101470007FFCEE62FEBD33461646D362217E002914
:1014800008D0042906D005294AD00629F2D1FFF751
:1014900043FFFEBD04291FD0002D07D0316BA942A8
:1014A00004D2FA313163A94200D93563002D13D03B
:1014B000316BA94210D30421217620494A68019951
:1014C000096A8A4201D900218176002070630022D6
:1014D0001146102000F0A0FB002D01D0FFF732FFD5
:1014E000002D02D0207E0428D3D1002F07D0706BAE
:1014F000B84204D2FA307063B84200D97763002F43
:10150000C7D0706BB842C4D30520207601210420D7
:1015100002F062F900221146102000F07DFBFEBDB2
:101520000648006807498842F9DA0620207600F06C
:1015300030FCFEBD9404002034030020740300201E
:1015400060EA000000005C42F8B5072000F07EFA77
:10155000114948623F263606104D114C217800296A
:1015600013D0FFF77DFBA1680F4604F0B9F82946B8
:1015700004F026F8394603F0B3FFA0603146A068B6
:1015800003F0AEFFFFF728FBF8BDFFF769FBA06093
:1015900001202070F2E7000074030020AF3AE13E22
:1015A00034030020F8B51A4C1A48C068FFF758FBFE
:1015B0000090E168009803F0D9FF03D86069FFF755
:1015C0000BFBF8BD2169009804F052F803D8A0691C
:1015D000FFF702FBF8BDE16820690E4604F080F8D1
:1015E000616905460F46A06904F07AF80446314661
:1015F000009804F075F8214603F0E2FF2946FFF752
:101600003BFA394603F06CFFFFF7E6FAF8BD00003D
:1016100034030020F4030020F8B51E48426C1E4835
:1016200000901E481E4EC178002906D18B00F25052
:10163000491C0329FADB0121C17034681046214698
:1016400004F04EF8009903F0BBFF214603F048FF79
:1016500030600124A5007759601E8000305839465B
:1016600004F03EF8009903F0ABFF394603F038FF71
:101670007051641C032CEDDBB068FF21C905C84222
:1016800001D30020F8BD3F21090603F029FFFFF731
:10169000A3FAF8BD74040020ABAAAA3E34030020CC
:1016A00044060020F8B5174C1748C068FFF7D8FA71
:1016B0000090E169009803F059FF01D8606AF8BD15
:1016C000216A009803F0D4FF01D8A06AF8BDE1694F
:1016D000206A0E4604F004F8616A05460F46A06AC7
:1016E00003F0FEFF04463146009803F0F9FF21465F
:1016F00003F066FF2946FFF7BFF9394603F0F0FE15
:10170000F8BD000034030020F403002010B50C499C
:10171000087E002806D0022804D0082801D100F055
:10172000ABF810BD07480068074A9042F9DB082073
:101730000876002211460F2000F06EFA10BD00005E
:1017400094040020740300200000164470B50F4874
:10175000006A002818D10D482030007E002813D1DF
:101760000B4D68682C468034E16888420CD0094EE5
:101770003078401CC0B23070022805D900F052FC0D
:10178000E06868600020307070BD000074040020C4
:1017900074030020AC010020F0B585B02F497F26EE
:1017A0002F4DF605884203DD28606E6005B0F0BD60
:1017B0002968049103F094FF074678004008284CFC
:1017C0002C3CA168039103F08BFF264903F0F8FE3F
:1017D000039903F085FEA0602349FFF74DF9044605
:1017E000B44200DD3446FF20C005C44200D30024CB
:1017F0001E49204603F0E4FE1D4903F071FEE86037
:1018000002901C49204603F0DBFE3F21090603F04D
:1018100067FE044628616868029903F061FE019042
:101820002146019803F05CFE01460198FFF724F978
:10183000044668613946204603F0C2FE049903F06D
:101840004FFE286000902146304603F049FF019981
:1018500003F0B6FE6860AF600098A7E7000016448A
:1018600038010020CDCC4C3D0000704214AE9F40AA
:101870000AD7233C00001841FEB5002400940194CF
:101880000294002502F0FAFD002853D0732804D0FA
:10189000D22806D0F5280BD107E00098401C009014
:1018A00006E00198401C019002E00298401C029062
:1018B0006D1C0A2DE6DB0321684603F05BFB4C4DF3
:1018C000012804D0022805D0032808D105E07320A0
:1018D000E87604E0D220E87601E0F520E87600F032
:1018E000FBFCE87E05263607424F732823D0D2281A
:1018F00021D001222021384601F04FFB02F084FD67
:1019000000228021304601F048FB00222021384689
:1019100001F043FB364E203E34763748C06AFFF76D
:101920005BF9FA280DD902203076002211460F20EB
:1019300000F072F9FEBD01228021304601F02DFB3E
:10194000DCE7142802D208203076FEBD2A49EA7E60
:10195000C81D0F231425F9308031732A1CD0D22AD8
:1019600030D0F52AF1D1254ACA640C654C65244A69
:101970008A660C66234ACA677D21090101602D2110
:101980004160192181600A21C1601F49C1631F495B
:10199000816400F07BFCFEBD1D4ACA641D4A0A65D5
:1019A0004C651D4A8A660C666422CA6796210160EE
:1019B00045608360C5601949C1631949816400F0BD
:1019C00041FCFEBD174ACA64174A0A654C65174AAE
:1019D0008A660C66C822CA67026045608360C3607D
:1019E0001349C1631349816400F02CFCFEBD000063
:1019F000B404002000040050740300200000C8421A
:101A000000803B456C0700003333F3400000104179
:101A10000000F040CDCCCC3D00803B44333343400C
:101A200000009040000070419A99193E00A00C45BA
:101A3000666606400000C04010B5FFF711F9024984
:101A400003F0BEFD10BD0000510AA53D10B51349BD
:101A50000A68824212D00860114A0021916211493D
:101A600092144A60086008460C3000F0F1FD00282E
:101A700004D00D4801210176FFF704FB09480C3022
:101A800000F0DAFF07480A210C3000F075FF054826
:101A90000C3000F069FE80B210BD0000C0000020D4
:101AA00000240140D404002094040020F8B51F490C
:101AB0000A6B0120000502430A630A6B82430A6332
:101AC0001A4940310A6802430A60096801400091DE
:101AD000184C174F2760204600F092FD164D012646
:101AE000002802D02E76FFF7CDFA276003200007EA
:101AF00060600020A060E0602661042161612676BC
:101B00006076A076FF21C231E1612062094920316F
:101B10000871A0620620E062064800F029FE002855
:101B200002D02E76FFF7AEFAF8BD0000001002409A
:101B300000240140E00400209404002000B585B09A
:101B40009F2000900020029003200190052069460C
:101B5000000701F091F905B000BD10B50121052085
:101B60000903000701F012FA002801D0002010BD7F
:101B7000012010BD70B586B01548416B012421438A
:101B80004163416B21400091426B20210A43426333
:101B9000406B08400090C801019003940325049510
:101BA00000260296052001A9000701F065F904202E
:101BB0000190039604950294064C01A9204601F079
:101BC0005BF900220421204601F0E7F906B070BD60
:101BD000001002400014005010B586B00D48426B52
:101BE00001210A434263406B08400090402001906D
:101BF000029100200390022004900524240701A9EB
:101C0000204601F039F900224021204601F0C5F9B3
:101C100006B010BD00100240F8B50F463A4D696994
:101C200000291ED02C46C034617D002919D1374EC1
:101C3000002A0CD0030002F089F8111415191D2197
:101C40005B5F6314141414141457252914000F280F
:101C500003D0102003F014FC02E00F2003F010FC6E
:101C6000E682F8BD012003F00BFCF8BD022003F072
:101C700007FCF8BD032003F003FCF8BD042003F0CB
:101C8000FFFBF8BD0F2003F0FBFBF8BD102003F0B5
:101C9000F7FB002F08D0E868FF2200B2E132642190
:101CA00003F07EF9E082F8BD17488030416A0029D0
:101CB00008D0806A030002F049F80604070A0D10F4
:101CC0001404F0E7E682F8BD1148E082F8BD11483F
:101CD000E082F8BD1048E082F8BD0F489D30E082F8
:101CE000F8BD0E48E082F8BD0E2003F0C9FBF8BD38
:101CF000052003F0C5FBF8BD062003F0C1FBF8BDCD
:101D0000072003F0BDFBF8BDF40300206E0F0000B8
:101D10002C0800002C0900004C0A00003F0C0000B9
:101D200010B586B01048426B20210A434263406BD5
:101D300008400090032001900120029000200390B1
:101D400002200490094C01A9204601F095F80122D7
:101D50001146204601F021F901220221204601F01E
:101D60001CF906B010BD0000001002400014005025
:101D700010B5EFF3108472B6FFF756F94820FFF75D
:101D800023F90120FFF720F9FFF762F984F31088A7
:101D900010BD10B5EFF3108472B6FFF745F9482077
:101DA000FFF712F91120FFF70FF9FFF751F984F34C
:101DB000108810BD70B5EFF3108572B6FFF734F9D7
:101DC0006820FFF701F9134C2078FFF7FDF8FFF7C3
:101DD0003FF9FFF729F96A20FFF7F6F86078FFF777
:101DE000F3F8FFF735F9FFF71FF96C20FFF7ECF870
:101DF000A078FFF7E9F8FFF72BF9FFF715F96E2048
:101E0000FFF7E2F8E078FFF7DFF8FFF721F985F355
:101E1000108870BDCD00002010B586B01248426B0E
:101E200001210A434263406B0840009080200190EA
:101E300003910020049002900C4C01A9204601F06F
:101E40001BF80B4902914021019101A9204601F0A4
:101E500013F8072001F01AF900221146072001F0BB
:101E60001FF906B010BD0000001002400004005031
:101E700000002110F8B506460024064D0127305910
:101E8000401C02D02F76FFF7FDF8241D382CF6D326
:101E9000F8BD00009404002010B586B0044600216F
:101EA000059114216846FEF7D0F9022100910194B2
:101EB0000124029405A9684600F060FE002803D0C2
:101EC00002480476FFF7DEF806B010BD9404002047
:101ED000F0B5A3B02290164821903826482038301B
:101EE000209000246D461FE0002021990A19431E0E
:101EF00081000F19B74202D257586F5000E06B5063
:101F0000401C2028F4D322986A460119012000F0D1
:101F100019FF002807D00648012198300176FFF705
:101F2000B1F823B0F0BD803420988442DCD3F8E7C8
:101F3000FC03002070B506460024084D3046FFF72C
:101F4000C7FF382229463046FEF734F9002803D06F
:101F5000641CE4B2022CF1D370BD0000FC0300202D
:101F600010B52F492D4A8A604268CA60CA680B467C
:101F7000803B5A60C2684A6182680A61026B8A6368
:101F800000238B614269CA61C26A4A63026A8A623B
:101F9000426BCA630B63426ACA6282690A62C069A1
:101FA0004862C868FF222D32642804D3C868FF2421
:101FB000E134A04200D9CA6008693224E04202DB61
:101FC0000869322800DD0B618B6A0120782B00D96B
:101FD00088624B6A782B01D93C234B620B6A642BD5
:101FE00002D30B6A934201D9C8230B62CB69042B3D
:101FF00000D9C8618869002809D0C869012807D0BC
:10200000022807D0032802D1FF209130C86010BDFC
:10201000CA6010BDFF205F30C86010BDACACACAC76
:10202000F403002010B50748C16B491CC163064882
:1020300000F010F8054800F00DF8054800F00AF827
:1020400010BD0000F403002000F0000800F80008B4
:1020500000FF000870B50546EFF3108472B609481A
:1020600000F0D4FF00F0F4FE2846FFF715FF2846E5
:10207000FFF700FF2846FFF75DFF00F055FE84F3F1
:10208000108870BDC805002010B5EFF3108472B63B
:10209000034800F0BBFF00F005F884F3108810BD82
:1020A000C805002070B51E4C1E4B206C016899427B
:1020B00007D1616C0A689A4203D1A26C15689D42EF
:1020C00017D0A360FF202D30E06001216161002066
:1020D0002061A063A061E16161630521A1622063C9
:1020E0003C21E162C82222626162E063FFF79AFF4D
:1020F00070BD526B496B406B02F056FC002807D054
:10210000012809D00228F3D1A06CFFF729FF70BD88
:10211000206CFFF725FF70BD606CFFF721FF70BDDD
:10212000F4030020ACACACAC10B50B48016A012440
:10213000214301620A480949016003214160FF21EE
:102140000901816000F036FF002803D005480476BD
:10215000FEF798FF10BD0000401002400030004024
:10216000C80500209404002010B500202849FF2253
:102170000A54401CC0B20428FAD3264CA069002897
:102180001FD0E069012804D002280AD003281CD1FE
:102190000FE0FF202D30E060E06880B201F000FC2D
:1021A00013E0FF205F30E060E06880B201F0F8FBF0
:1021B0000BE0FF209130E060E06880B201F0F0FBBE
:1021C00003E0E06880B201F0EBFB0121002001F0A8
:1021D000DDFB1048012180308162206B002803D094
:1021E0000021062001F0F8FA6069002804D00121DE
:1021F000072001F0F1FA03E00021072001F0ECFADA
:102200000021042001F0E8FAFFF7D4FD10BD000022
:10221000CD000020F403002010B500F0B9F800F064
:10222000E1F80421054801F0E9F9002804D0044848
:1022300001210176FEF726FF10BD00006C0500208D
:102240009404002030B587B00E48416B0125294326
:102250004163406B2840019080200290022003904F
:102260000021049105900695052002A9000700F0C1
:1022700003FE054C207E002802D1FFF7CDFF257616
:1022800007B030BD00100240B404002030B587B064
:102290000E494A6B022002434A63496B0140019197
:1022A00020210291039000210491059001250695BB
:1022B00002A9074800F0E0FD064C207E002802D16C
:1022C000FFF7AAFF257607B030BD000000100240DE
:1022D00000040050B404002010B586B00D48426BD5
:1022E00002210A434263406B084000902020019085
:1022F00001200290002003900491074C01A9204680
:1023000000F0BAFD00222021204600F046FE06B073
:1023100010BD000000100240000400500149886315
:10232000704700000004004070B58CB005461C21C9
:1023300005A8FDF78AFF00240194029403940494F5
:102340000B200590FF200130089009940A9506940F
:102350000C20079001260B9605A800F087FF0B4D77
:10236000002802D02E76FEF78DFE07200190029401
:1023700003940494002101A800F096FE002802D0E6
:102380002E76FEF77FFE0CB070BD00009404002096
:1023900008B50F48C26B02210A43C263C06B0840F4
:1023A00000900D480B4901600C49C1600521416056
:1023B0000021016181604161816101F093F8002891
:1023C00004D0074801210176FEF75CFE08BD00003D
:1023D00000100240000400406C050020102700009F
:1023E0009404002010B50B48602101600021816039
:1023F0000161C16081614161416001460422403850
:1024000001F08CF8002804D0034801210176FEF782
:1024100039FE10BDAC05002094040020F8B5194E1B
:102420003068194D6968401A322803D21749402094
:10243000C860F8BD164C012020618021154800F0CD
:10244000A5FD07464021134800F0A0FD874201D1B9
:10245000012000E0002032686968521A322A00D94F
:1024600028702A78904205D03368591A322901D849
:10247000626101E060612870306868600349402053
:10248000C860F8BDDC000020C40000200018024035
:1024900074040020000400500549002048600548ED
:1024A00041690422114341610348C1060860704735
:1024B000D40500200020024021433412054A0021A7
:1024C000516005494A6902231A434A61FF210160AC
:1024D00070470000D40500200020024070B50022A3
:1024E0000C4C636901252B436361EFF3108372B6D3
:1024F0000125ED0408E040C940C0521CD2B21F2A99
:1025000002D166692E436661202AF4D383F31088D2
:1025100070BD00000020024003494A69CB141A43F1
:102520004A61FF21016070470020024070B50446F7
:1025300000F03AFD0419084D05E000F035FDA04219
:1025400001D3032070BD2869C043C003F5D50348FB
:102550002861002070BD00000020024011800000B2
:10256000FEB504460020019025462035287D01282F
:102570001ED00120287520688168C943C90734D05E
:10258000A16BFF220132914302263143A163C1684E
:102590008907890F0091C16889088900C160206896
:1025A0008168D2051143816000F0FEFC07460FE010
:1025B0000220FEBD00F0F8FCC01B022808D9A06B69
:1025C0001021B0430843A063002028750120FEBD00
:1025D000206880680028EDDB2068C168009A1143FC
:1025E000C160A06BB043A06305E0A06B202108434D
:1025F000A06301200190002028750198FEBD000015
:10260000F1B58AB00024114D05AE6F460A98FFF768
:10261000A7FF002802D001200BB0F0BDA868A100E0
:10262000705040027850641C052CEFDB0521684691
:10263000FEF762FC029840122861E86868616868E9
:102640000121C903084368600020E5E740240140F8
:10265000F8B500250022009204462034227D012A8C
:1026600039D0012323750268966876076AD43A4FF9
:102670004E68BE4250D0966A0F78BB401E439662A9
:102680000123C26A1B079A421FD0012A1DD0022AC9
:102690001BD0032A19D0042A17D0052A15D0062AE0
:1026A00013D0072A11D002688B6856697607760F17
:1026B000B3420AD05369DB08DB005361006842690A
:1026C0000B7A5B075B0F1A43426108680B2804D042
:1026D0000C2802D03BE00220F8BD204B9A680B2862
:1026E00007D00120800502439A6008680B2803D0B8
:1026F0002DE00120C005F6E71A4819490068FDF7EA
:10270000A6FD0A214843009002E00098401E009078
:1027100000980028F9D11AE0906A0E78B3409843E7
:10272000906208680B2801D00C2810D10B498A68E8
:102730000B2804D00120800582438A6007E0012035
:10274000C005F9E7816B2022114381630125002038
:1027500020752846F8BD0000011000000027014048
:1027600040420F006C0300200068006C70470000BE
:10277000F8B504460025002C05D0A06B264620366F
:10278000002802D007E00120F8BD0020E06330758A
:10279000204600F0A1F8A06B1022C00600287DDBC7
:1027A00020688168490779D4A16B130199430223FA
:1027B0001943A1638168C943C9070CD0C1681823B4
:1027C0009943A3681943C1602068016963680901DE
:1027D0000909194301612068C1683D4B1940C16076
:1027E000207EE16880030143607EA36A4703012BDA
:1027F00002D001231B0300E000231F432369394358
:10280000022B09D00023194333795B001943A67EBC
:102810000123012E02D00AE00423F4E7002826D089
:10282000A06B20263043A063E06B1843E063E069AF
:102830000646FF3EC23E02D0266A3043014320686E
:10284000C6680E43C6600126E06A3607B04212D061
:10285000012810D002280ED003280CD004280AD05A
:10286000052808D0062806D0072804D00FE001204C
:1028700000040143DBE720684669F608F60046617C
:1028800020684669A78D7F077F0F3E434661206819
:10289000C068104E3040884209D100E011E00020AD
:1028A000E063A06B80088000401CA0630DE0A06B7B
:1028B000022188431043A063E06B1843E0630125C5
:1028C00003E0A06B1043A06301252846F8BD00007B
:1028D00019C2FEFFE7FF3FC370B586B0054614215D
:1028E00001A8FDF7B2FC21490A68012002430A60F1
:1028F0000A68024000921D4A403A936B0343936377
:10290000936B03400093536B03435363526B02403A
:1029100000920B68020513430B6009681140009197
:1029200001900320029000260396052001A90007CC
:1029300000F0A2FA002000F0B5FD0E4C0C4820601B
:102940006660A660E660401520618000606120201E
:10295000A06103200003E061204600F099F82046C2
:1029600000F0C6F82C63656206B070BD40100240EE
:102970000800024050060020F8B504460D462746E0
:102980006069203708280BD02068C068C00709D0CC
:10299000A06B20210843A063002038750120F8BDFA
:1029A000082600E00C2600F0FFFA009011E0681CF9
:1029B0000FD0002D05D000F0F7FA0099401AA84278
:1029C00007D9A06B04210843A063002038750320B9
:1029D000F8BD206800683042E9D0A06B01214902AF
:1029E0000843A0632068C1680C220905890F0029EB
:1029F0001AD1617E002917D10168090714D58168B1
:102A000001234907002908DB416891434160A06B1D
:102A1000190288431843A06306E0A06B20210843F5
:102A2000A063E06B1843E063207E002801D120689A
:102A300002600020F8BD000070B504462068806880
:102A4000400720D425462035287D012819D00120B3
:102A500028752046FEF720FA002811D1A16B0B4AF9
:102A60001140FF2201321143A1630021E163297566
:102A700022681C21116021688A6804231A438A6035
:102A800070BD022070BD022070BD0000FEF1FFFF8E
:102A900070B50446002C24D020680168490849001C
:102AA0000160206800250560206845602068856019
:102AB0002068C5600C49206840181421FDF7C7FB49
:102AC000800020640949E163012282404A60A562D6
:102AD000E56225636563A563203465702570002079
:102AE00070BD012070BD0000F8FFFDBF0000024076
:102AF00070B50446002C26D01448256814212818E7
:102B0000FDF7A5FB800020641148E0630221204608
:102B1000203041702A680F490A40A368616826691D
:102B20001943E3683343194363691943A36919439C
:102B3000E3691943114329600021A1630122427016
:102B40000170002070BD012070BD0000F8FFFDBFC6
:102B5000000002400FC0FFFF70B5044600F024FAE9
:102B60000546601C02D004484068241800F01CFA96
:102B7000401BA042FAD370BDD4000020F8B5044633
:102B80000E46012563480178012969D001210170B1
:102B9000614840680004400F60490B68820060484B
:102BA00082581068C7B2BC46BB4229D14B68C701E6
:102BB000FF0DBB4224D10B690004000E83421FD1DC
:102BC0008B685068C7B2BB421AD1CB684001400D38
:102BD000834215D148699368DB03DB0B98420FD120
:102BE0008869D368DB03DB0B984209D1CB69106994
:102BF00087B2BB4204D10B6A8000800C83421ED096
:102C0000604608601068C001C00D4860108800046C
:102C1000000E08611079886050684001400DC8605E
:102C20009068C003C00B4861D068C003C00B8861C6
:102C3000108A80B2C86110698000800C08627D270C
:102C40002068FF0004280DD002281CD00121C902F1
:102C500088425AD13846FFF769FC002836D054E044
:102C60000220F8BD3846FFF761FC00284DD1FFF780
:102C700013FC3846FFF75AFC05462A4948690422E6
:102C80009043486141E07D20C000FFF74FFC0028E1
:102C90003BD1401E3060676811E03846FFF70EFCFC
:102CA0007D20C000FFF742FC05461E484169022214
:102CB00091434161280001D0376026E08037A06849
:102CC0006168C0014018B842E7D81EE00020C04348
:102CD0003060E76813E03846FFF71EFC7D20C00037
:102CE000FFF724FC05460F484169C2149143416136
:102CF000280001D0376008E0012000033F18206958
:102D0000E16800034018B842E5D80248002101708C
:102D10002846F8BDD40500200010024000210240E2
:102D2000B057000800200240012005494A69C30746
:102D30001A434A614969002900DA002070470000FF
:102D400000200240F7B50F463C4C207801285AD0AD
:102D5000012020703A4840680004400F39490D684E
:102D60008200394880580268D3B29D4229D14D680B
:102D7000D601F60DB54224D10D691204120E95420A
:102D80001FD18D684268D6B2B5421AD1CD685201C2
:102D9000520D954215D14A698568ED03ED0BAA42A3
:102DA0000FD18A69C568ED03ED0BAA4209D1CD693F
:102DB000026996B2B54204D10D6A9200920C954216
:102DC0001DD00B600268D201D20D4A600288120445
:102DD000120E0A6102798A6042685201520DCA607D
:102DE0008268D203D20B4A61C268D203D20B8A61D5
:102DF000028A92B2CA6100698000800C086278067B
:102E000003D00120FEBD0220FEBD7D25ED00284639
:102E1000FFF78CFB00280DD138460299FFF75EFBC7
:102E20002846FFF783FB09494A69520852004A6164
:102E30000028E9D100212170FEBD0000D40500204A
:102E40000010024000210240B0570008002002405C
:102E5000002006494A69002A07DA054A8A60054ABD
:102E60008A604969002900DA012070470020024089
:102E700023016745AB89EFCDF0B500227CE001244A
:102E80009440A4462340002B75D04C68022C01D0FE
:102E9000122C0CD1D408A40027183D6A5407E40E64
:102EA0000F26A640B5430E69A6402E433E62066833
:102EB00055000324AC40A6430F79BF07BF0FAF40B6
:102EC000374307604E68012E05D0022E03D0112E25
:102ED00001D0122E0ED18668A643CF68AF4037438B
:102EE000876047686646B7430E79F606F60F964048
:102EF0003E434660C668A6438C68AC403443C46019
:102F00004C68E40037D595081E4CAD002F193D6E76
:102F10009407E40E0F26A640B54305263607B042B7
:102F200001D1002605E0184EB04201D1012600E093
:102F30000226A6402E43134D3E66124E803634685C
:102F40009C434F68FF0300D51C43346074689C4366
:102F50004F68BF0300D51C4374602C689C434E68C7
:102F6000F60200D51C432C606C689C434E68B60288
:102F700000D51C436C60521C0B681C46D44000D02A
:102F80007DE7F0BD001802400004005000690842CF
:102F900001D00120704700207047002A01D08161D4
:102FA00070478162704700000148806870470000E8
:102FB000D400002070B50446002C0FD021681048C2
:102FC000086021680F4808602168606848602168CF
:102FD000A0688860FFF7E8FF054608E0012070BDA3
:102FE000FFF7E2FF401B302801D9032070BD2068A5
:102FF000C0680028F4D1216803480860002070BD33
:10300000CCCC000055550000AAAA00000068024977
:103010000160002070470000AAAA000002488168F1
:103020004268891881607047D400002010B50024E0
:10303000032000F009F8002801D0012401E000F08D
:1030400023F8204610BD000070B5054600240C4E44
:103050007068002811D00B4800F02CFA002801D02D
:1030600001240BE0042D06D200222946501E00F058
:1030700017F8356002E0012400E00124204670BD0D
:10308000D4000020C05D000070470000C106C90EDA
:1030900001208840014908607047000000E100E01D
:1030A00010B500F0C1FC10BDF8B504460D46002C6B
:1030B0000FD04D480068C007C00FA84218D24A4F31
:1030C00038684008400028433860FFF76DFF064627
:1030D00009E00120F8BDFFF767FF811B43488142EB
:1030E00001D90320F8BD3868C007C00FA842F2D14B
:1030F00020683F4E81070DD5400704D5B0680721F1
:1031000009030843B060B0680F2109028843A16831
:103110000843B0602078C0072DD06068012808D02F
:1031200000280BD032494031096A89070BD40120AD
:10313000F8BD3168890306D40120F8BD316849051E
:1031400001D40120F8BDB168C908C9000143B160CC
:10315000FFF72AFF074607E0FFF726FFC11B2348BA
:10316000814201D90320F8BDB06838210840616868
:10317000C9008842F0D11C480168C907C90FA9429B
:1031800016D901684908490029430160FFF70CFF7F
:10319000074607E0FFF708FFC11B1448814201D929
:1031A0000320F8BD10480068C007C00FA842F1D145
:1031B0002078400706D5B068072109038843E168F5
:1031C0000843B06000F01CF8B1683C228909114046
:1031D000084A515CC906C90EC8400749086007483B
:1031E0000068FFF731FFF8BD00200240881300009F
:1031F00000100240F45700086C030020D4000020A7
:1032000000B585B0142216496846FCF79DFF1548A5
:1032100081688906490F0CD081688906490F012908
:1032200018D080688006400F032815D0002005B014
:1032300000BD016889044A0F0121914040680004E3
:10324000400F042800D9002080006A461058FCF77F
:10325000FEFFECE70448EAE70120C003E7E70000CF
:10326000D05700080010024000366E01F8B5044641
:10327000002C1DD020783827C007864D002856D056
:10328000A8683840082815D06068002807D0A068D2
:10329000002817D029690C2291430143296101219B
:1032A0006068090488420FD12868084328601EE03E
:1032B0000120F8BD2868800339D56068002836D120
:1032C0000120F8BD0120F8BD052301221B04920452
:1032D000984206D12868104328602868084328606F
:1032E00005E0286888432860286890432860606863
:1032F00000280ED0FFF758FE064606E0FFF754FE02
:10330000801BC82801D90320F8BD28688003F5D5A3
:103310000DE0FFF749FE064606E0FFF745FE801B7D
:10332000C82801D90320F8BD28688003F5D4207887
:10333000800772D5AE683E40002E12D0FF20E168B3
:103340000130002958D029680722D202914322690E
:1033500011432960296801432960FFF725FE0646CD
:1033600040E02868400502D5E068002809D0686878
:103370006169000C000408436860FFF715FE07460A
:1033800008E00120F8BDFFF70FFEC01B022801D99D
:103390000320F8BD28684005F5D5002E13D1286814
:1033A0000721C9028843216908432860FFF728FFE5
:1033B000A9683C2289091140374A515CC906C90EE7
:1033C000C8403649086036480068FFF73DFE0028CF
:1033D00023D00120F8BDFFF7E7FD801B022801D9AB
:1033E0000320F8BD28684005F5D568686169000CC0
:1033F00000040843686010E0296881432960FFF7F2
:10340000D3FD064606E0FFF7CFFD801B022801D959
:103410000320F8BD28684005F5D42078000736D58C
:10342000A8681C4D8006400F403503280AD0A069CB
:1034300000281AD0286A012108432862FFF7B4FD4A
:1034400004460EE0286A800721D5A06900281ED115
:103450000120F8BDFFF7A8FD001B022801D90320B9
:10346000F8BD286A8007F5D511E0286A40084000B9
:103470002862FFF799FD044606E0FFF795FD001B63
:10348000022801D90320F8BD286A8007F5D400205E
:10349000F8BD000000100240F45700086C03002043
:1034A000D40000200249CA690243CA617047000083
:1034B0000000014010B50949401E884201D9012091
:1034C00010BD074C60610321081F00F0ADFA002019
:1034D000A06107202061002010BD0000FFFFFF0059
:1034E00000E000E070B50446002C05D025462035EC
:1034F000687F002802D006E0012070BD00202877F8
:10350000204600F00AF802206877211D206800F0AC
:10351000CBFA01206877002070BD7047F8B50446EB
:103520000E4625462035287F01280DD0012028771A
:10353000022068770427002A08D0042A19D0082A14
:103540002ED00C2A55D13EE00220F8BD314620682D
:1035500000F0F6FA20688169082211438161206831
:103560008169B94381612068816932691143816150
:103570003FE03146206800F021FB2068826901218C
:10358000C9020A4382612068816901229202914343
:10359000816120688169326912021143816128E0EA
:1035A0003146206800F04AFB2068C26908210A43BE
:1035B000C2612068C169B943C1612068C1693269CB
:1035C0001143C16115E03146206800F077FB2068A7
:1035D000C1690122D2021143C1612068C26901217F
:1035E00089028A43C2612068C169326912021143AB
:1035F000C1610120687700202877F8BD10B5044626
:103600000122206800F08EFA0D482168814205D021
:103610000C48814202D00C48814204D1486C0122FE
:10362000D20310434864206881684907490F06297E
:1036300003D00168012211430160002010BD000089
:10364000002C0140004401400048014008B54021E1
:103650000268C9431160026849101160006801687E
:1036600041680091016841680091016841680091DA
:1036700001684068009008BDFEE7000010B50446F0
:1036800000F0DAF80C493F20002C09D00A780A70C3
:103690004A7802434A70887837221043887010BDF8
:1036A0000A7802430A704A78712002434A708A7885
:1036B00002438A7010BD0000CD00002010B504B296
:1036C000130000F043FB0604080C1014180780B226
:1036D00000F05CF910BD204600F03CF910BD80B24E
:1036E00000F01CF910BDC0B200F0B6F810BD80B2F9
:1036F00000F07EF910BD204600F0B8F810BD0000C3
:1037000070B5002804DB80B2012100F03FF970BDE4
:10371000404200B2632800DD63200A21FCF7A1FDCE
:10372000CCB20A21FCF79DFDCDB200F085F8074828
:103730004022017811430170054942784B5D1A43DC
:1037400042708278095D0A43827070BDCD0000200E
:10375000E457000870B504461548844200D9044671
:103760000A212046FCF773FD0E460A21FCF76FFD87
:103770000D4664212046FCF76AFD0A21FCF767FD2F
:103780000C4600F059F80B480B4982788B5D1A43C0
:10379000827022462A4303D042784B5D1A4342701E
:1037A000002C03D00278095D0A43027070BD00004E
:1037B000E7030000CD000020E4570008054A002878
:1037C000517803D080200143517070474806400E65
:1037D00050707047CD00002010B5042807D006288F
:1037E00009D0072802D10846FFF7E8FF10BD0846B8
:1037F00000F006F810BD084600F010F810BD0000FB
:10380000054A0028917803D08020014391707047C9
:103810004806400E90707047CD000020054A0028F1
:10382000117803D080200143117070474806400E84
:1038300010707047CD00002006480178C909C90101
:1038400001704178C909C90141708178C909C9016C
:1038500081707047CD00002010B5002902D0FFF71D
:103860000DFF10BDFFF7E8FF10BD000010B50446C6
:1038700000294ED0FFF7E0FF274879214022032C92
:1038800032D00FDC002C1BD0012C23D0022C08D10D
:103890000278027042780A43427081785B221143B9
:1038A000817010BD0F2C2AD0102CFAD10178114351
:1038B000017041781143417081781143817010BDCE
:1038C0000278027042780A43427081783F221143A5
:1038D000817010BD0278027042780A43427081788C
:1038E00006221143817010BD03786D2423430370B9
:1038F00043781343437082780A43827010BD027884
:10390000027042780A4342708178712211438170BB
:1039100010BDFFF791FF10BDCD00002070B504076A
:10392000240F01060D0F0005060FFFF785FF07485E
:10393000074982780B5D1A43827042784B5D1A43C7
:1039400042700278895D0A43027070BDCD0000208C
:10395000E457000810B5002912D0002802D0FFF764
:10396000CFFE10BDFFF768FF07483F2102780A43EA
:10397000027042780A43427082780A43827010BD16
:10398000FFF75AFF10BD0000CD00002010B5002940
:1039900002D0FFF7DFFE10BDFFF74EFF10BD0000A5
:1039A00070B506460A213046FCF751FC0C460A2148
:1039B000FCF74DFC0D4664213046FCF748FC0A211B
:1039C000FCF745FC0E46FFF737FF0748074A8178AA
:1039D000135D194381704178535D1943417001783B
:1039E000925D1143017070BDCD000020E4570008C6
:1039F00010B50446FFF720FF092C00D90924074918
:103A0000074A8878125D1043887048783F22104337
:103A10004870087873221043087010BDCD00002054
:103A2000E4570008704700008307FF22DB0E9A402E
:103A30008907090E994000280BDA0007000F0838A3
:103A4000830808489B001818C36993430B43C3615C
:103A50007047830804489B001818036893430B437E
:103A60000360704700ED00E000E400E0704770473D
:103A700010B5FFF7D3FA10BD08494868084A000C92
:103A800092880004D204D20C104301225203104346
:103A90004860C80303498860704700000010024076
:103AA000000FFF1F00ED00E070B50268184C194EC2
:103AB000A04201D0B04204D170251346AB434A68FE
:103AC0001A43154B154DA04208D0B04206D0144EF3
:103AD000B04203D0984201D0A84204D10326360256
:103AE000B243CE6832438026B2434E69324302600D
:103AF0008A68C2620A688262A04203D0984201D0FA
:103B0000A84201D1096901630121416170BD000032
:103B1000002C0140000400400044014000480140E6
:103B20000020004010B5C906C90E01238B40046A6D
:103B30009C430462036A8A401343036210BD000081
:103B4000F0B5026A520852000262056A436882694F
:103B50007024A243920892000C68144302229543F9
:103B60008A682A43124E134FB04204D0B84202D0A2
:103B7000114DA84206D10825AA43CD681543042259
:103B800095432A46B04204D0B84202D00A4DA8421A
:103B900008D1FF250135AB436D00AB434D691D4393
:103BA0008B692B4343608461496841630262F0BDC5
:103BB000002C01400044014000480140F0B5026A79
:103BC00010239A430262046A4368826907252D0321
:103BD000AA4303252D02AA430D682D021543202276
:103BE00094438A6812012243114EB04207D18027C4
:103BF0001446BC43CA68120122434024A243B04287
:103C000005D00C4CA04202D00B4CA0420AD101249A
:103C1000A402A3436400A3434C69A4001C438B6922
:103C20009B00234343608561496881630262F0BD64
:103C3000002C01400044014000480140F0B5026AF8
:103C4000FF2301339A430262046A4368C269702504
:103C5000AA43920892000D68154301225202944330
:103C60008A6812022243124EB04207D1C71414468A
:103C7000BC43CA68120222430415A243B04205D0D5
:103C80000C4CA04202D00C4CA0420AD101242403C7
:103C9000A3436400A3434C6924011C438B691B01AB
:103CA00023434360C5614968C1630262F0BD0000FF
:103CB000002C0140004401400048014070B5026AF8
:103CC00001231B039A430262046A4268C369072501
:103CD0002D03AB4303252D02AB430D682D021D437D
:103CE00001235B039C438B681E0326430A4B9842C7
:103CF00005D00A4B984202D0094B984206D10124C4
:103D0000A4031346A3434A6992011A434260C56162
:103D100049680164066270BD002C01400044014006
:103D20000048014010B5084C20680068C043800678
:103D300001D400BF02E00448FFF788FC202021687E
:103D4000C043086010BD00002005002030B4744658
:103D5000641E2578641CAB4200D21D46635D5B0087
:103D6000E31830BC1847000010B5FDF7F6FE0A490D
:103D70008A6890420AD08860002807D00022114645
:103D80001020FDF749FF05480021C18300F03AF8F3
:103D900000F006F810BD0000AC010020B4040020C3
:103DA00070B5174C0025E0690126002816D0E561A2
:103DB000606A00280AD000F0CDFD002211460F20D5
:103DC000FDF72AFFFEF72EF9656207E00022114693
:103DD0000120FDF721FF00F0F5FD6662A0690028D3
:103DE00006D0A561606A002803D0012000F0AEFB78
:103DF00070BD03482030007E0028F9D1266270BDD6
:103E00007404002070B5FDF7A8FE002412490123B8
:103E1000124A00280ED090880F2801D2401C9080B2
:103E200090880F2805D35078002802D1CB615370B9
:103E3000947070BD9088451E0E2D00D28B610F28A6
:103E400006D35078002803D09078002800D19370D2
:103E50009480547070BD000074040020AC010020F8
:103E600010B51748407D00280ED00300FFF76EFF05
:103E7000110C0A0D10131F22250C0C0C0C0C0C1C21
:103E800016190C0001F01AFA10BD01F081FA10BDEC
:103E900001F048FA10BD01F0AFFA10BD01F0FEF8D4
:103EA00010BD01F015F910BD01F03CF910BD01F095
:103EB00069F910BD01F0CEF910BD01F097F910BD00
:103EC000B404002070B51548416B154C0025E26A1A
:103ED000914204D0406BE062E5810120E070E0781F
:103EE000002810D00D488038C06800220121FFF75B
:103EF000E5FBE089643080B2E0817D2109018842E0
:103F000000D3E57070BD0748006FFCF765FE80B216
:103F100000220121FFF7D2FB70BD000074040020D5
:103F2000B801002074030020F0B585B006460C46A9
:103F300001962146404D019801F0D2FB47007F08D1
:103F40007F20C0050021864209DA00203B4A830019
:103F5000D150401C0628FADB002005B0F0BD3848DF
:103F6000374E807EC03E0490326F0392002826D0E8
:103F70000398FCF731FEF26F0621904207D2012030
:103F80002E4A0B1A9B00D450401C0528F9DD2D4BFE
:103F90009878002809D10120284E0A1A9200B450BE
:103FA000401C0628F9DD012098702748874201DD72
:103FB000264D06E02648874203DA264D01E02148D7
:103FC00081702946019801F0FBFA04467F202946BA
:103FD000C00501F085FB194E0290316801F0F0FA3E
:103FE000214601F07DFA30600124601E80003058C7
:103FF000294601F0E5FA0090A700F159029801F076
:10400000DFFA009901F06CFAF051641C062CECDB2D
:10401000049800280DD00398FCF7DEFD08494039CC
:104020000968884205D23F210906706901F058FAF3
:1040300093E7306991E70000CDCC4C3D2C06002081
:10404000B40400200C0100200000C841CDCCCC3DC0
:10405000000020410AD7233CFEB50090009801F0F3
:104060003FFB44003B4F6408BC603B4E3F252D06A0
:10407000B4420ADA31462046FCF7FEFC374901F02B
:104080009FFA294601F02CFA0DE03146204601F056
:1040900027FB3146FCF7F0FC0221FCF7E5FD81210E
:1040A000C90501F01DFAA84200DA284641252D066F
:1040B000A84200DD2846F860029031468C420ADAB8
:1040C0002046FCF7D9FC264901F07AFA7F21C90580
:1040D00001F006FA0DE00E46204601F001FB3146E4
:1040E000FCF7CAFC0221FCF7BFFD8121C90501F0E4
:1040F000F7F97F24E405A04200DA2046A84200DD5B
:104100002846054638617868029901F0E9F90646C3
:104110002946304601F0E4F901463046FCF7ACFC94
:10412000786101903D680098294601F0D9FA01991B
:1041300001F046FA294601F0D3F9054638602046D9
:10414000019901F0CDFA314601F03AFA786028463B
:10415000FEBD0000940100200000204100006040EE
:104160000000404070B560498A6A5F4C002578269F
:104170000121803C1300FFF7E9FD0A160625416383
:104180008190A1A8AF1600280ED0206AFF252D35FA
:10419000A84204D200F0AAF8216A40182062206ADE
:1041A000A84200D9256270BD206A642804D900F0B5
:1041B0009DF8216A081A2062206A6428F3D26420DC
:1041C000206270BD00280CD0606A782804D200F00C
:1041D0008DF8616A40186062606A7828F1D9666279
:1041E00070BD606A002804D000F080F8616A081A87
:1041F0006062606A7828F3D9656270BD00280FD0CC
:10420000A06A782807D200F071F80521FCF71FF8A2
:10421000A16A4018A062A06A7828EED9A66270BD93
:10422000A06A002807D000F061F80521FCF70FF81C
:10423000A16A081AA062A06A7828F0D9A56270BDA8
:1042400000280DD0E06AB42804D200F04FF8E16AEB
:104250004018E062E06AB428F1D9B420E06270BD91
:10426000E06A3C2804D900F041F8E16A081AE062EB
:10427000E06A3C28F3D23C20E06270BD606900280F
:1042800005D0656100210720FFF7A6FA70BD6161C6
:1042900001210720FFF7A0FA70BD002806D0206991
:1042A0003228F9DA2069401C206170BD2069322172
:1042B000C842FADD2069401E206170BDA06B002855
:1042C00001D0A56370BDA16370BD606B002801D0F3
:1042D000656370BD616370BD206B002801D02563EC
:1042E00070BD216370BD00007404002010B51C482F
:1042F00000681C4A00235169002903D15061906174
:104300001381137051691924411A6401A14202D921
:1043100090611381137091697D24411AE400A142D8
:104320000BD31189032905D91178FF2903D2491C20
:10433000117000E01370138190611189491C118183
:10434000506105201178002905D0042900D90421E5
:104350000A204143C8B2282800D9282010BD0000F7
:10436000DC000020B801002010B50A4801690029CE
:104370000ED0002102464032D1830161064A1170FD
:10438000007D00F00BF8002211461020FDF744FCE0
:1043900010BD000074040020AC01002010B50C4CCE
:1043A000616A002905D0FFF7DDFE206B401C206309
:1043B00010BD07492031097E0029F9D100F07EF8AF
:1043C000606B401C6063024800214030817610BD64
:1043D0007404002010B50020FDF738FB044CA060E9
:1043E000FCF772FFA062FCF7C7FEA06410BD0000DE
:1043F0007403002010B50420FDF728FB01498861F3
:1044000010BD00007403002010B50120FDF71EFB55
:10441000024CE060FDF710FBE06210BD7403002069
:1044200010B5FDF759FF0120FEF796FB0220FDF7BE
:104430000DFB104C20611049C97E732904D0D2298C
:1044400006D0F5290BD107E000F068FC206306E0F8
:1044500000F0A6FC206302E000F0E4FC20630548C5
:104460008030C068FCF7FCFB0146206BFDF794F937
:10447000206510BD74030020B404002010B5FFF7C0
:10448000B9FF0B4801218069C902884201D9F52092
:1044900010BD0721C901884201D2D22010BD0549B3
:1044A00040180549884201D2732010BD002010BD7C
:1044B000740300207FFCFFFF7F02000070B5224CD8
:1044C000A16900291BD0002806D0E069032809D281
:1044D000E069401CE06105E0E069012802D9E0697B
:1044E000401EE061E0693221401E4843FF302D301C
:1044F000E060E06800220121FFF7E0F870BD0028CD
:104500000ED0E068FF25E135A84204D2FFF7EEFEA9
:10451000E1684018E060E068A8420ED9E5600CE070
:10452000E068692804D3FFF7E1FEE168081AE0605B
:10453000E068642801D26420E060E0680022012184
:10454000FFF7BCF870BD0000F403002010B525494A
:10455000002808D0886A401C8862886A08280ADD1A
:104560000120886207E0886A401E8862886A012804
:1045700001DA08208862886A0300FFF7E7FB0A0A6D
:10458000060B10151A1F24292E0A01210620FFF7F9
:1045900023F910BD00210620FFF71EF910BD0021F0
:1045A0000620FFF719F910BD00210620FFF714F9C6
:1045B00010BD00210620FFF70FF910BD01210620D4
:1045C000FFF70AF910BD00210620FFF705F910BD1D
:1045D00000210620FFF700F910BD00210620FFF79B
:1045E000FBF810BD7404002010B50648417900297D
:1045F00005D0002141710620FFF7EEF810BD012122
:10460000F8E70000B801002010B5FFF7E3FE054809
:104610000549806C884204DD044807210176FCF7D7
:1046200031FD10BD74030020000096429404002068
:1046300010B5314900280BD08A6A0846803813002B
:10464000FFF784FB0A540C122130363C42484E548A
:10465000886A04220121FFF731F810BD006A0022A8
:104660000121FFF72BF810BD416A002905D0406AEF
:1046700000220121FFF722F810BD406A0322012128
:10468000FFF71CF810BD816A002905D0806A00225E
:104690000121FFF713F810BD806A03220121FFF703
:1046A0000DF810BDC06A00220121FFF707F810BD08
:1046B000406903220121FFF701F810BD00690122C2
:1046C0001146FEF7FBFF10BD806B03220121FEF7B0
:1046D000F5FF10BD406B03220121FEF7EFFF10BD77
:1046E000006B03220121FEF7E9FF10BD886A042256
:1046F0000121FEF7E3FF10BD74040020F8B5314836
:10470000416A0024304D002910D0816AAA89914263
:1047100016D0816AA981EC616C62006B286201206D
:10472000A870AC620020FFF783FFF8BDEC610021A8
:10473000C943A9816C62006B2862AC70AC62F8BDA1
:10474000A9787D27FF0000290DD00020FFF770FF1A
:10475000A86A6430A862B842F1D3AC70AC62781039
:10476000E8616C62F8BD016B2A6A914207D0006B68
:1047700028626C62EC610120FFF75AFFF8BD686A9D
:10478000643068627D263601B04203D20120FFF713
:104790004FFFF8BDE869B84203D20020FFF748FF99
:1047A00008E0B04203D20120FFF742FF02E0002000
:1047B000FFF73EFFE8696430E861B042E9D3EC619D
:1047C000F8BD000074040020B8010020FEB57D2172
:1047D00009015C4EF06B401CF06301905A4F7A6BFC
:1047E000336C5A489A4205D07A6B32640122327196
:1047F00002687264564D32792C46FF34413480355C
:10480000002A09D00122B2630068726C801A8842C3
:1048100010D3002030710DE0A07E002808D0286F52
:10482000FCF7DAF93968884202D20A20B06301E065
:104830000120B0630199706B0A1AB16B8A421AD3D6
:1048400040187063786A002815D13F48404F2030E7
:10485000007E396F00910300FFF778FA09550D06C5
:104860000D163B4D0D0E0D00052201210020FEF717
:1048700025FF0020A076FEBD052201210320FEF7C2
:104880001DFF0020A076FEBD686A0028FBD0786876
:10489000296A884201D9286AE860E868FCF7E0F9EB
:1048A000009900F011FF40004008B0640098FCF748
:1048B00093F980B200220121FEF700FF7F20B16C46
:1048C000C0058142DFDAA07E0028DCD10120A0767D
:1048D000FEBD0098FCF780F9316B884208D280B2A7
:1048E00000220121FEF7EAFE386FFCF775F930630C
:1048F0000020A076FEBD052201211020FEF7DEFE7D
:104900000020A076FEBDE868FCF7AAF9009900F047
:10491000DBFE40004008B064FFF7D4FA7F20B16CA2
:10492000C005814209DAA07E002804D10022114688
:104930001020FDF771F90120A076FF20E1303063EF
:10494000FEBD0000B801002074040020DC0000203F
:104950007403002010B5134CA069002812D0E06940
:10496000012804D0022806D003280BD107E0FF203D
:104970002D30E06006E0FF205F30E06002E0FF20C5
:104980009130E0600748012180308162E0680022B8
:10499000FEF794FE206B002803D101210620FEF7CC
:1049A0001BFF10BDF4030020884203D3904201D3C3
:1049B00000207047814203D3914201D30120704708
:1049C000022070477047000010B50C4696280AD99F
:1049D00017494968401AFCF743F9214600F048FEA0
:1049E00001D2012000E00020124B002419788842F7
:1049F0000DD0002801D0322100E002215A88521C3B
:104A000092B25A808A4203D318705C8000E05C80C6
:104A1000074819788038002904D0406FFCF7DCF88B
:104A200080B210BD006FFCF7D7F880B210BD000057
:104A300074040020F8000020F3B581B00746384622
:104A4000029900F007F93846029900F089F8064605
:104A5000334CA06F002861D03846FCF701F9029969
:104A600000F03EFE05463146E06C00F039FD294677
:104A700000F0A6FDA0652946206D00F0A1FD216E85
:104A800000F09EFDE16D00F02BFD0646E065284636
:104A9000E16E00F025FE616D00F092FD6066E56656
:104AA0003046A16E00F0E4FD01D2A06EE0651D4D20
:104AB000E06D0026A84200D3E665E16DA06D00F030
:104AC0000FFD616E00F00CFD014620671448C030F8
:104AD000C07E732804D0D22805D0F52808D105E07F
:104AE0001148606704E01148606701E010486067A2
:104AF000A94200D32667616F206F00F0B9FD01D293
:104B0000606F206738460299FFF75EFFFCF7A8F850
:104B10002067FCF761F880B2FDF700FCFEBD0000E5
:104B2000F4030020000080800000AF4400A00C458A
:104B300000401C460848017EA038002909D00429FD
:104B400007D0002181670167C16501660348816361
:104B500070470121816770479404002000040040E1
:104B600010B50C46FCF77CF8214600F0B9FD002199
:104B70000122D20590420BDB064C214600F0B0FD2D
:104B80000549C96C00F01CFD2146FBF775FF014685
:104B9000084610BD00007041F403002070B5FFF717
:104BA0003FFC2A4CA06B2546803D002817D0E068CA
:104BB000FF21C33188420AD82069FCF749F8296DE2
:104BC00000F082FD224900F08BFD28600EE0206994
:104BD000FCF73EF8296D00F077FD286006E02069BB
:104BE000FCF736F8296D00F06FFD28602968E06851
:104BF00080B2FFF721FF1548A030007E022813D0B5
:104C0000082811D006280FD0E068FCF729F80646DE
:104C1000E068FCF725F801462868FFF71DFA3146E1
:104C2000FFF782F9286770BD00202867E068FCF76D
:104C300017F80546E068FCF713F801460020FFF777
:104C40000BFA2946FFF770F970BD0000F40300204D
:104C50000000F041F3B581B006463046FCF700F89D
:104C600007461D4C1B48E51DC07EF935803473286E
:104C700004D0D22805D0F52808D105E0FDF7E2FAE6
:104C800004E0FDF7DFFA01E0FDF700FBE8688019BA
:104C9000FBF7E6FF029900F069FC04D20020E06512
:104CA0002065206613E0A868301AFBF7D9FF029947
:104CB00000F05CFC0BD23846029900F0D9FC06D219
:104CC000304600F00BF820657F20C0052066FFF716
:104CD00031FFFEBDB40400207403002010B50C4C5D
:104CE000642801D8204610BDFF21E131884202D35B
:104CF0003F20000610BD6438FBF7AAFF054900F00D
:104D00005FFC0549FBF7B8FE214600F0E9FB10BD4A
:104D10000AD7233C48E1FA3E0000BE43F8B50446FA
:104D20002046FBF758FD164A164BFBF757FD064683
:104D30000F462046FBF794FF009000F09FF9FBF729
:104D400071FE114A114BFBF749FD04460D460098D0
:104D500000F099F9FBF766FE0D4A0E4BFBF73EFD9E
:104D600022462B46FBF7DEFC32463B46FBF7DAFCDD
:104D7000094A0A4BFBF7D6FCFBF71AFBF8BD00000B
:104D8000304CA60A4625EF3F2A4E5A5DF34F35BFF9
:104D9000E7A52A8DE517693E9A99999999D582C018
:104DA000F8B504462046FBF716FD164A164BFBF7EE
:104DB00015FD06460F462046FBF752FF009000F017
:104DC0005DF9FBF72FFE114A114BFBF707FD044677
:104DD0000D46009800F057F9FBF724FE0D4A0E4BE4
:104DE000FBF7FCFC22462B46FBF79CFC32463B467D
:104DF000FBF798FC094A0A4BFBF794FCFBF7D8FA3F
:104E0000F8BD0000CB10C7BAB88DE83F44B97E0B9F
:104E1000FCF233BF7DAA55D59035733ECDCCCCCCBA
:104E2000CCCC70C010B5FBF71BFFFBF7FBFD054AB0
:104E3000054BFBF7D3FC054A054BFBF773FCFBF76F
:104E4000B7FA10BD917EFB3A70CEC83F77BE9F1A6D
:104E50002F0D474070B5224D2968224C2068091A51
:104E60000A2905D30A302060FFF798FEFEF7F8FF05
:104E70002968A068091A322903D33230A060FFF7ED
:104E800073FA29686068091AFA2908D3FA30606051
:104E9000FCF73CFCFCF776FA1348FEF7B7F82968F4
:104EA000E0680A1A7D21C9008A4207D34018E060F1
:104EB000FFF7AAFBFCF74AFCFCF7BCF9296820695C
:104EC000091A64290BD364302061FEF74DFFFFF708
:104ED0007DFCFCF75DF9FFF711FCFCF76BFF70BD83
:104EE000DC000020E4000020C8050020FFB585B0EC
:104EF0000598446805988068049005980088029099
:104F00000298401E800020180390019323E0069829
:104F10000168039801600698001D06900398001D23
:104F20000390002000902546049E029F02CE01CDF2
:104F300000F046FB009900F0D3FA00907F1E002F8E
:104F4000F4D10799009808600798001D0790241D68
:104F50000198401E019001980028D8D10598416819
:104F60000298401E02E004CC04C1401E0028FAD181
:104F700009B0F0BD30B5002903D004680025012236
:104F800009E0002030BD9300C358A34201D91C465C
:104F90001546521CD2B28A42F5D36D1CE8B230BD20
:104FA00010B5094C884201DC208810BD904201DB1D
:104FB000A08910BD521A401A062148431146FBF73A
:104FC00050F94000205A10BD26030020FEF72EF8AD
:104FD000FF209130FDF7C0FDFCF7A2FEFCF7C8FEF4
:104FE000FCF7FAFD12480121008AC903C004C00C75
:104FF0004018FDF799F9FCF7BDFD1920FDF7ACFD50
:10500000FDF742F8FDF768F9FCF798FDFCF74EFD57
:10501000FDF7AAF8FCF700FFFCF72EFCFDF784F87B
:10502000002211461020FCF7F7FDFFF713FFFCE705
:10503000000FFF1F10B5002802D000F009F810BDC6
:105040000520002240210007FDF7A7FF10BD00004A
:1050500010B500280BD001460548FBF7F8F8401EB4
:105060000449C86240084863496B0348016510BDA4
:1050700000093D00004401407404002010B50146C1
:1050800000F09EFA10BD10B504462146204600F0FF
:1050900097FA214600F094FA10BD000070B50A4C52
:1050A000E08B401C80B2E083012801D100F032F88F
:1050B000E08B322806D30548002545750020FFF710
:1050C000B9FFE58370BD000004020020B404002095
:1050D00070B50A4C208C401C80B22084012801D17C
:1050E00000F010F8208C052806D3054800254575EA
:1050F0000020FFF79FFF258470BD00000402002000
:10510000B404002010B50520012240210007FDF75E
:1051100044FF10BD10B50520012240210007FDF716
:105120003CFF10BDF8B5154CFF2621782046002520
:105130009136808C0127002908D0401D80B2A084C0
:105140007D21C900884207D3257005E0401F80B249
:10515000A084B04200D82770A08CFFF76BFF608C52
:10516000401C80B26084C82807D30020FFF762FF8C
:105170006584A684277002484575F8BD04020020A6
:10518000B404002070B5174C00252089002814D1E4
:10519000E088022806D3E580134845750020FFF714
:1051A00049FF70BD0F4940002A31085AFFF742FFFE
:1051B000E088022801D2401CE0802089401C81B296
:1051C0002181094817224038006D00F04BF92089F1
:1051D000172802D10020FFF72DFF20891928E0D3DE
:1051E000258170BD04020020B404002070B5174C66
:1051F0000025A089002814D16089062806D365817E
:10520000134845750020FFF715FF70BD0F4940009A
:10521000F631085AFFF70EFF6089062801D2401CBC
:105220006081A089401C81B2A181094817224038C1
:10523000006D00F017F9A089172802D10020FFF7B0
:10524000F9FEA0891928E0D3A58170BD04020020D1
:10525000B404002070B5174C0025A088002814D194
:105260006088032806D36580134845750020FFF742
:10527000E1FE70BD0F4940002E31085AFFF7DAFEFB
:105280006088032801D2401C6080A088401C81B245
:10529000A180094817224038006D00F0E3F8A0888B
:1052A000172802D10020FFF7C5FEA0881928E0D3F7
:1052B000A58070BD04020020B404002070B5174C16
:1052C0000025208A002814D1E089032806D3E5812F
:1052D000134845750020FFF7ADFE70BD0F49400033
:1052E0003431085AFFF7A6FEE089032801D2401C9A
:1052F000E081208A401C81B221820948172240386F
:10530000006D00F0AFF8208A172802D10020FFF7C7
:1053100091FE208A1928E0D3258270BD0402002066
:10532000B404002070B5174C0025208B002813D141
:10533000E08A092806D3E582134845750020FFF767
:1053400079FE70BD11494000085AFFF773FEE08AEC
:10535000092801D2401CE082208B401C81B22183AD
:10536000094817224038006D00F07CF8208B172880
:1053700002D10020FFF75EFE208B1928E1D32583A0
:1053800070BD000004020020B404002006030020C9
:1053900070B5174C0025A08A002814D1608A032814
:1053A00006D36582134845750020FFF743FE70BDA4
:1053B0000F4940003A31085AFFF73CFE608A032843
:1053C00001D2401C6082A08A401C81B2A18209489F
:1053D00017224038006D00F045F8A08A172802D146
:1053E0000020FFF727FEA08A1928E0D3A58270BD10
:1053F00004020020B404002070B5174C0025A08BD7
:10540000002813D1608B072806D3658313484575A0
:105410000020FFF70FFE70BD11494000085AFFF74A
:1054200009FE608B072801D2401C6083A08B401CC2
:1054300081B2A183094817224038006D00F012F8AC
:10544000A08B172802D10020FFF7F4FDA08B1928AC
:10545000E1D3A58370BD000004020020B404002045
:105460001803002010B50B461146002805D0CA1AB3
:105470005043FAF7ECFE0149486310BD0044014077
:1054800000B516490300FEF761FC110C0A0D10135C
:105490001F22250C0C0C0C0C0C1C16190C000120E6
:1054A000487500BD0220487500BD0320487500BD49
:1054B0000420487500BD0F20487500BD10204875B8
:1054C00000BD0E20487500BD0520487500BD0620B2
:1054D000487500BD0720487500BD0000B4040020D9
:1054E00070B501250400ED074C4020D4441A01D2C8
:1054F000001B0919C60D4B00F2B2FF2A29D01B0E62
:105500002CD000020C02D31A2C43DC40284305198E
:1055100010D2280A02D3401C6D0611D0761EF60563
:105520008019FF2A00DA70BDC00DC00570BD69404A
:1055300000F0DCF801200543C541521C761CE8E769
:1055400064089C40C90161408900E7D10124A0435F
:10555000E4E71B0E440200D0034870BD002AFCD1D2
:10556000C00FC00770BD00BF0000C07F0123020054
:10557000DB050A430DD4DA4203D49A4207D48842A9
:105580007047D84214D4D94212D48842704780421E
:105590007047DA4203D59A42F9D5814270475B00E1
:1055A0004200DA4204D24A00DA4201D28142704714
:1055B00010B5024AFBF77AFB10BD00BF09001604C4
:1055C00070B5420064414B005C41120E39D01B0E95
:1055D00038D0FF2A3CD0FF2B3AD040024902400A83
:1055E000490A060045184E43000A090AD2184843E2
:1055F000ED017F3A0104731A4019190C4318990FF1
:1056000004D001215B0849075B1A521CD80904D356
:10561000401CF50301D19D0607D0FF2A08D2D5050D
:1056200006D0E4072043401970BD0125A843F4E7E4
:10563000002A01DCE00770BD2402FF202043C005E2
:1056400070BD1B0EFF2A03D0FF2B01D0E00770BDF9
:10565000FF2645003606B54206D84D00B54203D8B0
:10566000D218FF2A00D0E7E7004870BD0000C07FD5
:1056700001230A00DB0502430DD4DA4203D49A4227
:1056800007D481427047D94214D4D84212D48142FF
:10569000704789427047DA4203D59A42F9D5884269
:1056A00070475B004A00DA4204D24200DA4201D27B
:1056B000884270474840414010B5024A4840FBF7D5
:1056C000F5FA10BD0900160470B50125ED07684014
:1056D00004004C4002D5694000F008F8FFF706FFCF
:1056E00070B501250400ED074C4022D4441A02D2C3
:1056F0006C40001B0919C60D4B00F2B2FF2A4BD0BB
:105700001B0E50D000020C02D31A2C43DC40A843DD
:10571000051B05D5AD0019D36D08761E521E37D076
:10572000F605280A01D2801970BD70416D0603D0BC
:1057300070BD6940FFF7DAFE9C40090261404900F4
:1057400001D0401E70BD0124A04370BD6D081DD066
:1057500001202B0C01D12D0410302B0E01D12D0274
:1057600008302B0F01D12D01001DAB0F01D1AD0071
:10577000801CEB0F01D16D00401C6D00361A121A0F
:10578000680AF5054019012A02DB70BD002070BDD2
:10579000C036300AC00770BD1B0E440201D1FF2B7A
:1057A00000D1024870BD002AF0D070BD0000C07F5B
:1057B0001C0FFF1F300FFF1F440FFF1F580FFF1F4D
:1057C0006C0FFF1F1C0FFF1F1C0FFF1F1C0FFF1F65
:1057D00000093D0000127A000024F40040865101C7
:1057E00000366E013F065B4F666D7D077F6F777CED
:1057F000395E797100000000000000000000000028
:105800000000000000000000000000000000000098
:105810000000000001000000020000000300000082
:10582000040000000600000007000000080000005F
:105830000900000000093D0000127A000024F40075
:105840004086510100366E0100093D0000093D000F
:1058500000093D008182838485868788898B8C8DB1
:105860008E8F919293959697999A9C9D9FA0A2A3B3
:10587000A5A7A8AAACAEB0B2B3B5B7B9BCBEC0C2FA
:10588000C5C7C9CCCED1D4D7D9DCDFE2E6E9ECF08C
:10589000F3F7FAFEB458000800000020D40400001A
:1058A000120E0008B8590008D40400202406000095
:1058B0000401000801D43204022501CB803E04011A
:1058C000102BC0414C13EC052320FC2A200C5AFC61
:1058D0000C5940423F1D0AD7233C134241580C9AB1
:1058E00099193ECDCC4C3E9A9999085A1958692C71
:1058F0001AA32C9B4843843918313240690C9918FB
:105900001A80182904011A033EFFFF0223013A906E
:105910002518092C09270527052C090A400C082CF5
:10592000094C0A4C0A2C092C082FBF0D6E0F591078
:10593000046599146E0F2920880BBF0D3F0CBF0D15
:1059400059103F0C143AE9048559104C0A2B591090
:10595000021C6E0FE9186B6E0F400914560914589B
:10596000299C4956292E88095A125A1299145910FD
:10597000602D6E0FBF0D4E2936A119C019C84944BC
:1059800049D22BE90A222984296229AA29E2C91CC1
:10599000E123C84233E14322411AA0047910224096
:1059A0001A8004B104C5366E0112F012081AF80408
:0859B0001AFF0401930000003E
:04000005080000C12E
:00000001FF
