:020000040800F2
:10000000D00A002081010008D537000829340008F3
:1000100000000000000000000000000000000000E0
:100020000000000000000000000000001F38000871
:1000300000000000000000001D3800082138000802
:100040009301000893010008930100089301000840
:10005000930100089301000893010008CD210008D6
:100060000000000093010008930100080000000058
:1000700093010008930100089301000800000000AC
:10008000930100089301000800000000930100089C
:10009000000000009301000893010008930100088C
:1000A000000000009301000800000000D53A00089D
:1000B00093010008000000000000000000000000A4
:1000C00000F002F800F030F80CA030C8083824180E
:1000D0002D18A246671EAB4654465D46AC4201D180
:1000E00000F022F87E460F3E0FCCB6460126334282
:1000F00000D0FB1AA246AB4633431847F453000026
:10010000145400000023002400250026103A01D3D7
:1001100078C1FBD8520700D330C100D50B607047BF
:100120001FB51FBD10B510BD00F012FE1146FFF740
:10013000F7FF00F099FE00F02AFE03B4FFF7F2FF8C
:1001400003BC00F05FFE000070B505460C46164685
:1001500002E00FCC0FC5103E102EFAD2082E02D3AB
:1001600003CC03C5083E042E07D301CC01C5361FBE
:1001700003E021782970641C6D1C761EF9D270BDD5
:100180000748804707480047FEE7FEE7FEE7FEE72F
:10019000FEE7FEE704480549034A054B70470000A7
:1001A00029380008C1000008D0060020D00A00202D
:1001B000D0060020034610B50B439B070FD1042A3D
:1001C0000DD308C810C9121FA342F8D018BA21BA1B
:1001D000884201D9012010BD0020C04310BD002A73
:1001E00003D0D30703D0521C07E0002010BD0378D2
:1001F0000C78401C491C1B1B07D103780C78401C51
:10020000491C1B1B01D1921EF1D1184610BD01E003
:1002100004C0091F0429FBD28B0701D50280801C72
:10022000C90700D00270704700290BD0C30702D065
:100230000270401C491E022904D3830702D50280A4
:10024000801C891EE3E70022EEE70022DFE70022A0
:1002500003098B422CD3030A8B4211D300239C4603
:100260004EE003460B433CD4002243088B4231D37B
:1002700003098B421CD3030A8B4201D394463FE00F
:10028000C3098B4201D3CB01C01A524183098B426F
:1002900001D38B01C01A524143098B4201D34B0158
:1002A000C01A524103098B4201D30B01C01A5241BB
:1002B000C3088B4201D3CB00C01A524183088B4242
:1002C00001D38B00C01A524143088B4201D34B002B
:1002D000C01A5241411A00D201465241104670479D
:1002E0005DE0CA0F00D04942031000D340425340A2
:1002F00000229C4603098B422DD3030A8B4212D362
:10030000FC22890112BA030A8B420CD38901921193
:100310008B4208D3890192118B4204D389013AD0D0
:10032000921100E08909C3098B4201D3CB01C01AA5
:10033000524183098B4201D38B01C01A52414309B8
:100340008B4201D34B01C01A524103098B4201D3A6
:100350000B01C01A5241C3088B4201D3CB00C01A13
:10036000524183088B4201D38B00C01A5241D9D22B
:1003700043088B4201D34B00C01A5241411A00D2AC
:100380000146634652415B10104601D34042002BA8
:1003900000D54942704763465B1000D3404201B527
:1003A0000020C046C04602BD70477047704700003D
:1003B0000246C80FC00781434B0030B54B405B007D
:1003C0009B0D20D01923DB06C91801231B05994278
:1003D00020DB0324A40704251346AB400BD3002BDA
:1003E00004D1EB0613409B00E34204D401246407CC
:1003F000002312195941FF231B0599420BD2C90052
:100400000143500F09E0CB0204D501430803024326
:1004100005D0054830BDFF21C905084330BD084659
:1004200007210905884330BD0000C07FF0B50C46A8
:10043000871A9C410D46861A9D4103D2C01BA141DB
:10044000D21963410D0D1F0DC94EEC1BAE435CD09C
:100450007F057F0D0026002F51D02D05AC46A94306
:10046000DD020123ED0A1B051D4320231B1B24D4A1
:100470001746E740381871412F46E740CC199D4098
:100480002818314661410C0D27D161449A4013D59B
:100490000023401C594152000ED140084000012267
:1004A0004B005205D34207D305204007C14201D576
:1004B000B04900E0B0493046F0BD6B00002A00D0E2
:1004C00001229A181F23203C1B1B01D5002302E0A8
:1004D000E540281871410C0DD7D0012424050919D5
:1004E000C407CD0740084908E40F28436144002CA5
:1004F000D5D00024401C61419A40D0D1CDE76A0597
:10050000520DD9D1C90FC907D5E79C4D4E0000281F
:1005100001D0012400E0002434195F00002A01D03A
:10052000012600E00026BE19954FAC420CD8AE4221
:100530000AD8B44206D001256D05EC42BCD0104665
:100540001946F0BD9942FCD000203946F0BDF0B507
:100550001FB40C460F46811A9F412546861A9D41BD
:1005600006D20125ED076F40401ABC4152187B416D
:10057000210D1E0D8D1BAC467D4D8D437ED0750526
:100580006D0D7CD00D05AE46AC431B031B0B794DA6
:1005900052429D41202366469B1B14D31746F740C9
:1005A000381800260090744160462F460741E41930
:1005B00000989D402818664116D4714671189A40DB
:1005C00025D5012320E093182A466A415200002BCA
:1005D00000D0521C1E23203E9B1B002B61DD3541A9
:1005E000EE1728186641E8D5001876415B1C9A4042
:1005F00000D3401C4B05F3181524E34010D3002B07
:1006000052D071467118D30FC01802D3491C05B0DF
:10061000F0BD0123DB079A42F9D140084000F6E71C
:1006200001225205B21801D1002853D00123CC0A6F
:10063000DB029943891E002A08D1020C03D0020C68
:100640000004103902E00246002020390023550B37
:1006500005D112020823550B01D152010D23550C6F
:1006600001D112011B1DD50C01D192009B1C150D4F
:1006700001D152005B1C2025EE1A01E02CE022E0A3
:100680000546F54015439840CA1AE1076918130555
:10069000C918002ABBDA032040070818C10FC90790
:1006A0000FE071466118B2E7F10740080843711086
:1006B00071444A000CD001235B059A42A7D2C90FAE
:1006C000C9070020A3E74905490D26D1002001E014
:1006D0000028F4D100219AE7284D6600002801D0B7
:1006E000012100E0002171185F00002A01D00126DD
:1006F00000E00026BE19224FA94210D8AE420ED803
:10070000B14208D001256D05E94206D01946A8027C
:10071000414010467BE79C4201D0214677E700200C
:10072000394674E710B50C465C4005D50124E40752
:100730006340FFF70CFF10BDFFF778FE10BD30B42B
:100740000C465C4004D50124E407634030BC6DE6F0
:1007500030BCFCE670B50124E40761400D465D4005
:1007600002D4FFF763FE70BD6340FFF7F0FE70BD7B
:10077000FF0700000000F0FF0000F07F0000E0FF36
:100780000000F87F1F22030C02D10F22000402D0C8
:10079000030E03D004E00020014670470002083A2F
:1007A000030F01D10001121F830F01D18000921E9F
:1007B000002801DB4000521E120551184205C012EC
:1007C000411810467047C10FC90700D040420122AE
:1007D00092071143D6E701218907D3E7F0B58B4C87
:1007E0000F09254689B0BD437BD01D092646AE437F
:1007F000FAD00E465E402740F60F3E43254071D0AA
:1008000024012142FBD0FF24AD19A4042D1B039524
:1008100001252D05DB02DB0AC9022B43C90A294346
:100820001E010901040F130F050121431701880B55
:10083000820391432D098C46A90B1E438A039543DD
:10084000B30B9A0396433F09BA0B9403A74302964E
:100850002E467E430497B6464E19D7190C4601968C
:10086000544305977E43371B7646BF1B3601B64679
:10087000BE0B361900967646BC043719009C01D38E
:10088000641C00946400002F01D001263443029EB2
:10089000049F754366467E430496760034196E00C5
:1008A00034190094029C019E1C196643751BAE46C8
:1008B000069465464519059C05956C435943754654
:1008C0000891691A0191049E01465143A41B0491A9
:1008D000611A009C0791E10605D0610901221143CC
:1008E00002E072E06EE06109089D00272C0A2D06E7
:1008F0006918049D7C412A0A2D066918019D6241F0
:10090000AC0DAD026D185441079A910D9202551924
:100910006141029A644658435443069B059A5A43E0
:10092000121A131B9A0E9B015B187A41010B0005EA
:10093000C3185141220A200644195A419A4200D252
:10094000491C01204002814203D315230226F643AD
:1009500002E014230326F6432020C51AA9401746B7
:10096000AF40DA400A4320460399D840091473186F
:1009700019055118039A3843D2075140AC4009D0A9
:100980000122944006D30022401C5141002C01D189
:10099000400840001E4A934212D301220398920657
:1009A000904207DB0520400709181A480143C0128E
:1009B000414004E0032040070818C10FC907002088
:1009C00009B0F0BD0020F107FAE705180C464C41CC
:1009D00011486D42A04115D394181A465A410E4849
:1009E000644290410ED301204A004005824209D35F
:1009F0005A00824206D35940C90F084AC90700204D
:100A00001143DDE700200649DAE700000000FF0798
:100A1000FE070000FFFFFF7F0000E0FF0000F07F07
:100A20000000F87F0121C9050123411842001B067F
:100A3000D3185B0E0AD0C1100722D20689184007CE
:100A40005242D14201D5520089187047090208D597
:100A50000146002A03D0C10FC90700207047104685
:100A60007047420202D00020024970470721090561
:100A70000143F4E70000F87FF0B5FF252D04C60917
:100A8000C209FF2704462E400137CB093E434840A8
:100A90002A402B400746002A6BD0002B69D0AA427F
:100AA00067D0AB4265D0002800DA32460125ED055B
:100AB00029432C4309022002090AD21A4B0C7F2435
:100AC000E31A434C000A7C44E35C7D24240412199D
:100AD00014145B00A218884201D3521C00E04000AD
:100AE00049420C465C4324115C43DB016415E31866
:100AF000040A5C43C502200D0C4644436419250AD0
:100B00005D432303EC0C0D46654300030019EB180D
:100B10004C42A34201D35B18401CD4052018002B83
:100B200007D05B00C91804D3401C002901D140083C
:100B300040003F2189048A4209D3002A08DC1106BB
:100B4000090F04D0032149074018C00FC007F0BDAA
:100B500001224100120689187F2252069142F6D2E4
:100B600005214907C84201D59010F0BDFF20C005FE
:100B7000F0BD002F00DA32461648AA4207D2AB4237
:100B800005D21902090E17D0F80FC007F0BDFF25D6
:100B900063002D06AB42F9D84900A942F6D8AB4212
:100BA00001D1A942F2D0A94201D1002101E06100A6
:100BB0004908D0050843F0BD1102090EFBD0FF2003
:100BC0000243D005F0BD0A460146104654E7000036
:100BD000E64900000000C07F0102C21504D00123D5
:100BE000DB071943002A0ADB9E239A1A02D408461F
:100BF000D0407047FF2241001206914201D90020E7
:100C00007047C017C04370471F22030C02D10F2248
:100C100000041CD0030E01D10002083A030F01D1D9
:100C20000001121F830F01D18000921E002801DBFA
:100C30004000521ED205511802125118192290403C
:100C400004D3491C002801D14908490008467047CF
:100C5000C10FC90700D04042012292071143D3E7D8
:100C600001218907D0E7000010B5FF22C30D134012
:100C700009D05A4007D0914205DA5C42A14202DD18
:100C8000C905081810BDC40FE407002B06D0002AC0
:100C900006D0002902DBFF20C0050443204610BD1A
:100CA0004102FCD0004810BD0000C07F10B5FF23FA
:100CB0001B0644009C421DD84C009C421AD8034697
:100CC000124A0B4307D4401A02D3EFF3008010BD41
:100CD000EFF3008010BD081A06D2EFF30080012167
:100CE0009043C907084302E0EFF30080904380F38C
:100CF000008810BD0D231B041A4204D011460020A9
:100D000000F006F810BD00F01BF810BD00000090C8
:100D1000C80212D54803400F002804D0C803C043BE
:100D2000012188407047EFF3008000010009032192
:100D30000907084380F300887047002070470000CF
:100D400010B5024800F02BF810BD00000000C07F75
:100D5000754600F053F8AE46050069465346C00894
:100D6000C000854618B020B5FFF714FA60BC002714
:100D70004908B6460026C0C5C0C5C0C5C0C5C0C567
:100D8000C0C5C0C5C0C5403D49008D46704710B5BF
:100D90000446C046C0462046FFF7CFF910BD10B547
:100DA0000C461107090F092904D00A290AD008297D
:100DB0000CD104E011460820FFF7AAFF06E0510617
:100DC00006D501E0510601D50120C007214610BD1E
:100DD000D10607D501010909CC084907000E000614
:100DE000044309E0410F20024907000A0143200E95
:100DF00000061D22D14101430846E7E7004870473D
:100E00007006002001491820ABBEFEE72600020054
:100E1000704770B58C180578401C6B075B0F01D1CB
:100E20000378401C2A1106D10278401C03E00678A2
:100E3000401C0E70491C5B1EF9D12B0705D4002302
:100E4000521E0DD40B70491CFAE70378401CCB1AD4
:100E5000921C03E01D780D70491C5B1C521EF9D5D5
:100E6000A142D8D3002070BD10B50122D2060020C7
:100E7000074B810054585C50401CC0B23028F8D356
:100E8000012004494007886003F0CEFE002010BD19
:100E90000000002000ED00E008B50021009101688D
:100EA0008A68D243D2071ED08A68104B1A400123A9
:100EB000002A08D0816B102211438163C16B194352
:100EC000C163012008BD8868184388600948084943
:100ED0000068FFF7BCF9009002E00098401E009007
:100EE00000980028F9D1002008BD000015000080FE
:100EF00040420F0050030020F0B5002314E09A0098
:100F00008458944627461E465A1C06E095004559CB
:100F1000A54201DA2C461646521C8A42F6DBB20084
:100F20008750624684505B1C8B42E8DBF0BD0000BA
:100F300010B586B010494B6B202213434B63496BAD
:100F4000114000910024022101220C4B002809D0FD
:100F5000019102940392049101A9184601F064FEE4
:100F600006B010BD019102920394049101A91846A4
:100F700001F05AFEF4E70000001002400014005097
:100F800010B50120FFF7D4FF00F016F8094C01223C
:100F90001146204601F0D9FE00F00EF80022012192
:100FA000204601F0D2FE00F007F80020FFF7C0FF56
:100FB00010BD000000140050002000BF401CC0B253
:100FC0000A28FAD37047000070B50446144D00207B
:100FD0002870144E200605D501220221304601F06A
:100FE000B4FE04E000220221304601F0AEFEFFF71D
:100FF000E3FF01221146304601F0A7FEFFF7DCFFB8
:1010000000220121304601F0A0FE6006040E28787F
:10101000401CC0B228700828DCD3FFF7B1FF70BDB8
:10102000CC0000200014005010B5084C0022022112
:10103000204601F08AFEFFF7BFFF00220121204673
:1010400001F083FEFFF7B8FF10BD00000014005050
:1010500010B50B4C00220221204601F076FEFFF76E
:10106000ABFF01221146204601F06FFEFFF7A4FFFF
:1010700001220221204601F068FEFFF79DFF10BD0E
:101080000014005070B500F0FFFF0121002002F0B5
:101090007BFA0121084602F077FA0121022002F0D2
:1010A00073FA0121032002F06FFA0021062002F0FA
:1010B0006BFA0021052002F067FA00221146104663
:1010C00002F0D4F9284C294D294801F077FE207C04
:1010D000030002F013FD0827050B1127272217270D
:1010E000052201210F2002F0C1F91BE00522012198
:1010F000022002F0BBF915E005220121002002F0D8
:10110000B5F90FE005220121032002F0AFF900F04C
:1011100099FA207C002826D004E001210522084607
:1011200002F0A4F900F020FD2878002806D1002262
:101130001146102000F05AFC01202870FF26F536D9
:10114000304601F0E1FB00221146104602F08EF914
:1011500000F00AFD304601F0D7FB002211461020B6
:1011600000F044FCB0E770BD780400205403002078
:10117000A405002001B582B0012301AA02A90248FA
:1011800003F0E2FC01980EBD1001002070B5144878
:10119000C06E0121C9050025124C884201DAE570B4
:1011A00070BD1149884202DBFF20E07070BDFFF77F
:1011B00063FC0321FFF758FD3F21090603F0BEFF42
:1011C000FFF70AFDC0B2082800D90820002804D083
:1011D00001218140491EE17070BDE57070BD0000C5
:1011E000D8030020CD00002000401C4670B5FFF75A
:1011F00037FD06460D4904F011F80446304603F069
:101200006BFD0B4904F00AF80546304603F069FD12
:10121000084904F003F8294603F090FF214603F043
:101220008DFF054903F08AFF70BD0000D26F1FBE1D
:10123000B67A7338E46A0FB2CD4C5443F8B500F077
:10124000C9F80546604E307C072806D0022804D035
:101250003746203F002804D00EE05C490020C862D9
:10126000F8BD00F0FBF8786400F0BEF8796C8842B5
:1012700002D256490020C862534C307CA03C002862
:1012800011D1E068FFF7ECFC21468039096F04F0CA
:1012900055F8009000F028F9009903F095FF02D26C
:1012A0004A480021C162494B5878002802D19D620A
:1012B00001205870986A854201D3281A00E0401B2B
:1012C0000121890288422AD940490020C862086366
:1012D0000978002920D03D4908708A78002A02D078
:1012E0008A88E2608870307400221146102000F075
:1012F0007DFB0021042002F047F9F86900280BD19A
:10130000206B002804D00021062002F03DF903E004
:101310000121062002F038F92C488562F8BD606A88
:101320007D21C9004843A16A294A5143327C042ADD
:1013300034D0052A32D0D96A814201D2FA31D96239
:101340000028EBD0D96A8142E8D3042030741878A1
:1013500000281CD101201D461870A978002902D14F
:10136000E168A980A8700121042002F00DF903F0C2
:1013700055FA00221146102000F038FBF8690028C9
:1013800003D10121062002F0FFF800202863206A23
:10139000E1688842C2D2206AE060F8BD042AFCD12C
:1013A000206AE268904201D2206AE0600029F4D00D
:1013B000186B884201D2FA301863186B8842ECD35C
:1013C00005203074F8BD0000780400201C030020C4
:1013D00060EA000010B5072000F022FA01494862D7
:1013E00010BD000058030020F8B51A4C1A48C06818
:1013F000FFF736FC0090A168009803F0E5FE03D8E3
:101400002069FFF7E9FBF8BDE168009803F05EFF93
:1014100003D86069FFF7E0FBF8BDA168E0680E46FD
:1014200003F08CFF216905460F46606903F086FFD3
:1014300004463146009803F081FF214603F0EEFE9A
:101440002946FFF719FB394603F078FEFFF7C4FB86
:10145000F8BD00001C030020D8030020F8B51E488A
:10146000C26B1E4800901E481E4EC178002906D14E
:101470008B00F250491C0329FADB0121C17034684A
:101480001046214603F05AFF009903F0C7FE21469B
:1014900003F054FE30600124A5007759601E8000DF
:1014A0003058394603F04AFF009903F0B7FE394639
:1014B00003F044FE7051641C032CEDDBB068FF2187
:1014C000C905C84201D30020F8BD3F21090603F039
:1014D00035FEFFF781FBF8BD58040020ABAAAA3EF9
:1014E0001C03002020060020F8B5174C1748C068E0
:1014F000FFF7B6FB0090A169009803F065FE01D8E4
:10150000206AF8BDE169009803F0E0FE01D8606A46
:10151000F8BDA169E0690E4603F010FF216A054697
:101520000F46606A03F00AFF04463146009803F054
:1015300005FF214603F072FE2946FFF79DFA394662
:1015400003F0FCFDF8BD00001C030020D8030020C0
:1015500010B50C49087C002806D0022804D00728C2
:1015600001D100F06FF810BD07480068074A9042AB
:10157000F9DB07200874002211460F2000F036FA2C
:1015800010BD00007804002058030020000016441D
:1015900070B50A4D68682C468034E16888420CD0EA
:1015A000074E3078401CC0B23070032805D900F0D7
:1015B00013FCE06868600020307070BD58030020A4
:1015C0009C010020F8B505461B497F201B4CC00537
:1015D0008D4203DD256060602846F8BD7F20C00590
:1015E000E060174F27617F21C905606803F0A6FD01
:1015F00006463946304603F0A1FD01463046FFF766
:101600003BFA07466061206800900146284603F0D7
:1016100095FE394603F002FE009903F08FFD054662
:1016200020607F203946C00503F088FE314603F074
:10163000F5FD60602846F8BD000016442801002032
:1016400000002041FEB5002400940194029400257E
:1016500002F0EEFD002855D0732804D0D22806D021
:10166000F5280BD107E00098401C009006E0019897
:10167000401C019002E00298401C02906D1C0A2D53
:10168000E6DB0321684603F0A3FA4D4D012804D0A0
:10169000022805D0032808D105E07320E87404E08F
:1016A000D220E87401E0F520E87400F0EDFCE87C5D
:1016B00005263607434F732825D0D22823D0012290
:1016C0002021384601F041FB02F04AFD0022802132
:1016D000304601F03AFB00222021384601F035FB6C
:1016E000374E203E34743848C06AFFF775FAFF2140
:1016F000373188420DD902203074002211460F2064
:1017000000F074F9FEBD01228021304601F01DFB7E
:10171000DAE7782802D207203074FEBD2A48EA7C36
:10172000C11D0F231425F9318030732A1CD0D22A11
:1017300030D0F52AF1D1254A8264C464244A026576
:10174000244A4266C465244A82677D221201C26728
:101750001920086018224A608860204848632048A1
:10176000086400F06BFCFEBD1E4A82641E4AC2641F
:1017700004651E4A4266C465642282679622C26777
:101780000D604B608D601A4848631A48086400F089
:1017900031FCFEBD184A8264184AC2640465184AC6
:1017A0004266C465C8228267C2670D604B608B6069
:1017B000144848631448086400F01CFCFEBD000097
:1017C0009804002000040050580300200000344218
:1017D0000000C84100803B456C0700003333F340F4
:1017E000000010410000F040CDCCCC3D00803B44D7
:1017F0003333434000009040000070419A99193EF5
:1018000000A00C45666606400000C04010B5FFF71A
:1018100027FA024903F002FD10BD0000510AA53D60
:1018200010B513490A68824212D00860114A00219B
:101830009162114992144A60086008460C3000F029
:10184000DFFD002804D00D4801210174FFF71AFCC8
:1018500009480C3000F0C8FF07480A210C3000F09E
:1018600063FF05480C3000F057FE80B210BD000049
:10187000C000002000240140B004002078040020B3
:10188000F8B51F490A6B0120000502430A630A6B81
:1018900082430A631A4940310A6802430A600968B0
:1018A00001400091184C174F2760204600F080FD42
:1018B000164D0126002802D02E74FFF7E3FB2760A7
:1018C0000320000760600020A060E0602661042122
:1018D000616126766076A076FF21C231E1612062E7
:1018E000094920310871A0620620E062064800F034
:1018F00017FE002802D02E74FFF7C4FBF8BD0000CD
:101900000010024000240140BC04002078040020A4
:1019100000B585B09F200090002002900320019028
:1019200005206946000701F07FF905B000BD10B53C
:10193000012105200903000701F000FA002801D069
:10194000002010BD012010BD70B586B01548416B58
:10195000012421434163416B21400091426B2021CE
:101960000A434263406B08400090C8010190039411
:101970000325049500260296052001A9000701F021
:1019800053F904200190039604950294064C01A992
:10199000204601F049F900220421204601F0D5F942
:1019A00006B070BD001002400014005010B586B0A3
:1019B0000D48426B01210A434263406B084000908E
:1019C0004020019002910020039002200490052401
:1019D000240701A9204601F027F9002240212046D2
:1019E00001F0B3F906B010BD00100240F8B50F4683
:1019F0003A4D696900291ED02C46C034617B00290C
:101A000019D1374E002A0CD0030002F077F81114D8
:101A100015191D215B5F6314141414141457252920
:101A200014000F2803D0102003F058FB02E00F2011
:101A300003F054FBE681F8BD012003F04FFBF8BD35
:101A4000022003F04BFBF8BD032003F047FBF8BD79
:101A5000042003F043FBF8BD0F2003F03FFBF8BD6B
:101A6000102003F03BFB002F08D0E868FF2200B2F3
:101A7000C332642103F0C2F8E081F8BD174880301A
:101A8000C169002908D0006A030002F037F8060493
:101A9000070A0D101404F0E7E681F8BD1148E08153
:101AA000F8BD1148E081F8BD1048E081F8BD0F484D
:101AB0009D30E081F8BD0E48E081F8BD0E2003F0B6
:101AC0000DFBF8BD052003F009FBF8BD062003F06F
:101AD00005FBF8BD072003F001FBF8BDD80300208B
:101AE0006E0F00002C0800002C0900004C0A0000BA
:101AF0003F0C000010B586B01048426B20210A430D
:101B00004263406B08400090032001900120029046
:101B10000020039002200490094C01A9204601F006
:101B200083F801221146204601F00FF9012202211B
:101B3000204601F00AF906B010BD00000010024076
:101B40000014005010B5EFF3108472B6FFF76CFA72
:101B50004820FFF739FA7120FFF736FAFFF778FAD5
:101B600084F3108810BD000070B5EFF3108572B6D5
:101B7000FFF75AFA6820FFF727FA134C2078FFF78F
:101B800023FAFFF765FAFFF74FFA6A20FFF71CFA0E
:101B90006078FFF719FAFFF75BFAFFF745FA6C2058
:101BA000FFF712FAA078FFF70FFAFFF751FAFFF7E5
:101BB0003BFA6E20FFF708FAE078FFF705FAFFF727
:101BC00047FA85F3108870BDCD00002010B586B0AF
:101BD0001248426B01210A434263406B0840009067
:101BE0008020019003910020049002900C4C01A9E8
:101BF000204601F019F80B4902914021019101A9F9
:101C0000204601F011F8072001F018F900221146D2
:101C1000072001F01DF906B010BD000000100240C1
:101C20000004005000002110F8B506460024064DBF
:101C300001273059401C02D02F74FFF723FA241DCE
:101C4000342CF6D3F8BD00007804002010B586B01F
:101C500004460021059114216846FEF7F6FA022198
:101C6000009101940124029405A9684600F05EFEEB
:101C7000002803D002480474FFF704FA06B010BD30
:101C800078040020F0B5A3B02290164821903426A5
:101C90004C203430209000246D461FE00020219914
:101CA0000A19431E81000F19B74202D257586F50CC
:101CB00000E06B50401C2028F4D322986A4601199A
:101CC000012000F017FF002807D0064801219830B6
:101CD0000174FFF7D7F923B0F0BD80342098844217
:101CE000DCD3F8E7E003002070B506460024084D79
:101CF0003046FFF7C7FF342229463046FEF75AFA2E
:101D0000002803D0641CE4B2022CF1D370BD0000A3
:101D1000E003002010B52F492D4A8A604268CA604E
:101D2000CA680B46803B5A60C2684A6182680A6191
:101D300002698A614269CA61C26A4A63026A8A6246
:101D4000026B8A6300230B63426ACA6282690A6279
:101D5000C0694862C868FF222D32642804D3C8686D
:101D6000FF24C334A04200D9CA6008693224E0428B
:101D700002DB0869322800DD0B618B6A0120782BB9
:101D800000D988624B6A782B01D93C234B620B6ADD
:101D9000642B02D30B6A934201D9C8230B62CB692F
:101DA000042B00D9C8618869002809D0C8690128B6
:101DB00007D0022807D0032802D1FF209130C86045
:101DC00010BDCA6010BDFF205F30C86010BD0000AC
:101DD000AAAAAAAAD803002010B50748816B491CFB
:101DE0008163064800F010F8054800F00DF805483A
:101DF00000F00AF810BD0000D803002000F0000831
:101E000000F8000800FF000870B50546EFF31084E5
:101E100072B6094800F0D2FF00F0F2FE2846FFF744
:101E200015FF2846FFF700FF2846FFF75DFF00F08B
:101E300053FE84F3108870BDA405002010B5EFF3A5
:101E4000108472B6034800F0B9FF00F005F884F37F
:101E5000108810BDA405002070B51D4C1D4BE06B13
:101E60000168994207D1216C0A689A4203D1626CD9
:101E700015689D4215D0A360FF202D30E060012140
:101E8000616100202061A061E1616063A162206363
:101E90003C21E162C82222626162A063FFF79CFFDD
:101EA00070BD126B096B006B02F022FC002807D09A
:101EB000012809D00228F3D1606CFFF72BFF70BD19
:101EC000E06BFFF727FF70BD206CFFF723FF70BDAD
:101ED000D8030020AAAAAAAA10B50B48016A0124B7
:101EE000214301620A480949016003214160FF2141
:101EF0000901816000F036FF002803D00548047412
:101F0000FFF7C0F810BD0000401002400030004054
:101F1000A40500207804002010B500202849FF22E5
:101F20000A54401CC0B20428FAD3264CA0690028E9
:101F30001FD0E069012804D002280AD003281CD150
:101F40000FE0FF202D30E060E06880B201F000FC7F
:101F500013E0FF205F30E060E06880B201F0F8FB42
:101F60000BE0FF209130E060E06880B201F0F0FB10
:101F700003E0E06880B201F0EBFB0121002001F0FA
:101F8000DDFB1048012180300162206B002803D066
:101F90000021062001F0F8FA6069002804D0012130
:101FA000072001F0F1FA03E00021072001F0ECFA2C
:101FB0000021042001F0E8FAFFF7D6FD10BD000073
:101FC000CD000020D803002010B500F0B9F800F0D3
:101FD000E1F80421054801F0E9F9002804D004489B
:101FE00001210174FFF74EF810BD000048050020E4
:101FF0007804002030B587B00E48416B0125294395
:102000004163406B284001908020029002200390A1
:102010000021049105900695052002A9000700F013
:1020200003FE054C207C002802D1FFF7CDFF25746C
:1020300007B030BD001002409804002030B587B0D2
:102040000E494A6B022002434A63496B01400191E9
:10205000202102910390002104910590012506950D
:1020600002A9074800F0E0FD064C207C002802D1C0
:10207000FFF7AAFF257407B030BD00000010024032
:10208000000400509804002010B586B00D48426B43
:1020900002210A434263406B0840009020200190D7
:1020A00001200290002003900491074C01A92046D2
:1020B00000F0BAFD00222021204600F046FE06B0C6
:1020C00010BD000000100240000400500149886368
:1020D000704700000004004070B58CB005461C211C
:1020E00005A8FEF7B2F80024019402940394049426
:1020F0000B200590FF200130089009940A95069462
:102100000C20079001260B9605A800F087FF0B4DC9
:10211000002802D02E74FEF7B5FF0720019002942C
:1021200003940494002101A800F096FE002802D038
:102130002E74FEF7A7FF0CB070BD000078040020DD
:1021400008B50F48C26B02210A43C263C06B084046
:1021500000900D480B4901600C49C16005214160A8
:102160000021016181604161816101F093F80028E3
:1021700004D0074801210174FEF784FF08BD000068
:102180000010024000040040480500201027000015
:102190007804002010B50B486021016000218160A7
:1021A0000161C160816141614160014604224038A2
:1021B00001F08CF8002804D0034801210174FEF7D7
:1021C00061FF10BD8805002078040020F8B5194E85
:1021D0003068194D6968401A322803D217494020E7
:1021E000C860F8BD164C0120E0608021154800F061
:1021F000A5FD07464021134800F0A0FD874201D10C
:10220000012000E0002032686968521A322A00D9A1
:1022100028702A78904205D03368591A322901D89B
:10222000226101E020612870306868600349402025
:10223000C860F8BDDC000020C40000200018024087
:10224000580400200004005005490020486005485B
:1022500041690422114341610348C1060860704787
:10226000B00500200020024021433412054A00211D
:10227000516005494A6902231A434A61FF210160FE
:1022800070470000B00500200020024070B5002219
:102290000C4C636901252B436361EFF3108372B625
:1022A0000125ED0408E040C940C0521CD2B21F2AEB
:1022B00002D166692E436661202AF4D383F3108825
:1022C00070BD00000020024003494A69CB141A4344
:1022D0004A61FF21016070470020024070B504464A
:1022E00000F03AFD0419084D05E000F035FDA0426C
:1022F00001D3032070BD2869C043C003F5D503484E
:102300002861002070BD0000002002401180000004
:10231000FEB504460020019025462035287D012881
:102320001ED00120287520688168C943C90734D0B0
:10233000A16BFF220132914302263143A163C168A0
:102340008907890F0091C16889088900C1602068E8
:102350008168D2051143816000F0FEFC07460FE062
:102360000220FEBD00F0F8FCC01B022808D9A06BBB
:102370001021B0430843A063002028750120FEBD52
:10238000206880680028EDDB2068C168009A11434E
:10239000C160A06BB043A06305E0A06B202108439F
:1023A000A06301200190002028750198FEBD000067
:1023B000F1B58AB00024114D05AE6F460A98FFF7BB
:1023C000A7FF002802D001200BB0F0BDA868A10033
:1023D000705040027850641C052CEFDB05216846E4
:1023E000FEF78AFD029840122861E8686861686813
:1023F0000121C903084368600020E5E7402401404B
:10240000F8B500250022009204462034227D012ADE
:1024100039D0012323750268966876076AD43A4F4B
:102420004E68BE4250D0966A0F78BB401E439662FB
:102430000123C26A1B079A421FD0012A1DD0022A1B
:102440001BD0032A19D0042A17D0052A15D0062A32
:1024500013D0072A11D002688B6856697607760F69
:10246000B3420AD05369DB08DB005361006842695C
:102470000B7A5B075B0F1A43426108680B2804D094
:102480000C2802D03BE00220F8BD204B9A680B28B4
:1024900007D00120800502439A6008680B2803D00A
:1024A0002DE00120C005F6E71A4819490068FDF73C
:1024B000CEFE0A214843009002E00098401E0090A2
:1024C00000980028F9D11AE0906A0E78B34098433A
:1024D000906208680B2801D00C2810D10B498A683B
:1024E0000B2804D00120800582438A6007E0012088
:1024F000C005F9E7816B202211438163012500208B
:1025000020752846F8BD000001100000002701409A
:1025100040420F00500300200068006C704700002C
:10252000F8B504460025002C05D0A06B26462036C1
:10253000002802D007E00120F8BD0020E0633075DC
:10254000204600F0A1F8A06B1022C00600287DDB19
:1025500020688168490779D4A16B1301994302234C
:102560001943A1638168C943C9070CD0C168182306
:102570009943A3681943C160206801696368090130
:102580000909194301612068C1683D4B1940C160C8
:10259000207EE16880030143607EA36A4703012B2C
:1025A00002D001231B0300E000231F4323693943AA
:1025B000022B09D00023194333795B001943A67E0F
:1025C0000123012E02D00AE00423F4E7002826D0DC
:1025D000A06B20263043A063E06B1843E063E06902
:1025E0000646FF3EC23E02D0266A304301432068C1
:1025F000C6680E43C6600126E06A3607B04212D0B4
:10260000012810D002280ED003280CD004280AD0AC
:10261000052808D0062806D0072804D00FE001209E
:1026200000040143DBE720684669F608F6004661CE
:1026300020684669A78D7F077F0F3E43466120686B
:10264000C068104E3040884209D100E011E00020FF
:10265000E063A06B80088000401CA0630DE0A06BCD
:10266000022188431043A063E06B1843E063012517
:1026700003E0A06B1043A06301252846F8BD0000CD
:1026800019C2FEFFE7FF3FC370B586B005461421AF
:1026900001A8FDF7DAFD21490A68012002430A601A
:1026A0000A68024000921D4A403A936B03439363C9
:1026B000936B03400093536B03435363526B02408D
:1026C00000920B68020513430B60096811400091EA
:1026D00001900320029000260396052001A900071F
:1026E00000F0A2FA002000F0B5FD0E4C0C4820606E
:1026F0006660A660E6604015206180006061202071
:10270000A06103200003E061204600F099F8204614
:1027100000F0C6F82C63656206B070BD4010024040
:10272000080002402C060020F8B504460D46274656
:102730006069203708280BD02068C068C00709D01E
:10274000A06B20210843A063002038750120F8BD4C
:10275000082600E00C2600F0FFFA009011E0681C4B
:102760000FD0002D05D000F0F7FA0099401AA842CA
:1027700007D9A06B04210843A0630020387503200B
:10278000F8BD206800683042E9D0A06B0121490201
:102790000843A0632068C1680C220905890F00293D
:1027A0001AD1617E002917D10168090714D5816803
:1027B00001234907002908DB416891434160A06B70
:1027C000190288431843A06306E0A06B2021084348
:1027D000A063E06B1843E063207E002801D12068ED
:1027E00002600020F8BD000070B5044620688068D3
:1027F000400720D425462035287D012819D0012006
:1028000028752046FEF748FB002811D1A16B0B4A22
:102810001140FF2201321143A1630021E1632975B8
:1028200022681C21116021688A6804231A438A6087
:1028300070BD022070BD022070BD0000FEF1FFFFE0
:1028400070B50446002C24D020680168490849006E
:10285000016020680025056020684560206885606B
:102860002068C5600C49206840181421FDF7EFFC72
:10287000800020640949E163012282404A60A56228
:10288000E56225636563A5632034657025700020CB
:1028900070BD012070BD0000F8FFFDBF00000240C8
:1028A00070B50446002C26D0144825681421281839
:1028B000FDF7CDFC800020641148E0630221204632
:1028C000203041702A680F490A40A3686168266970
:1028D0001943E3683343194363691943A3691943EF
:1028E000E3691943114329600021A1630122427069
:1028F0000170002070BD012070BD0000F8FFFDBF19
:10290000000002400FC0FFFF70B5044600F024FA3B
:102910000546601C02D004484068241800F01CFAE8
:10292000401BA042FAD370BDD4000020F8B5044685
:102930000E46012563480178012969D00121017003
:10294000614840680004400F60490B68820060489D
:1029500082581068C7B2BC46BB4229D14B68C70138
:10296000FF0DBB4224D10B690004000E83421FD12E
:102970008B685068C7B2BB421AD1CB684001400D8A
:10298000834215D148699368DB03DB0B98420FD172
:102990008869D368DB03DB0B984209D1CB691069E6
:1029A00087B2BB4204D10B6A8000800C83421ED0E8
:1029B000604608601068C001C00D486010880004BF
:1029C000000E08611079886050684001400DC860B1
:1029D0009068C003C00B4861D068C003C00B886119
:1029E000108A80B2C86110698000800C08627D275F
:1029F0002068FF0004280DD002281CD00121C90244
:102A000088425AD13846FFF769FC002836D054E096
:102A10000220F8BD3846FFF761FC00284DD1FFF7D2
:102A200013FC3846FFF75AFC05462A494869042238
:102A30009043486141E07D20C000FFF74FFC002833
:102A40003BD1401E3060676811E03846FFF70EFC4E
:102A50007D20C000FFF742FC05461E484169022266
:102A600091434161280001D0376026E08037A0689B
:102A70006168C0014018B842E7D81EE00020C0439A
:102A80003060E76813E03846FFF71EFC7D20C00089
:102A9000FFF724FC05460F484169C2149143416188
:102AA000280001D0376008E0012000033F182069AA
:102AB000E16800034018B842E5D8024800210170DF
:102AC0002846F8BDB0050020001002400021024059
:102AD0000C54000800200240012005494A69C30740
:102AE0001A434A614969002900DA00207047000052
:102AF00000200240F7B50F463C4C207801285AD000
:102B0000012020703A4840680004400F39490D68A0
:102B10008200394880580268D3B29D4229D14D685D
:102B2000D601F60DB54224D10D691204120E95425C
:102B30001FD18D684268D6B2B5421AD1CD68520114
:102B4000520D954215D14A698568ED03ED0BAA42F5
:102B50000FD18A69C568ED03ED0BAA4209D1CD6991
:102B6000026996B2B54204D10D6A9200920C954268
:102B70001DD00B600268D201D20D4A600288120497
:102B8000120E0A6102798A6042685201520DCA60CF
:102B90008268D203D20B4A61C268D203D20B8A6127
:102BA000028A92B2CA6100698000800C08627806CD
:102BB00003D00120FEBD0220FEBD7D25ED0028468C
:102BC000FFF78CFB00280DD138460299FFF75EFB1A
:102BD0002846FFF783FB09494A69520852004A61B7
:102BE0000028E9D100212170FEBD0000B0050020C1
:102BF00000100240002102400C5400080020024056
:102C0000002006494A69002A07DA054A8A60054A0F
:102C10008A604969002900DA0120704700200240DB
:102C200023016745AB89EFCDF0B500227CE001249C
:102C30009440A4462340002B75D04C68022C01D050
:102C4000122C0CD1D408A40027183D6A5407E40EB6
:102C50000F26A640B5430E69A6402E433E62066885
:102C600055000324AC40A6430F79BF07BF0FAF4008
:102C7000374307604E68012E05D0022E03D0112E77
:102C800001D0122E0ED18668A643CF68AF403743DD
:102C9000876047686646B7430E79F606F60F96409A
:102CA0003E434660C668A6438C68AC403443C4606B
:102CB0004C68E40037D595081E4CAD002F193D6EC9
:102CC0009407E40E0F26A640B54305263607B0420A
:102CD00001D1002605E0184EB04201D1012600E0E6
:102CE0000226A6402E43134D3E66124E80363468AF
:102CF0009C434F68FF0300D51C43346074689C43B9
:102D00004F68BF0300D51C4374602C689C434E6819
:102D1000F60200D51C432C606C689C434E68B602DA
:102D200000D51C436C60521C0B681C46D44000D07C
:102D30007DE7F0BD00180240000400500069084221
:102D400001D00120704700207047002A01D0816126
:102D5000704781627047000001488068704700003A
:102D6000D400002070B50446002C0FD02168104814
:102D7000086021680F480860216860684860216821
:102D8000A0688860FFF7E8FF054608E0012070BDF5
:102D9000FFF7E2FF401B302801D9032070BD2068F7
:102DA000C0680028F4D1216803480860002070BD85
:102DB000CCCC000055550000AAAA000000680249CA
:102DC0000160002070470000AAAA00000248816844
:102DD0004268891881607047D400002010B5002433
:102DE000032000F009F8002801D0012401E000F0E0
:102DF00023F8204610BD000070B5054600240C4E97
:102E00007068002811D00B4800F02CFA002801D07F
:102E100001240BE0042D06D200222946501E00F0AA
:102E200017F8356002E0012400E00124204670BD5F
:102E3000D4000020C05D000070470000C106C90E2C
:102E400001208840014908607047000000E100E06F
:102E500010B500F0C1FC10BDF8B504460D46002CBD
:102E60000FD04D480068C007C00FA84218D24A4F83
:102E700038684008400028433860FFF76DFF064679
:102E800009E00120F8BDFFF767FF811B434881423D
:102E900001D90320F8BD3868C007C00FA842F2D19D
:102EA00020683F4E81070DD5400704D5B068072143
:102EB00009030843B060B0680F2109028843A16884
:102EC0000843B0602078C0072DD06068012808D082
:102ED00000280BD032494031096A89070BD4012000
:102EE000F8BD3168890306D40120F8BD3168490571
:102EF00001D40120F8BDB168C908C9000143B1601F
:102F0000FFF72AFF074607E0FFF726FFC11B23480C
:102F1000814201D90320F8BDB068382108406168BA
:102F2000C9008842F0D11C480168C907C90FA942ED
:102F300016D901684908490029430160FFF70CFFD1
:102F4000074607E0FFF708FFC11B1448814201D97B
:102F50000320F8BD10480068C007C00FA842F1D197
:102F60002078400706D5B068072109038843E16847
:102F70000843B06000F01CF8B1683C228909114098
:102F8000084A515CC906C90EC8400749086007488D
:102F90000068FFF731FFF8BD0020024088130000F1
:102FA000001002405054000850030020D4000020BC
:102FB00000B585B0142216496846FDF7C5F81548D6
:102FC00081688906490F0CD081688906490F01295B
:102FD00018D080688006400F032815D0002005B067
:102FE00000BD016889044A0F012191404068000436
:102FF000400F042800D9002080006A461058FDF7D1
:1030000026F9ECE70448EAE70120C003E7E70000FF
:103010002C5400080010024000366E01F8B504463A
:10302000002C1DD020783827C007864D002856D0A8
:10303000A8683840082815D06068002807D0A06824
:10304000002817D029690C229143014329610121ED
:103050006068090488420FD12868084328601EE090
:103060000120F8BD2868800339D56068002836D172
:103070000120F8BD0120F8BD052301221B049204A4
:10308000984206D1286810432860286808432860C1
:1030900005E02868884328602868904328606068B5
:1030A00000280ED0FFF758FE064606E0FFF754FE54
:1030B000801BC82801D90320F8BD28688003F5D5F6
:1030C0000DE0FFF749FE064606E0FFF745FE801BD0
:1030D000C82801D90320F8BD28688003F5D42078DA
:1030E000800772D5AE683E40002E12D0FF20E16806
:1030F0000130002958D029680722D2029143226961
:1031000011432960296801432960FFF725FE06461F
:1031100040E02868400502D5E068002809D06868CA
:103120006169000C000408436860FFF715FE07465C
:1031300008E00120F8BDFFF70FFEC01B022801D9EF
:103140000320F8BD28684005F5D5002E13D1286866
:103150000721C9028843216908432860FFF728FF37
:10316000A9683C2289091140374A515CC906C90E39
:10317000C8403649086036480068FFF73DFE002821
:1031800023D00120F8BDFFF7E7FD801B022801D9FD
:103190000320F8BD28684005F5D568686169000C12
:1031A00000040843686010E0296881432960FFF744
:1031B000D3FD064606E0FFF7CFFD801B022801D9AC
:1031C0000320F8BD28684005F5D42078000736D5DF
:1031D000A8681C4D8006400F403503280AD0A0691E
:1031E00000281AD0286A012108432862FFF7B4FD9D
:1031F00004460EE0286A800721D5A06900281ED168
:103200000120F8BDFFF7A8FD001B022801D903200B
:10321000F8BD286A8007F5D511E0286A400840000B
:103220002862FFF799FD044606E0FFF795FD001BB5
:10323000022801D90320F8BD286A8007F5D40020B0
:10324000F8BD000000100240505400085003002058
:10325000D40000200249CA690243CA6170470000D5
:103260000000014010B50949401E884201D90120E3
:1032700010BD074C60610321081F00F0ADFA00206B
:10328000A06107202061002010BD0000FFFFFF00AB
:1032900000E000E070B50446002C05D0254620353E
:1032A000687F002802D006E0012070BD002028774A
:1032B000204600F00AF802206877211D206800F0FF
:1032C000CBFA01206877002070BD7047F8B504463E
:1032D0000E4625462035287F01280DD0012028776D
:1032E000022068770427002A08D0042A19D0082A67
:1032F0002ED00C2A55D13EE00220F8BD3146206880
:1033000000F0F6FA20688169082211438161206883
:103310008169B943816120688169326911438161A2
:103320003FE03146206800F021FB206882690121DE
:10333000C9020A4382612068816901229202914395
:10334000816120688169326912021143816128E03C
:103350003146206800F04AFB2068C26908210A4310
:10336000C2612068C169B943C1612068C16932691D
:103370001143C16115E03146206800F077FB2068F9
:10338000C1690122D2021143C1612068C2690121D1
:1033900089028A43C2612068C169326912021143FD
:1033A000C1610120687700202877F8BD10B5044678
:1033B0000122206800F08EFA0D482168814205D074
:1033C0000C48814202D00C48814204D1486C012251
:1033D000D20310434864206881684907490F0629D1
:1033E00003D00168012211430160002010BD0000DC
:1033F000002C0140004401400048014008B5402134
:103400000268C943116002684910116000680168D0
:10341000416800910168416800910168416800912C
:1034200001684068009008BDFEE7000010B5044642
:1034300000F0DAF80C493F20002C09D00A780A7015
:103440004A7802434A70887837221043887010BD4A
:103450000A7802430A704A78712002434A708A78D7
:1034600002438A7010BD0000CD00002010B504B2E8
:10347000130000F043FB0604080C1014180780B278
:1034800000F05CF910BD204600F03CF910BD80B2A0
:1034900000F01CF910BDC0B200F0B6F810BD80B24B
:1034A00000F07EF910BD204600F0B8F810BD000015
:1034B00070B5002804DB80B2012100F03FF970BD37
:1034C000404200B2632800DD63200A21FCF7C9FEF8
:1034D000CCB20A21FCF7C5FECDB200F085F8074852
:1034E0004022017811430170054942784B5D1A432F
:1034F00042708278095D0A43827070BDCD00002061
:103500004054000870B504461548844200D904466A
:103510000A212046FCF79BFE0E460A21FCF797FE87
:103520000D4664212046FCF792FE0A21FCF78FFE2F
:103530000C4600F059F80B480B4982788B5D1A4312
:10354000827022462A4303D042784B5D1A43427070
:10355000002C03D00278095D0A43027070BD0000A0
:10356000E7030000CD00002040540008054A002871
:10357000517803D080200143517070474806400EB7
:1035800050707047CD00002010B5042807D00628E1
:1035900009D0072802D10846FFF7E8FF10BD08460A
:1035A00000F006F810BD084600F010F810BD00004D
:1035B000054A0028917803D080200143917070471C
:1035C0004806400E90707047CD000020054A002844
:1035D000117803D080200143117070474806400ED7
:1035E00010707047CD00002006480178C909C90154
:1035F00001704178C909C90141708178C909C901BF
:1036000081707047CD00002010B5002902D0FFF76F
:103610000DFF10BDFFF7E8FF10BD000010B5044618
:1036200000294ED0FFF7E0FF274879214022032CE4
:1036300032D00FDC002C1BD0012C23D0022C08D15F
:103640000278027042780A43427081785B2211430B
:10365000817010BD0F2C2AD0102CFAD101781143A3
:10366000017041781143417081781143817010BD20
:103670000278027042780A43427081783F221143F7
:10368000817010BD0278027042780A4342708178DE
:1036900006221143817010BD03786D24234303700B
:1036A00043781343437082780A43827010BD0278D6
:1036B000027042780A43427081787122114381700E
:1036C00010BDFFF791FF10BDCD00002070B50407BD
:1036D000240F01060D0F0005060FFFF785FF0748B1
:1036E000074982780B5D1A43827042784B5D1A431A
:1036F00042700278895D0A43027070BDCD000020DF
:103700004054000810B5002912D0002802D0FFF75D
:10371000CFFE10BDFFF768FF07483F2102780A433C
:10372000027042780A43427082780A43827010BD68
:10373000FFF75AFF10BD0000CD00002010B5002992
:1037400002D0FFF7DFFE10BDFFF74EFF10BD0000F7
:1037500070B506460A213046FCF779FD0C460A2171
:10376000FCF775FD0D4664213046FCF770FD0A211B
:10377000FCF76DFD0E46FFF737FF0748074A8178D3
:10378000135D194381704178535D1943417001788D
:10379000925D1143017070BDCD00002040540008BF
:1037A00010B50446FFF720FF092C00D9092407496A
:1037B000074A8878125D1043887048783F2210438A
:1037C0004870087873221043087010BDCD000020A7
:1037D00040540008704700008307FF22DB0E9A4028
:1037E0008907090E994000280BDA0007000F0838F6
:1037F000830808489B001818C36993430B43C361AF
:103800007047830804489B001818036893430B43D0
:103810000360704700ED00E000E400E0704770478F
:1038200010B5FFF7D3FA10BD08494868084A000CE4
:1038300092880004D204D20C104301225203104398
:103840004860C803034988607047000000100240C8
:10385000000FFF1F00ED00E070B50268184C194E14
:10386000A04201D0B04204D170251346AB434A6850
:103870001A43154B154DA04208D0B04206D0144E45
:10388000B04203D0984201D0A84204D103263602A8
:10389000B243CE6832438026B2434E69324302605F
:1038A0008A68C2620A688262A04203D0984201D04C
:1038B000A84201D1096901630121416170BD000085
:1038C000002C014000040040004401400048014039
:1038D0000020004010B5C906C90E01238B40046AC0
:1038E0009C430462036A8A401343036210BD0000D4
:1038F000F0B5026A520852000262056A43688269A2
:103900007024A243920892000C681443022295434B
:103910008A682A43124E134FB04204D0B84202D0F4
:10392000114DA84206D10825AA43CD6815430422AB
:1039300095432A46B04204D0B84202D00A4DA8426C
:1039400008D1FF250135AB436D00AB434D691D43E5
:103950008B692B4343608461496841630262F0BD17
:10396000002C01400044014000480140F0B5026ACB
:1039700010239A430262046A4368826907252D0373
:10398000AA4303252D02AA430D682D0215432022C8
:1039900094438A6812012243114EB04207D1802716
:1039A0001446BC43CA68120122434024A243B042D9
:1039B00005D00C4CA04202D00B4CA0420AD10124ED
:1039C000A402A3436400A3434C69A4001C438B6975
:1039D0009B00234343608561496881630262F0BDB7
:1039E000002C01400044014000480140F0B5026A4B
:1039F000FF2301339A430262046A4368C269702557
:103A0000AA43920892000D68154301225202944382
:103A10008A6812022243124EB04207D1C7141446DC
:103A2000BC43CA68120222430415A243B04205D027
:103A30000C4CA04202D00C4CA0420AD10124240319
:103A4000A3436400A3434C6924011C438B691B01FD
:103A500023434360C5614968C1630262F0BD000051
:103A6000002C0140004401400048014070B5026A4A
:103A700001231B039A430262046A4268C369072553
:103A80002D03AB4303252D02AB430D682D021D43CF
:103A900001235B039C438B681E0326430A4B984219
:103AA00005D00A4B984202D0094B984206D1012416
:103AB000A4031346A3434A6992011A434260C561B5
:103AC00049680164066270BD002C01400044014059
:103AD0000048014010B5084C20680068C0438006CB
:103AE00001D400BF02E00448FFF788FC20202168D1
:103AF000C043086010BD0000FC04002030B47446D0
:103B0000641E2578641CAB4200D21D46635D5B00D9
:103B1000E31830BC1847000010B5FDF708FF0A494C
:103B20008A6890420AD08860002807D00022114697
:103B30001020FDF75BFF05480021C18200F034F83A
:103B400000F006F810BD00009C0100209804002041
:103B500070B5144C0025A069002817D0A561E06954
:103B600000280AD000F09AFD002211460F20FDF730
:103B70003DFFFEF731F9E56108E000221146012022
:103B8000FDF734FF00F0C2FD0120E061E06900288C
:103B900006D06069002803D06561012000F0B0FB09
:103BA00070BD00005804002070B5FDF7C0FE002471
:103BB00012490123124A00280ED090880F2801D202
:103BC000401C908090880F2805D35078002802D19F
:103BD0008B615370947070BD9088451E0E2D00D27D
:103BE0004B610F2806D35078002803D09078002826
:103BF00000D193709480547070BD00005804002070
:103C00009C01002010B51748407B00280ED003000F
:103C1000FFF774FF110C0A0D10131F22250C0C0C5A
:103C20000C0C0C1C16190C0001F076F910BD01F0FB
:103C3000DDF910BD01F0A4F910BD01F00BFA10BDC3
:103C400001F05AF810BD01F071F810BD01F098F8BC
:103C500010BD01F0C5F810BD01F02AF910BD01F04A
:103C6000F3F810BD9804002070B51548C16A154CD2
:103C70000025A26A914204D0C06AA062A5810120F9
:103C8000E070E078002810D00D488038C06800222D
:103C90000121FFF7EBFBA089643080B2A0817D2178
:103CA0000901884200D3E57070BD0748006FFCF73A
:103CB00093FF80B200220121FFF7D8FB70BD000006
:103CC00058040020A801002058030020F0B587B058
:103CD0000C46029021463D4F029801F02FFB460012
:103CE00076083B483A4D807CC03D0690E96E0591D0
:103CF00000282DD02846A030007C042828D0059824
:103D0000FCF76AFFAA6F0621904207D20120314AD0
:103D10000B1A9B00D450401C0528F9DD2E4B9878D7
:103D2000002809D101202B4F0A1A9200BC50401CD8
:103D30000628F9DD012098702848864201DD284FC9
:103D400009E02848864201DA274F04E01F4F02E0CD
:103D50002148002181703946029801F05FFA04463B
:103D60007F203946C00501F0E9FA1A4E0490316807
:103D700001F054FA214601F0E1F930600124601E9F
:103D800080003058394601F049FA0190A1000391B2
:103D90000498715801F042FA019901F0CFF90399A2
:103DA0007050641C062CEADB069800280CD005989D
:103DB000FCF712FFE96F884206D23F2109067069BD
:103DC00001F0BCF907B0F0BD3069FBE7CDCC4C3D4C
:103DD0009804002008060020040100200000C841CB
:103DE000CDCCCC3D000020410AD7233CFEB500904D
:103DF000009801F0A3FA44003B4F6408BC603B4EBE
:103E00003F252D06B4420ADA31462046FCF734FE3F
:103E1000374901F003FA294601F090F90DE03146E7
:103E2000204601F08BFA3146FCF726FE0221FCF712
:103E30001BFF8121C90501F081F9A84200DA28465B
:103E400041252D06A84200DD2846F8600290314643
:103E50008C420ADA2046FCF70FFE264901F0DEF913
:103E60007F21C90501F06AF90DE00E46204601F0F8
:103E700065FA3146FCF700FE0221FCF7F5FE8121D0
:103E8000C90501F05BF97F24E405A04200DA204671
:103E9000A84200DD2846054638617868029901F09D
:103EA0004DF906462946304601F048F901463046AC
:103EB000FCF7E2FD786101903D680098294601F029
:103EC0003DFA019901F0AAF9294601F037F90546B2
:103ED00038602046019901F031FA314601F09EF92F
:103EE00078602846FEBD00008401002000002041CB
:103EF000000060400000404070B553490D6A524CCC
:103F0000002178260122803C2B00FFF7F7FD0A16DE
:103F10000625394D6776878E951600280ED0206AC3
:103F2000FF252D35A84204D200F090F8216A4018F0
:103F30002062206AA84200D9256270BD206A6428E8
:103F400004D900F083F8216A081A2062206A6428E4
:103F5000F3D26420206270BD00280AD0606A7828FD
:103F600002D2606A401C6062606A7828F3D9666297
:103F700070BD606A0028FBD0606A401E606270BD40
:103F800000280AD0A06A782802D2A06A401CA06249
:103F9000A06A7828F3D9A66270BDA06A0028FBD079
:103FA000A06A401EA06270BD00280BD0E06AB42851
:103FB00002D2E06A401CE062E06AB428F3D9B4207F
:103FC000E06270BDE06A3C2802D9E06A401EE0620F
:103FD000E06A3C28F5D23C20E06270BD60690028B0
:103FE00005D0616100210720FFF7CEFA70BD626144
:103FF00001210720FFF7C8FA70BD002806D020690C
:104000003228F9DA2069401C206170BD2069322114
:10401000C842FADD2069401E206170BDA0690028F9
:1040200001D0A16170BDA26170BD606B002801D09C
:10403000616370BD626370BD206B002801D0216395
:1040400070BD226370BD00005804002010B51C48EC
:1040500000681C4A00231169002903D110615061D6
:10406000D380137011691924411A6401A14202D945
:104070005061D380137051697D24411AE400A1423C
:104080000BD3D188032905D91178FF2903D2491C04
:10409000117000E01370D3805061D188491CD18029
:1040A000106105201178002905D0042900D90421C8
:1040B0000A204143C8B2282800D9282010BD00009A
:1040C000DC000020A801002010B50A48C1680029C2
:1040D0000ED0002102464032D182C160064A1170E2
:1040E000007C00F00BF8002211461020FDF77EFC4A
:1040F00010BD0000580400209C01002010B50A4C9F
:10410000E169002905D0FFF7F7FEA06A401CA06214
:1041100010BD00F0ADF8E06A401CE06202480021EA
:104120004030817410BD00005804002010B50020FC
:10413000FDF776FB044CA060FDF758F8A062FDF790
:1041400019F8A06410BD00005803002010B5042029
:10415000FDF766FB0149886110BD0000580300208F
:1041600010B50120FDF75CFB024CE060FDF74EFB53
:10417000E06210BD5803002070B5FDF785FF0020F8
:10418000284900BF401C80B28842FAD30220FDF7C4
:1041900047FB254D28612549C97C732904D0D229C4
:1041A00006D0F5290BD107E000F0E8FB286306E014
:1041B00000F026FC286302E000F064FC28631A4C3F
:1041C0008034E068FCF74CFD0146286BFDF7FAF9F6
:1041D000286528602046A030007C002811D00428E3
:1041E0000FD0E068FCF73CFD0646E068FCF738FDC0
:1041F00001460020FFF7FAFD3146FFF767FD28670B
:1042000070BDE068FCF72CFD0646E068FCF728FD71
:1042100001462868FFF7EAFD3146FFF757FD28679A
:1042200070BD0000FF080000580300209804002023
:1042300010B5FFF78BFF0B4801218069C902884246
:1042400001D9F52010BD0721C901884201D2D22031
:1042500010BD054940180549884201D2732010BDA0
:10426000002010BD580300207FFCFFFF7F020000EC
:1042700070B5224CA16900291BD0002806D0E06946
:10428000032809D2E069401CE06105E0E0690128EB
:1042900002D9E069401EE061E0693221401E4843D6
:1042A000FF302D30E060E06800220121FFF7DEF8EA
:1042B00070BD00280ED0E068FF25C335A84204D2A7
:1042C000FFF7C4FEE1684018E060E068A8420ED93C
:1042D000E5600CE0E068692804D3FFF7B7FEE16809
:1042E000081AE060E068642801D26420E060E068B9
:1042F00000220121FFF7BAF870BD0000D8030020AA
:1043000010B52549002808D0086A401C0862086AD0
:1043100008280ADD0120086207E0086A401E0862DA
:10432000086A012801DA08200862086A0300FFF71A
:10433000E5FB0A0A060B10151A1F24292E0A012173
:104340000620FFF721F910BD00210620FFF71CF918
:1043500010BD00210620FFF717F910BD012106202E
:10436000FFF712F910BD00210620FFF70DF910BD6F
:1043700001210620FFF708F910BD00210620FFF7F4
:1043800003F910BD00210620FFF7FEF810BD002143
:104390000620FFF7F9F810BD5804002010B5FFF70C
:1043A000C5FE05480549806C884204DD04480621A5
:1043B0000174FCF767FE10BD580300200000964210
:1043C0007804002010B5314900280BD00A6A08464D
:1043D00080381300FFF792FB0A540C122130363C50
:1043E00042484E54086A04220121FFF73FF810BDED
:1043F000006A00220121FFF739F810BD416A002947
:1044000005D0406A00220121FFF730F810BD406A54
:1044100003220121FFF72AF810BD816A002905D087
:10442000806A00220121FFF721F810BD806A032273
:104430000121FFF71BF810BDC06A00220121FFF720
:1044400015F810BD406903220121FFF70FF810BDD8
:10445000006901221146FFF709F810BD80690322A7
:104460000121FFF703F810BD406B03220121FEF785
:10447000FDFF10BD006B03220121FEF7F7FF10BD09
:10448000086A04220121FEF7F1FF10BD5804002044
:10449000F8B53148C1690024304D002910D0016AB7
:1044A0006A89914216D0016A6981AC612C62806A86
:1044B000E8610120A8706C620020FFF783FFF8BD5F
:1044C000AC610021C94369812C62806AE861AC70EB
:1044D0006C62F8BDA9787D27FF0000290DD000206F
:1044E000FFF770FF686A64306862B842F1D3AC705D
:1044F0006C627810A8612C62F8BD816AEA69914209
:1045000007D0806AE8612C62AC610120FFF75AFF96
:10451000F8BD286A643028627D263601B04203D295
:104520000120FFF74FFFF8BDA869B84203D2002071
:10453000FFF748FF08E0B04203D20120FFF742FF37
:1045400002E00020FFF73EFFA8696430A861B04296
:10455000E9D3AC61F8BD000058040020A801002098
:10456000F0B585B04A4FF868FCF77AFB39468039D8
:10457000096F039100F0D6FE400040080090454DC1
:10458000A86B401CA8630290384680300190C16A35
:10459000EA6B4148914206D00199C96AE963012159
:1045A0002971016829643A4C29790026C034002910
:1045B0000AD0012169630068296C411A7D2000013D
:1045C00081420FD32E710DE0A07C002808D0F86E38
:1045D000FCF702FBF96F884202D20A20686301E00F
:1045E000012068630299286B0A1A696B8A4216D304
:1045F000401828630198C069002810D12448A030D1
:10460000007C0300FFF77AFA082E0B050B14270B2A
:104610000D0B052201210020FEF728FFA67405B02E
:10462000F0BD052201210320FEF720FFA674F6E766
:10463000174F0398803FFCF7CFFAE96A884208D207
:1046400080B200220121FEF711FF386FFCF7C4FA97
:10465000E862A674E3E7052201211020FEF706FFB9
:10466000A674DCE7FFF700FB7F210098C9058842AC
:1046700009DAA07C002804D1002211461020FDF7A1
:10468000B5F90120A074FF20C330E862C7E700003D
:10469000D8030020A8010020DC00002010B5134C36
:1046A000A069002812D0E069012804D0022806D0B1
:1046B00003280BD107E0FF202D30E06006E0FF204B
:1046C0005F30E06002E0FF209130E06007480121A8
:1046D00080300162E0680022FEF7C8FE206B0028EF
:1046E00003D101210620FEF74FFF10BDD8030020A3
:1046F000884203D3904201D300207047814203D304
:10470000914201D30120704702207047704700009A
:10471000F3B581B005462846029900F0C9F828464D
:10472000029900F091F80746374C606F002869D075
:104730002846FCF795FA029900F000FE0646394635
:10474000A06C00F0FBFC314600F068FD606531466E
:10475000E06C00F063FDE16D00F060FDA16D00F024
:10476000EDFC0746A0653046A16E00F0E7FD216D27
:1047700000F054FD2066A6663846616E00F0A6FD86
:1047800001D2606EA065214EA06D0027B04200D31B
:10479000A765A16D606D00F0D1FC216E00F0CEFC2C
:1047A0000146E0661848C030C07C732804D0D22887
:1047B00005D0F52808D105E01548206704E0154824
:1047C000206701E014482067B14200D3E766216FFB
:1047D000E06E00F07BFD01D2206FE0660A48803079
:1047E0000068281AFCF73CFA029900F06FFD03D22A
:1047F000962D01D9206FE066E06EFCF7EDF980B2EE
:10480000FDF764FCFEBD0000D8030020000080809E
:104810000000AF4400A00C4500401C460848017C45
:10482000A038002909D0042907D000214167C166BA
:104830008165C16503488163704701214167704705
:10484000780400200004004010B50C46FCF708FA7C
:10485000214600F073FD00210122D20590420BDBBE
:10486000064C214600F06AFD0549896C00F0D6FC33
:104870002146FCF701F90146084610BD00007041D1
:10488000D803002010B50848007C05280BD0FFF79E
:1048900073FC0548A038C16800690818034980B254
:1048A0000968FFF735FF10BD780400205803002089
:1048B000F3B581B006463046FCF7D2F907461D4CE9
:1048C0001B48E51DC07CF9358034732804D0D228FC
:1048D00005D0F52808D105E0FDF78CFB04E0FDF7D5
:1048E00089FB01E0FDF7AAFBA8688019FCF7B8F97D
:1048F000029900F069FC04D20020A065E064E06544
:1049000013E06868301AFCF7ABF9029900F05CFC20
:104910000BD23846029900F0D9FC06D2304600F09E
:104920000BF8E0647F20C005E065FFF777FFFEBD70
:10493000980400205803002010B50C4C642801D8BE
:10494000204610BDFF21C331884201D3084810BD65
:104950006438FCF77DF9074900F060FC0649FCF774
:104960008BF8214600F0EAFB10BD0000CDCC4C3D99
:1049700000004040CDCC3C400000AF43F8B50446B9
:104980002046FBF728FF164A164BFBF727FF064683
:104990000F462046FCF764F9009000F09DF9FCF703
:1049A00041F8114A114BFBF719FF04460D460098D8
:1049B00000F097F9FCF736F80D4A0E4BFBF70EFFA7
:1049C00022462B46FBF7AEFE32463B46FBF7AAFEDD
:1049D000094A0A4BFBF7A6FEFBF7EAFCF8BD00000C
:1049E000304CA60A4625EF3F2A4E5A5DF34F35BF9D
:1049F000E7A52A8DE517693E9A99999999D582C0BC
:104A0000F8B504462046FBF7E6FE164A164BFBF7C0
:104A1000E5FE06460F462046FCF722F9009000F01E
:104A20005BF9FBF7FFFF114A114BFBF7D7FE04467A
:104A30000D46009800F055F9FBF7F4FF0D4A0E4BB8
:104A4000FBF7CCFE22462B46FBF76CFE32463B467C
:104A5000FBF768FE094A0A4BFBF764FEFBF7A8FC6C
:104A6000F8BD0000CB10C7BAB88DE83F44B97E0B43
:104A7000FCF233BF7DAA55D59035733ECDCCCCCC5E
:104A8000CCCC70C010B5FCF7EBF8FBF7CBFF054AB8
:104A9000054BFBF7A3FE054A054BFBF743FEFBF76F
:104AA00087FC10BD917EFB3A70CEC83FEE7C3F354F
:104AB0005E1A3A4070B5214D2968214C2068091AC8
:104AC0000A2905D30A302060FFF7DCFEFFF79AF8C9
:104AD0002968A068091A322903D33230A060FFF791
:104AE000F3FA29686068091AFA2908D3FA30606075
:104AF000FCF72EFDFCF7A2FB1248FEF75FF92968D0
:104B0000E0680A1A7D21C9008A4205D34018E06096
:104B1000FFF744FCFCF73CFD29682069091A642969
:104B20000BD364302061FEF7F7FFFFF719FDFCF7A8
:104B30002DFBFFF7ADFCFDF717F870BDDC00002082
:104B4000E0000020A4050020FFB585B0059844686A
:104B50000598806804900598008802900298401E8D
:104B6000800020180390019323E0069801680398C1
:104B700001600698001D06900398001D0390002018
:104B800000902546049E029F02CE01CD00F046FB18
:104B9000009900F0D3FA00907F1E002FF4D10799FE
:104BA000009808600798001D0790241D0198401E7A
:104BB000019001980028D8D1059841680298401EBC
:104BC00002E004CC04C1401E0028FAD109B0F0BDB7
:104BD00030B5002903D004680025012209E0002037
:104BE00030BD9300C358A34201D91C461546521C40
:104BF000D2B28A42F5D36D1CE8B230BD10B5094C73
:104C0000884201DC208810BD904201DBA08910BDE4
:104C1000521A401A062148431146FBF722FB400076
:104C2000205A10BD0E030020FEF7D8F8FF20913067
:104C3000FDF76AFEFCF75EFFFCF784FFFCF7B6FEAB
:104C400012480121008AC903C004C00C4018FDF7B6
:104C500043FA1920FDF758FEFDF7F0F8FDF714FAB6
:104C6000FCF756FEFCF70CFEFDF756F9FCF7AEFF1D
:104C7000FCF76AFEFCF7E6FCFDF72EF90022114670
:104C80001020FCF7B3FEFFF715FFFCE7000FFF1F36
:104C900010B5002802D000F009F810BD0520002250
:104CA00040210007FEF751F810BD000010B50028A4
:104CB0000BD001460548FBF7CAFA401E0449C862FA
:104CC00040084863496B0348816410BD00093D00FA
:104CD000004401405804002010B5014600F09EFA3F
:104CE00010BD10B504462146204600F097FA214633
:104CF00000F094FA10BD000070B50A4CE08B401C27
:104D000080B2E083012801D100F032F8E08B322834
:104D100006D30548002545730020FFF7B9FFE5835A
:104D200070BD0000EC0100209804002070B50A4C12
:104D3000208C401C80B22084012801D100F010F8A2
:104D4000208C052806D30548002545730020FFF771
:104D50009FFF258470BD0000EC0100209804002016
:104D600010B50520012240210007FDF7EEFF10BD20
:104D700010B50520012240210007FDF7E6FF10BD18
:104D8000F8B5154CFF262178204600259136808CF9
:104D90000127002908D0401D80B2A0847D21C900D0
:104DA000884207D3257005E0401F80B2A084B0423E
:104DB00000D82770A08CFFF76BFF608C401C80B27E
:104DC0006084C82807D30020FFF762FF6584A684AB
:104DD000277002484573F8BDEC01002098040020BC
:104DE00070B5174C00252089002814D1E0880228CE
:104DF00006D3E580134845730020FFF749FF70BDD7
:104E00000F4940002A31085AFFF742FFE088022884
:104E100001D2401CE0802089401C81B221810948D8
:104E200017224038806C00F04BF92089172802D1F6
:104E30000020FFF72DFF20891928E0D3258170BDC0
:104E4000EC0100209804002070B5174C0025A089C3
:104E5000002814D16089062806D36581134845735C
:104E60000020FFF715FF70BD0F494000F631085ACA
:104E7000FFF70EFF6089062801D2401C6081A089DF
:104E8000401C81B2A181094817224038806C00F093
:104E900017F9A089172802D10020FFF7F9FEA08991
:104EA0001928E0D3A58170BDEC01002098040020F2
:104EB00070B5174C0025A088002814D160880328FD
:104EC00006D36580134845730020FFF7E1FE70BDEF
:104ED0000F4940002E31085AFFF7DAFE6088032898
:104EE00001D2401C6080A088401C81B2A18009488A
:104EF00017224038806C00F0E3F8A088172802D110
:104F00000020FFF7C5FEA0881928E0D3A58070BD5A
:104F1000EC0100209804002070B5174C0025208A71
:104F2000002814D1E089032806D3E581134845738E
:104F30000020FFF7ADFE70BD0F4940003431085A24
:104F4000FFF7A6FEE089032801D2401CE081208AF9
:104F5000401C81B22182094817224038806C00F041
:104F6000AFF8208A172802D10020FFF791FE208A8F
:104F70001928E0D3258270BDEC01002098040020A0
:104F800070B5174C0025208B002813D1E08A092822
:104F900006D3E582134845730020FFF779FE70BD04
:104FA00011494000085AFFF773FEE08A092801D230
:104FB000401CE082208B401C81B2218309481722CB
:104FC0004038806C00F07CF8208B172802D100203C
:104FD000FFF75EFE208B1928E1D3258370BD00000A
:104FE000EC01002098040020EE02002070B5174C60
:104FF0000025A08A002814D1608A032806D3658280
:10500000134845730020FFF743FE70BD0F49400071
:105010003A31085AFFF73CFE608A032801D2401C4F
:105020006082A08A401C81B2A182094817224038C0
:10503000806C00F045F8A08A172802D10020FFF705
:1050400027FEA08A1928E0D3A58270BDEC010020BC
:105050009804002070B5174C0025A08B002813D1B0
:10506000608B072806D36583134845730020FFF73C
:105070000FFE70BD11494000085AFFF709FE608B12
:10508000072801D2401C6083A08B401C81B2A18301
:10509000094817224038806C00F012F8A08B1728BE
:1050A00002D10020FFF7F4FDA08B1928E1D3A583DE
:1050B00070BD0000EC0100209804002000030020D7
:1050C00010B50B461146002805D0CA1A5043FBF70D
:1050D000BEF80149486310BD0044014000B51649BF
:1050E0000300FEF70BFD110C0A0D10131F22250CF7
:1050F0000C0C0C0C0C1C16190C000120487300BD84
:105100000220487300BD0320487300BD042048738B
:1051100000BD0F20487300BD1020487300BD0E2055
:10512000487300BD0520487300BD0620487300BDCC
:105130000720487300BD00009804002070B50125C9
:105140000400ED074C4020D4441A01D2001B091979
:10515000C60D4B00F2B2FF2A29D01B0E2CD0000244
:105160000C02D31A2C43DC402843051910D2280A1C
:1051700002D3401C6D0611D0761EF6058019FF2A59
:1051800000DA70BDC00DC00570BD694000F0DCF8EC
:1051900001200543C541521C761CE8E764089C4089
:1051A000C90161408900E7D10124A043E4E71B0E57
:1051B000440200D0034870BD002AFCD1C00FC007D4
:1051C00070BD00BF0000C07F01230200DB050A4361
:1051D0000DD4DA4203D49A4207D488427047D842A9
:1051E00014D4D94212D48842704780427047DA42C0
:1051F00003D59A42F9D5814270475B004200DA42FA
:1052000004D24A00DA4201D28142704710B5024A04
:10521000FBF74CFD10BD00BF0900160470B542003D
:1052200064414B005C41120E39D01B0E38D0FF2A6E
:105230003CD0FF2B3AD040024902400A490A0600FE
:1052400045184E43000A090AD2184843ED017F3A37
:105250000104731A4019190C4318990F04D0012145
:105260005B0849075B1A521CD80904D3401CF5039C
:1052700001D19D0607D0FF2A08D2D50506D0E40744
:105280002043401970BD0125A843F4E7002A01DC42
:10529000E00770BD2402FF202043C00570BD1B0E37
:1052A000FF2A03D0FF2B01D0E00770BDFF26450089
:1052B0003606B54206D84D00B54203D8D218FF2AAB
:1052C00000D0E7E7004870BD0000C07F01230A005E
:1052D000DB0502430DD4DA4203D49A4207D481425B
:1052E0007047D94214D4D84212D4814270478942BF
:1052F0007047DA4203D59A42F9D5884270475B007D
:105300004A00DA4204D24200DA4201D288427047AF
:105310004840414010B5024A4840FBF7C7FC10BD69
:105320000900160470B50125ED07684004004C40E3
:1053300002D5694000F008F8FFF706FF70B50125B7
:105340000400ED074C4022D4441A02D26C40001BEA
:105350000919C60D4B00F2B2FF2A4BD01B0E50D0DC
:1053600000020C02D31A2C43DC40A843051B05D5D0
:10537000AD0019D36D08761E521E37D0F605280AE7
:1053800001D2801970BD70416D0603D070BD6940B7
:10539000FFF7DAFE9C4009026140490001D0401E3F
:1053A00070BD0124A04370BD6D081DD001202B0CE1
:1053B00001D12D0410302B0E01D12D0208302B0FFE
:1053C00001D12D01001DAB0F01D1AD00801CEB0FF1
:1053D00001D16D00401C6D00361A121A680AF505DD
:1053E0004019012A02DB70BD002070BDC036300AB2
:1053F000C00770BD1B0E440201D1FF2B00D1024833
:1054000070BD002AF0D070BD0000C07F1C0FFF1FD0
:10541000300FFF1F440FFF1F580FFF1F6C0FFF1FA0
:105420001C0FFF1F1C0FFF1F1C0FFF1F00093D005B
:1054300000127A000024F4004086510100366E010B
:105440003F065B4F666D7D077F6F777C395E7971B4
:10545000000000000000000000000000000000004C
:10546000000000000000000000000000000000003C
:105470000100000002000000030000000400000022
:1054800006000000070000000800000009000000FE
:1054900000093D0000127A000024F400408651010A
:1054A00000366E0100093D0000093D0000093D0085
:1054B0008182838485868788898B8C8D8E8F91925B
:1054C00093959697999A9C9D9FA0A2A3A5A7A8AAF9
:1054D000ACAEB0B2B3B5B7B9BCBEC0C2C5C7C9CC1B
:1054E000CED1D4D7D9DCDFE2E6E9ECF0F3F7FAFE6F
:1054F0001055000800000020B0040000120E000843
:105500000C560008B004002020060000040100082A
:1055100001D43204021D01CB803E04812BC0413CEA
:1055200013C8052320F42A200C5AD80C593802102D
:105530003F580C9A99193ECDCC4C3E9A9999085AED
:105540001950492C1914223D9B48437C6944324030
:10555000995069181A8018290401180338FFFF02AE
:1055600023013A902518092C09270527052C090A3B
:10557000400C082C094C0A4C0A2C092C082FBF0D92
:105580006E0F5910046599146E0F2920880BBF0DFA
:105590003F0CBF0D59103F0C143AE9048559104CCB
:1055A0000A2B5910021C6E0FE9186B6E0F4009147C
:1055B00056091458299C4956292E88095A125A12FC
:1055C00099145910602D6E0FBF0D4E2936A119C0C8
:1055D00019C8494449D22BE90A222984296229AAF7
:1055E00029E2C91CA123C84233E14322411AA00485
:1055F000791022401A8004B104C1366E0112F012F3
:0C560000081AF8041AFF04018F000000D3
:04000005080000C12E
:00000001FF
