:020000040800F2
:10000000D00A002081010008F939000805360008EF
:1000100000000000000000000000000000000000E0
:10002000000000000000000000000000433A00084B
:100030000000000000000000413A0008453A0008B6
:100040009301000893010008930100089301000840
:10005000930100089301000893010008ED220008B5
:100060000000000093010008930100080000000058
:1000700093010008930100089301000800000000AC
:10008000930100089301000800000000930100089C
:10009000000000009301000893010008930100088C
:1000A000000000009301000800000000F93C000877
:1000B00093010008000000000000000000000000A4
:1000C00000F002F800F030F80CA030C8083824180E
:1000D0002D18A246671EAB4654465D46AC4201D180
:1000E00000F022F87E460F3E0FCCB6460126334282
:1000F00000D0FB1AA246AB4633431847EC5600002B
:100100000C5700000023002400250026103A01D3DC
:1001100078C1FBD8520700D330C100D50B607047BF
:100120001FB51FBD10B510BD00F012FE1146FFF740
:10013000F7FF00F099FE00F02AFE03B4FFF7F2FF8C
:1001400003BC00F05FFE000070B505460C46164685
:1001500002E00FCC0FC5103E102EFAD2082E02D3AB
:1001600003CC03C5083E042E07D301CC01C5361FBE
:1001700003E021782970641C6D1C761EF9D270BDD5
:100180000748804707480047FEE7FEE7FEE7FEE72F
:10019000FEE7FEE704480549034A054B70470000A7
:1001A0004D3A0008C1000008D0060020D00A002007
:1001B000D0060020034610B50B439B070FD1042A3D
:1001C0000DD308C810C9121FA342F8D018BA21BA1B
:1001D000884201D9012010BD0020C04310BD002A73
:1001E00003D0D30703D0521C07E0002010BD0378D2
:1001F0000C78401C491C1B1B07D103780C78401C51
:10020000491C1B1B01D1921EF1D1184610BD01E003
:1002100004C0091F0429FBD28B0701D50280801C72
:10022000C90700D00270704700290BD0C30702D065
:100230000270401C491E022904D3830702D50280A4
:10024000801C891EE3E70022EEE70022DFE70022A0
:1002500003098B422CD3030A8B4211D300239C4603
:100260004EE003460B433CD4002243088B4231D37B
:1002700003098B421CD3030A8B4201D394463FE00F
:10028000C3098B4201D3CB01C01A524183098B426F
:1002900001D38B01C01A524143098B4201D34B0158
:1002A000C01A524103098B4201D30B01C01A5241BB
:1002B000C3088B4201D3CB00C01A524183088B4242
:1002C00001D38B00C01A524143088B4201D34B002B
:1002D000C01A5241411A00D201465241104670479D
:1002E0005DE0CA0F00D04942031000D340425340A2
:1002F00000229C4603098B422DD3030A8B4212D362
:10030000FC22890112BA030A8B420CD38901921193
:100310008B4208D3890192118B4204D389013AD0D0
:10032000921100E08909C3098B4201D3CB01C01AA5
:10033000524183098B4201D38B01C01A52414309B8
:100340008B4201D34B01C01A524103098B4201D3A6
:100350000B01C01A5241C3088B4201D3CB00C01A13
:10036000524183088B4201D38B00C01A5241D9D22B
:1003700043088B4201D34B00C01A5241411A00D2AC
:100380000146634652415B10104601D34042002BA8
:1003900000D54942704763465B1000D3404201B527
:1003A0000020C046C04602BD70477047704700003D
:1003B0000246C80FC00781434B0030B54B405B007D
:1003C0009B0D20D01923DB06C91801231B05994278
:1003D00020DB0324A40704251346AB400BD3002BDA
:1003E00004D1EB0613409B00E34204D401246407CC
:1003F000002312195941FF231B0599420BD2C90052
:100400000143500F09E0CB0204D501430803024326
:1004100005D0054830BDFF21C905084330BD084659
:1004200007210905884330BD0000C07FF0B50C46A8
:10043000871A9C410D46861A9D4103D2C01BA141DB
:10044000D21963410D0D1F0DC94EEC1BAE435CD09C
:100450007F057F0D0026002F51D02D05AC46A94306
:10046000DD020123ED0A1B051D4320231B1B24D4A1
:100470001746E740381871412F46E740CC199D4098
:100480002818314661410C0D27D161449A4013D59B
:100490000023401C594152000ED140084000012267
:1004A0004B005205D34207D305204007C14201D576
:1004B000B04900E0B0493046F0BD6B00002A00D0E2
:1004C00001229A181F23203C1B1B01D5002302E0A8
:1004D000E540281871410C0DD7D0012424050919D5
:1004E000C407CD0740084908E40F28436144002CA5
:1004F000D5D00024401C61419A40D0D1CDE76A0597
:10050000520DD9D1C90FC907D5E79C4D4E0000281F
:1005100001D0012400E0002434195F00002A01D03A
:10052000012600E00026BE19954FAC420CD8AE4221
:100530000AD8B44206D001256D05EC42BCD0104665
:100540001946F0BD9942FCD000203946F0BDF0B507
:100550001FB40C460F46811A9F412546861A9D41BD
:1005600006D20125ED076F40401ABC4152187B416D
:10057000210D1E0D8D1BAC467D4D8D437ED0750526
:100580006D0D7CD00D05AE46AC431B031B0B794DA6
:1005900052429D41202366469B1B14D31746F740C9
:1005A000381800260090744160462F460741E41930
:1005B00000989D402818664116D4714671189A40DB
:1005C00025D5012320E093182A466A415200002BCA
:1005D00000D0521C1E23203E9B1B002B61DD3541A9
:1005E000EE1728186641E8D5001876415B1C9A4042
:1005F00000D3401C4B05F3181524E34010D3002B07
:1006000052D071467118D30FC01802D3491C05B0DF
:10061000F0BD0123DB079A42F9D140084000F6E71C
:1006200001225205B21801D1002853D00123CC0A6F
:10063000DB029943891E002A08D1020C03D0020C68
:100640000004103902E00246002020390023550B37
:1006500005D112020823550B01D152010D23550C6F
:1006600001D112011B1DD50C01D192009B1C150D4F
:1006700001D152005B1C2025EE1A01E02CE022E0A3
:100680000546F54015439840CA1AE1076918130555
:10069000C918002ABBDA032040070818C10FC90790
:1006A0000FE071466118B2E7F10740080843711086
:1006B00071444A000CD001235B059A42A7D2C90FAE
:1006C000C9070020A3E74905490D26D1002001E014
:1006D0000028F4D100219AE7284D6600002801D0B7
:1006E000012100E0002171185F00002A01D00126DD
:1006F00000E00026BE19224FA94210D8AE420ED803
:10070000B14208D001256D05E94206D01946A8027C
:10071000414010467BE79C4201D0214677E700200C
:10072000394674E710B50C465C4005D50124E40752
:100730006340FFF70CFF10BDFFF778FE10BD30B42B
:100740000C465C4004D50124E407634030BC6DE6F0
:1007500030BCFCE670B50124E40761400D465D4005
:1007600002D4FFF763FE70BD6340FFF7F0FE70BD7B
:10077000FF0700000000F0FF0000F07F0000E0FF36
:100780000000F87F1F22030C02D10F22000402D0C8
:10079000030E03D004E00020014670470002083A2F
:1007A000030F01D10001121F830F01D18000921E9F
:1007B000002801DB4000521E120551184205C012EC
:1007C000411810467047C10FC90700D040420122AE
:1007D00092071143D6E701218907D3E7F0B58B4C87
:1007E0000F09254689B0BD437BD01D092646AE437F
:1007F000FAD00E465E402740F60F3E43254071D0AA
:1008000024012142FBD0FF24AD19A4042D1B039524
:1008100001252D05DB02DB0AC9022B43C90A294346
:100820001E010901040F130F050121431701880B55
:10083000820391432D098C46A90B1E438A039543DD
:10084000B30B9A0396433F09BA0B9403A74302964E
:100850002E467E430497B6464E19D7190C4601968C
:10086000544305977E43371B7646BF1B3601B64679
:10087000BE0B361900967646BC043719009C01D38E
:10088000641C00946400002F01D001263443029EB2
:10089000049F754366467E430496760034196E00C5
:1008A00034190094029C019E1C196643751BAE46C8
:1008B000069465464519059C05956C435943754654
:1008C0000891691A0191049E01465143A41B0491A9
:1008D000611A009C0791E10605D0610901221143CC
:1008E00002E072E06EE06109089D00272C0A2D06E7
:1008F0006918049D7C412A0A2D066918019D6241F0
:10090000AC0DAD026D185441079A910D9202551924
:100910006141029A644658435443069B059A5A43E0
:10092000121A131B9A0E9B015B187A41010B0005EA
:10093000C3185141220A200644195A419A4200D252
:10094000491C01204002814203D315230226F643AD
:1009500002E014230326F6432020C51AA9401746B7
:10096000AF40DA400A4320460399D840091473186F
:1009700019055118039A3843D2075140AC4009D0A9
:100980000122944006D30022401C5141002C01D189
:10099000400840001E4A934212D301220398920657
:1009A000904207DB0520400709181A480143C0128E
:1009B000414004E0032040070818C10FC907002088
:1009C00009B0F0BD0020F107FAE705180C464C41CC
:1009D00011486D42A04115D394181A465A410E4849
:1009E000644290410ED301204A004005824209D35F
:1009F0005A00824206D35940C90F084AC90700204D
:100A00001143DDE700200649DAE700000000FF0798
:100A1000FE070000FFFFFF7F0000E0FF0000F07F07
:100A20000000F87F0121C9050123411842001B067F
:100A3000D3185B0E0AD0C1100722D20689184007CE
:100A40005242D14201D5520089187047090208D597
:100A50000146002A03D0C10FC90700207047104685
:100A60007047420202D00020024970470721090561
:100A70000143F4E70000F87FF0B5FF252D04C60917
:100A8000C209FF2704462E400137CB093E434840A8
:100A90002A402B400746002A6BD0002B69D0AA427F
:100AA00067D0AB4265D0002800DA32460125ED055B
:100AB00029432C4309022002090AD21A4B0C7F2435
:100AC000E31A434C000A7C44E35C7D24240412199D
:100AD00014145B00A218884201D3521C00E04000AD
:100AE00049420C465C4324115C43DB016415E31866
:100AF000040A5C43C502200D0C4644436419250AD0
:100B00005D432303EC0C0D46654300030019EB180D
:100B10004C42A34201D35B18401CD4052018002B83
:100B200007D05B00C91804D3401C002901D140083C
:100B300040003F2189048A4209D3002A08DC1106BB
:100B4000090F04D0032149074018C00FC007F0BDAA
:100B500001224100120689187F2252069142F6D2E4
:100B600005214907C84201D59010F0BDFF20C005FE
:100B7000F0BD002F00DA32461648AA4207D2AB4237
:100B800005D21902090E17D0F80FC007F0BDFF25D6
:100B900063002D06AB42F9D84900A942F6D8AB4212
:100BA00001D1A942F2D0A94201D1002101E06100A6
:100BB0004908D0050843F0BD1102090EFBD0FF2003
:100BC0000243D005F0BD0A460146104654E7000036
:100BD000DE4C00000000C07F0102C21504D00123DA
:100BE000DB071943002A0ADB9E239A1A02D408461F
:100BF000D0407047FF2241001206914201D90020E7
:100C00007047C017C04370471F22030C02D10F2248
:100C100000041CD0030E01D10002083A030F01D1D9
:100C20000001121F830F01D18000921E002801DBFA
:100C30004000521ED205511802125118192290403C
:100C400004D3491C002801D14908490008467047CF
:100C5000C10FC90700D04042012292071143D3E7D8
:100C600001218907D0E7000010B5FF22C30D134012
:100C700009D05A4007D0914205DA5C42A14202DD18
:100C8000C905081810BDC40FE407002B06D0002AC0
:100C900006D0002902DBFF20C0050443204610BD1A
:100CA0004102FCD0004810BD0000C07F10B5FF23FA
:100CB0001B0644009C421DD84C009C421AD8034697
:100CC000124A0B4307D4401A02D3EFF3008010BD41
:100CD000EFF3008010BD081A06D2EFF30080012167
:100CE0009043C907084302E0EFF30080904380F38C
:100CF000008810BD0D231B041A4204D011460020A9
:100D000000F006F810BD00F01BF810BD00000090C8
:100D1000C80212D54803400F002804D0C803C043BE
:100D2000012188407047EFF3008000010009032192
:100D30000907084380F300887047002070470000CF
:100D400010B5024800F02BF810BD00000000C07F75
:100D5000754600F053F8AE46050069465346C00894
:100D6000C000854618B020B5FFF714FA60BC002714
:100D70004908B6460026C0C5C0C5C0C5C0C5C0C567
:100D8000C0C5C0C5C0C5403D49008D46704710B5BF
:100D90000446C046C0462046FFF7CFF910BD10B547
:100DA0000C461107090F092904D00A290AD008297D
:100DB0000CD104E011460820FFF7AAFF06E0510617
:100DC00006D501E0510601D50120C007214610BD1E
:100DD000D10607D501010909CC084907000E000614
:100DE000044309E0410F20024907000A0143200E95
:100DF00000061D22D14101430846E7E7004870473D
:100E00006C06002001491820ABBEFEE72600020058
:100E1000704770B58C180578401C6B075B0F01D1CB
:100E20000378401C2A1106D10278401C03E00678A2
:100E3000401C0E70491C5B1EF9D12B0705D4002302
:100E4000521E0DD40B70491CFAE70378401CCB1AD4
:100E5000921C03E01D780D70491C5B1C521EF9D5D5
:100E6000A142D8D3002070BD10B50122D2060020C7
:100E7000074B810054585C50401CC0B23028F8D356
:100E8000012004494007886004F01AF8002010BDD2
:100E90000000002000ED00E008B50021009101688D
:100EA0008A68D243D2071ED08A68104B1A400123A9
:100EB000002A08D0816B102211438163C16B194352
:100EC000C163012008BD8868184388600948084943
:100ED0000068FFF7BCF9009002E00098401E009007
:100EE00000980028F9D1002008BD000015000080FE
:100EF00040420F004C030020F0B5002314E09A009C
:100F00008458944627461E465A1C06E095004559CB
:100F1000A54201DA2C461646521C8A42F6DBB20084
:100F20008750624684505B1C8B42E8DBF0BD0000BA
:100F300010B586B010494B6B202213434B63496BAD
:100F4000114000910024022101220C4B002809D0FD
:100F5000019102940392049101A9184601F052FFF5
:100F600006B010BD019102920394049101A91846A4
:100F700001F048FFF4E700000010024000140050A8
:100F800010B50120FFF7D4FF00F016F8094C01223C
:100F90001146204601F0C7FF00F00EF800220121A3
:100FA000204601F0C0FF00F007F80020FFF7C0FF67
:100FB00010BD000000140050002000BF401CC0B253
:100FC0000A28FAD37047000070B50446144D00207B
:100FD0002870144E200605D501220221304601F06A
:100FE000A2FF04E000220221304601F09CFFFFF73F
:100FF000E3FF01221146304601F095FFFFF7DCFFC9
:1010000000220121304601F08EFF6006040E287890
:10101000401CC0B228700828DCD3FFF7B1FF70BDB8
:10102000CC0000200014005010B5084C0022022112
:10103000204601F078FFFFF7BFFF00220121204684
:1010400001F071FFFFF7B8FF10BD00000014005061
:1010500010B50B4C00220221204601F064FFFFF77F
:10106000ABFF01221146204601F05DFFFFF7A4FF10
:1010700001220221204601F056FFFFF79DFF10BD1F
:101080000014005070B501F08FF80121002002F02B
:1010900069FB0121084602F065FB0121022002F0F4
:1010A00061FB0121032002F05DFB0021062002F01C
:1010B00059FB0021052002F055FB00221146104685
:1010C00002F0C2FA284C294D294801F065FF207C26
:1010D000030002F025FE0827050B112727221727FA
:1010E000052201210F2002F0AFFA1BE005220121A9
:1010F000022002F0A9FA15E005220121002002F0E9
:10110000A3FA0FE005220121032002F09DFA00F06E
:101110002BFB207C002826D004E001210522084674
:1011200002F092FA00F0B2FD2878002806D10022E1
:101130001146102000F0ECFC01202870FF26F53647
:10114000304601F0CFFC00221146104602F07CFA36
:1011500000F09CFD304601F0C5FC00221146102035
:1011600000F0D6FCB0E770BD7404002050030020EE
:10117000A005002001B582B0012301AA02A90248FE
:1011800003F02EFE01980EBD1001002070B511482D
:10119000446B8038C06E1049FFF76EFC05460F485F
:1011A000214680680446FFF767FC294604F0B2F93F
:1011B000214604F0AFF90A4904F0ACF905492031A1
:1011C000097C002901D0002070BD002100F036F814
:1011D00070BD00005404002000401C4604010020A3
:1011E00048E17A3FF1B5144CE168606804F022F9F7
:1011F00005462846216904F01DF901462846FFF7F7
:101200003BFC0646606127680098394604F012FAF4
:10121000314604F07FF9394604F00CF907462060A6
:101220007F203146C00504F005FA294604F072F922
:1012300060603846F8BD000054010020F3B581B06D
:10124000164C1549E160164E2661606804F0F2F80C
:1012500005463146284604F0EDF801462846FFF7DA
:101260000BFC0646606127680198394604F0E2F9F4
:10127000314604F04FF9394604F0DCF807462060A7
:101280007F203146C00504F0D5F9294604F042F923
:1012900060603846FEBD0000CDCC4C3E6C010020A5
:1012A0000000404070B51448C06E0121C9050025FA
:1012B000124C884201DAE57070BD1149884202DBA8
:1012C000FF20E07070BDFFF7D7FB0321FFF7CCFCD8
:1012D0003F21090604F0AEF8FFF77EFCC0B20828F3
:1012E00000D90820002804D001218140491EE17066
:1012F00070BDE57070BD0000D4030020CD0000205B
:1013000000401C4670B5FFF7ABFC06460D4904F0E3
:1013100001F90446304603F05BFE0B4904F0FAF88D
:101320000546304603F059FE084904F0F3F8294613
:1013300004F080F8214604F07DF8054904F07AF8BD
:1013400070BD0000D26F1FBEB67A7338E46A0FB268
:10135000CD4C544370B51048C56CC06E0F498842DF
:1013600003DD3F242406214601E00D4C0D4904F025
:10137000D1F806462146284604F0CCF8314604F060
:1013800059F80446084DEC6308492046FFF774FB02
:10139000A863204670BD00005403002000004843AD
:1013A000CDCC4C3FCDCC4C3E540400200000C0417D
:1013B000F8B500F0A1F804464B4E307C072806D063
:1013C000022804D03746203F002804D00EE04749C9
:1013D0000020C862F8BD00F0D3F8786400F096F8F9
:1013E000796C884202D241490020C8623E4D307C6F
:1013F000A03D002811D1E868FFF732FC294680396A
:10140000096F04F017F9009000F000F9009904F05A
:1014100057F802D235490020C86234484178002983
:1014200002D1846201214170816A8C4201D3611A28
:1014300000E0091B01229202914231D8AA6A7D2163
:10144000C9004A43C16A8A4201D9FA31C162A96A14
:101450007D22D2005143C26A04469142BAD8042187
:1014600031742078002813D10121042002F07AF988
:1014700003F01CFB00221146102000F049FBF86924
:10148000002803D10121062002F06CF90120207010
:1014900017480068174988429CDA05203074F8BD67
:1014A00012480021C162007800281AD00F4801704C
:1014B000317400221146102000F02AFB0021042084
:1014C00002F050F9F86900280BD1286B002804D0ED
:1014D0000021062002F046F903E00121062002F077
:1014E00041F902488462F8BD740400201C03002006
:1014F000540300200000B44210B5072000F022FA87
:101500000149486210BD000054030020F8B51A4C90
:101510001A48C068FFF7A4FB0090A168009803F088
:10152000CFFF03D82069FFF757FBF8BDE1680098AB
:1015300004F048F803D86069FFF74EFBF8BDA168D6
:10154000E0680E4604F076F8216905460F466069AA
:1015500004F070F804463146009804F06BF8214618
:1015600003F0D8FF2946FFF787FA394603F062FFF8
:10157000FFF732FBF8BD00001C030020D40300205D
:10158000F8B51E48C26B1E4800901E481E4E81785A
:10159000002906D18B00F250491C0329FADB0121F6
:1015A000817034681046214604F044F8009903F035
:1015B000B1FF214603F03EFF30600124A5007759BA
:1015C000601E80003058394604F034F8009903F06A
:1015D000A1FF394603F02EFF7051641C032CEDDB94
:1015E000B068FF21C905C84201D30020F8BD3F21E2
:1015F000090603F01FFFFFF7EFFAF8BD54040020BF
:10160000ABAAAA3E1C0300201C060020F8B5174C0C
:101610001748C068FFF724FB0090A169009803F009
:101620004FFF01D8206AF8BDE169009803F0CAFFB6
:1016300001D8606AF8BDA169E0690E4603F0FAFFBF
:10164000216A05460F46606A03F0F4FF04463146FE
:10165000009803F0EFFF214603F05CFF2946FFF7F7
:101660000BFA394603F0E6FEF8BD00001C0300202B
:10167000D403002010B50C49087C002806D00228AD
:1016800004D0072801D100F06FF810BD07480068AA
:10169000074A9042F9DB07200874002211460F2008
:1016A00000F036FA10BD000074040020540300203E
:1016B0000000164470B50A4D68682C468034E16815
:1016C00088420CD0074E3078401CC0B230700328DE
:1016D00005D900F013FCE06868600020307070BD30
:1016E000540300209C010020F8B505461B497F20CB
:1016F0001B4CC0058D4203DD256060602846F8BDA7
:101700007F20C005E060174F27617F21C905606811
:1017100003F090FE06463946304603F08BFE014644
:101720003046FFF7A9F9074660612068009001463E
:10173000284603F07FFF394603F0ECFE009903F0E2
:1017400079FE054620607F203946C00503F072FF10
:10175000314603F0DFFE60602846F8BD0000164405
:101760002801002000002041FEB5002400940194CF
:101770000294002502F072FE002855D0732804D090
:10178000D22806D0F5280BD107E00098401C009025
:1017900006E00198401C019002E00298401C029073
:1017A0006D1C0A2DE6DB0321684603F05DFB4D4D01
:1017B000012804D0022805D0032808D105E07320B1
:1017C000E87404E0D220E87401E0F520E87400F049
:1017D000EBFCE87C05263607434F732825D0D2283A
:1017E00023D001222021384601F09DFB02F0C6FDE6
:1017F00000228021304601F096FB0022202138464D
:1018000001F091FB374E203E34743848C06AFFF730
:10181000E3F9FF21373188420DD9022030740022CC
:1018200011460F2000F074F9FEBD012280213046E0
:1018300001F079FBDAE7782802D207203074FEBD88
:101840002A48EA7CC11D0F231425F9318030732A00
:101850001CD0D22A30D0F52AF1D1254A8264C46442
:10186000244A0265244A4266C465244A82677D226E
:101870001201C2671920086018224A608860204857
:1018800048632048086400F069FCFEBD1E4A82647B
:101890001E4AC26404651E4A4266C46564228267A9
:1018A0009622C2670D604B608D601A4848631A48E3
:1018B000086400F02FFCFEBD184A8264184AC26416
:1018C0000465184A4266C465C8228267C2670D6013
:1018D0004B608B60144848631448086400F01AFC9D
:1018E000FEBD0000940400200004005054030020BA
:1018F000000034420000C84100803B456C070000F6
:101900003333F340000010410000F040CDCCCC3D1B
:1019100000803B443333434000009040000070415E
:101920009A99193E00A00C45666606400000C0402A
:1019300010B5FFF795F9024903F0ECFD10BD00006A
:10194000510AA53D10B513490A68824212D00860B9
:10195000114A00219162114992144A6008600846B8
:101960000C3000F03BFE002804D00D48012101742A
:10197000FFF788FB09480C3001F024F807480A21DA
:101980000C3000F0BFFF05480C3000F0B3FE80B211
:1019900010BD0000C000002000240140AC04002065
:1019A00074040020F8B51F490A6B012000050243AA
:1019B0000A630A6B82430A631A4940310A68024388
:1019C0000A60096801400091184C174F27602046B3
:1019D00000F0DCFD164D0126002802D02E74FFF722
:1019E00051FB27600320000760600020A060E060DA
:1019F00026610421616126766076A076FF21C231DE
:101A0000E1612062094920310871A0620620E0628C
:101A1000064800F073FE002802D02E74FFF732FB58
:101A2000F8BD00000010024000240140B80400206E
:101A30007404002000B585B09F2000900020029023
:101A40000320019005206946000701F0DBF905B08D
:101A500000BD10B5012105200903000701F05CFA63
:101A6000002801D0002010BD012010BD70B586B047
:101A70001548416B012421434163416B2140009192
:101A8000426B20210A434263406B08400090C8012A
:101A9000019003940325049500260296052001A9D0
:101AA000000701F0AFF90420019003960495029419
:101AB000064C01A9204601F0A5F900220421204688
:101AC00001F031FA06B070BD001002400014005061
:101AD00010B586B00D48426B01210A434263406B4A
:101AE00008400090402001900291002003900220C5
:101AF00004900524240701A9204601F083F900225F
:101B00004021204601F00FFA06B010BD001002403F
:101B1000F8B50F463A4D696900291ED02C46C034ED
:101B2000617B002919D1374E002A0CD0030002F046
:101B3000F7F8111415191D215B5F631414141414A4
:101B40001457252914000F2803D0102003F042FC5D
:101B500002E00F2003F03EFCE681F8BD012003F017
:101B600039FCF8BD022003F035FCF8BD032003F07A
:101B700031FCF8BD042003F02DFCF8BD0F2003F06C
:101B800029FCF8BD102003F025FC002F08D0E868E0
:101B9000FF2200B2C332642103F07CF9E081F8BD7A
:101BA00017488030C169002908D0006A030002F09C
:101BB000B7F80604070A0D101404F0E7E681F8BD33
:101BC0001148E081F8BD1148E081F8BD1048E0817E
:101BD000F8BD0F489D30E081F8BD0E48E081F8BDAA
:101BE0000E2003F0F7FBF8BD052003F0F3FBF8BD72
:101BF000062003F0EFFBF8BD072003F0EBFBF8BD78
:101C0000D40300206E0F00002C0800002C090000F7
:101C10004C0A00003F0C000010B586B01048426B23
:101C200020210A434263406B08400090032001904A
:101C3000012002900020039002200490094C01A989
:101C4000204601F0DFF801221146204601F06BF931
:101C500001220221204601F066F906B010BD000005
:101C6000001002400014005010B5EFF3108472B65B
:101C7000FFF7DAF94820FFF7A7F97120FFF7A4F979
:101C8000FFF7E6F984F3108810BD000070B5EFF39C
:101C9000108572B6FFF7C8F96820FFF795F9134C65
:101CA0002078FFF791F9FFF7D3F9FFF7BDF96A2024
:101CB000FFF78AF96078FFF787F9FFF7C9F9FFF7AF
:101CC000B3F96C20FFF780F9A078FFF77DF9FFF7F3
:101CD000BFF9FFF7A9F96E20FFF776F9E078FFF773
:101CE00073F9FFF7B5F985F3108870BDCD000020BA
:101CF00010B586B01248426B01210A434263406B23
:101D000008400090802001900391002004900290F0
:101D10000C4C01A9204601F075F80B4902914021B5
:101D2000019101A9204601F06DF8072001F074F936
:101D300000221146072001F079F906B010BD00001D
:101D4000001002400004005000002110F8B50646C3
:101D50000024064D01273059401C02D02F74FFF794
:101D600091F9241D342CF6D3F8BD00007404002032
:101D700010B586B004460021059114216846FEF78F
:101D800064FA0221009101940124029405A9684695
:101D900000F0BAFE002803D002480474FFF772F97D
:101DA00006B010BD74040020F0B5A3B02290164810
:101DB000219034264C203430209000246D461FE0C2
:101DC000002021990A19431E81000F19B74202D23F
:101DD00057586F5000E06B50401C2028F4D32298D5
:101DE0006A460119012000F073FF002807D0064859
:101DF000012198300174FFF745F923B0F0BD80341C
:101E000020988442DCD3F8E7DC03002070B5064656
:101E10000024084D3046FFF7C7FF342229463046DC
:101E2000FEF7C8F9002803D0641CE4B2022CF1D3F9
:101E300070BD0000DC03002010B52F492D4A8A60D8
:101E40004268CA60CA680B46803B5A60C2684A61F1
:101E500082680A6102698A614269CA61C26A4A6328
:101E6000026A8A62026B8A6300230B63426ACA6257
:101E700082690A62C0694862C868FF222D326428FC
:101E800004D3C868FF24C334A04200D9CA600869DB
:101E90003224E04202DB0869322800DD0B618B6AE4
:101EA0000120782B00D988624B6A782B01D91E2338
:101EB0004B620B6A642B02D30B6A934201D9C8238D
:101EC0000B62CB69042B00D9C8618869002809D04E
:101ED000C869012807D0022807D0032802D1FF20B3
:101EE0009130C86010BDCA6010BDFF205F30C8606F
:101EF00010BD0000AAAAAAAAD403002010B5074862
:101F0000816B491C8163064800F010F8054800F019
:101F10000DF8054800F00AF810BD0000D4030020B9
:101F200000F0000800F8000800FF000870B5054642
:101F3000EFF3108472B6094801F02EF800F04EFF5E
:101F40002846FFF715FF2846FFF700FF2846FFF752
:101F50005DFF00F0AFFE84F3108870BDA005002087
:101F600010B5EFF3108472B6034801F015F800F0D5
:101F700005F884F3108810BDA005002070B51E4C34
:101F80001E4BE06B0168994207D1216C0A689A42A6
:101F900003D1626C15689D4216D0A360FF202D30DE
:101FA000E0600121616100202061A061E161606366
:101FB000A16220633C21E162C82121621E2161628D
:101FC000A063FFF79BFF70BD126B096B006B02F003
:101FD000D7FC002807D0012809D00228F3D1606C73
:101FE000FFF72AFF70BDE06BFFF726FF70BD206C86
:101FF000FFF722FF70BD0000D4030020AAAAAAAAFE
:1020000010B50B48016A0124214301620A480949BD
:10201000016003214160FF210901816000F090FF10
:10202000002803D005480474FFF72CF810BD000009
:102030004010024000300040A00500207404002041
:1020400010B500202649FF220A54401CC0B20428C3
:10205000FAD3244CA06900281FD0E069012804D0DD
:1020600002280AD003281CD10FE0FF202D30E060A9
:10207000E06880B201F05AFC13E0FF205F30E060BE
:10208000E06880B201F052FC0BE0FF209130E0608C
:10209000E06880B201F04AFC03E0E06880B201F041
:1020A00045FC0121002001F037FC0E480121803061
:1020B0000162206B002803D00021062001F052FBB2
:1020C0006069002804D00121072001F04BFB03E0E8
:1020D0000021072001F046FBFFF7D8FD10BD0000EE
:1020E000CD000020D403002010B500F0B9F800F0B6
:1020F000E1F80421054801F047FA002804D004481B
:1021000001210174FEF7BEFF10BD00004405002050
:102110007404002030B587B00E48416B0125294377
:102120004163406B28400190802002900220039080
:102130000021049105900695052002A9000700F0F2
:1021400061FE054C207C002802D1FFF7CDFF2574ED
:1021500007B030BD001002409404002030B587B0B5
:102160000E494A6B022002434A63496B01400191C8
:1021700020210291039000210491059001250695EC
:1021800002A9074800F03EFE064C207C002802D140
:10219000FFF7AAFF257407B030BD00000010024011
:1021A000000400509404002010B586B00D48426B26
:1021B00002210A434263406B0840009020200190B6
:1021C00001200290002003900491074C01A92046B1
:1021D00000F018FE00222021204600F0A4FE06B0E8
:1021E00010BD000000100240000400500149886347
:1021F000704700000004004070B58CB005461C21FB
:1022000005A8FEF722F80024019402940394049494
:102210000B200590FF200130089009940A95069440
:102220000C20079001260B9605A800F0E5FF0B4D4A
:10223000002802D02E74FEF725FF0720019002949B
:1022400003940494002101A800F0F4FE002802D0B9
:102250002E74FEF717FF0CB070BD00007404002050
:1022600008B50F48C26B02210A43C263C06B084025
:1022700000900D480B4901600C49C1600521416087
:102280000021016181604161816101F0F1F8002864
:1022900004D0074801210174FEF7F4FE08BD0000D8
:1022A00000100240000400404405002010270000F8
:1022B0007404002010B50B4860210160002181608A
:1022C0000161C16081614161416001460422403881
:1022D00001F0EAF8002804D0034801210174FEF758
:1022E000D1FE10BD8405002074040020F8B5194EFD
:1022F0003068194D6968401A322803D217494020C6
:10230000C860F8BD164C0120E0608021154800F03F
:1023100003FE07464021134800F0FEFD874201D12D
:10232000012000E0002032686968521A322A00D980
:1023300028702A78904205D03368591A322901D87A
:10234000226101E020612870306868600349402004
:10235000C860F8BDDC000020C40000200018024066
:102360005404002000040050F8B5194C194F62784D
:10237000510078520521501CFDF769FF61700E462F
:102380000025002430190521FDF761FF4800385A67
:10239000FEF766FC0E49A2003C31895803F0BAF8FA
:1023A000294603F047F80546641CE4B2052CE9D33E
:1023B000FF20C005C54201D30020F8BD0648854274
:1023C00001DD0648F8BD2846FEF706FC80B2F8BDE0
:1023D00004010020F805002000F07F45FF0F0000F9
:1023E00005490020486005484169042211434161C4
:1023F0000348C10608607047AC0500200020024079
:1024000021433412054A0021516005494A690223DB
:102410001A434A61FF21016070470000AC050020AB
:102420000020024070B500220C4C636901252B434B
:102430006361EFF3108372B60125ED0408E040C933
:1024400040C0521CD2B21F2A02D166692E43666177
:10245000202AF4D383F3108870BD000000200240CE
:1024600003494A69CB141A434A61FF21016070474E
:102470000020024070B5044600F05CFD0419084DD0
:1024800005E000F057FDA04201D3032070BD28698C
:10249000C043C003F5D503482861002070BD00008B
:1024A000002002401180000010B501F081FA02F016
:1024B0003BFD80B2FEF7D4FBFEF794FEFEF78CFBEB
:1024C00080B2FFF751FFFEF7CBFB054903F022F87E
:1024D0000449FEF7D1FA0449FEF7CEFA10BD000018
:1024E0003333534000F07F450AD7233CFEB5044602
:1024F0000020019025462035287D01281ED001208E
:10250000287520688168C943C90734D0A16BFF22B0
:102510000132914302263143A163C1688907890FC3
:102520000091C16889088900C16020688168D2056E
:102530001143816000F0FEFC07460FE00220FEBD63
:1025400000F0F8FCC01B022808D9A06B1021B04392
:102550000843A063002028750120FEBD2068806824
:102560000028EDDB2068C168009A1143C160A06BB0
:10257000B043A06305E0A06B20210843A0630120C5
:102580000190002028750198FEBD0000F1B58AB0C9
:102590000024114D05AE6F460A98FFF7A7FF0028EB
:1025A00002D001200BB0F0BDA868A100705040021D
:1025B0007850641C052CEFDB05216846FEF79CFC77
:1025C000029840122861E868686168680121C903BF
:1025D000084368600020E5E740240140F8B5002585
:1025E0000022009204462034227D012A39D00123A2
:1025F00023750268966876076AD43A4F4E68BE42E1
:1026000050D0966A0F78BB401E4396620123C26A7F
:102610001B079A421FD0012A1DD0022A1BD0032A71
:1026200019D0042A17D0052A15D0062A13D0072A54
:1026300011D002688B6856697607760FB3420AD0CC
:102640005369DB08DB005361006842690B7A5B0762
:102650005B0F1A43426108680B2804D00C2802D093
:102660003BE00220F8BD204B9A680B2807D00120E0
:10267000800502439A6008680B2803D02DE00120F2
:10268000C005F6E71A4819490068FDF7E0FD0A2180
:102690004843009002E00098401E009000980028F7
:1026A000F9D11AE0906A0E78B340984390620868B6
:1026B0000B2801D00C2810D10B498A680B2804D0B4
:1026C0000120800582438A6007E00120C005F9E708
:1026D000816B20221143816301250020207528464B
:1026E000F8BD0000011000000027014040420F002B
:1026F0004C0300200068006C70470000F8B50446E9
:102700000025002C05D0A06B26462036002802D0DC
:1027100007E00120F8BD0020E0633075204600F09E
:10272000A1F8A06B1022C00600287DDB206881681C
:10273000490779D4A16B1301994302231943A1637B
:102740008168C943C9070CD0C16818239943A3689D
:102750001943C160206801696368090109091943C7
:1027600001612068C1683D4B1940C160207EE1686D
:1027700080030143607EA36A4703012B02D001233B
:102780001B0300E000231F4323693943022B09D0B8
:102790000023194333795B001943A67E0123012EE0
:1027A00002D00AE00423F4E7002826D0A06B2026FC
:1027B0003043A063E06B1843E063E0690646FF3EE8
:1027C000C23E02D0266A304301432068C6680E43E9
:1027D000C6600126E06A3607B04212D0012810D048
:1027E00002280ED003280CD004280AD0052808D0CF
:1027F000062806D0072804D00FE00120000401437A
:10280000DBE720684669F608F600466120684669FD
:10281000A78D7F077F0F3E4346612068C068104E3A
:102820003040884209D100E011E00020E063A06B55
:1028300080088000401CA0630DE0A06B022188434B
:102840001043A063E06B1843E063012503E0A06B35
:102850001043A06301252846F8BD000019C2FEFF01
:10286000E7FF3FC370B586B00546142101A8FDF708
:10287000ECFC21490A68012002430A600A68024010
:1028800000921D4A403A936B03439363936B03405A
:102890000093536B03435363526B024000920B68E7
:1028A000020513430B600968114000910190032059
:1028B000029000260396052001A9000700F0A2FA65
:1028C000002000F0B5FD0E4C0C4820606660A6604C
:1028D000E66040152061800060612020A061032037
:1028E0000003E061204600F099F8204600F0C6F8A9
:1028F0002C63656206B070BD4010024008000240C3
:1029000028060020F8B504460D46274660692037A2
:1029100008280BD02068C068C00709D0A06B202110
:102920000843A063002038750120F8BD082600E0A8
:102930000C2600F0FFFA009011E0681C0FD0002D6B
:1029400005D000F0F7FA0099401AA84207D9A06B09
:1029500004210843A063002038750320F8BD2068D7
:1029600000683042E9D0A06B012149020843A0630E
:102970002068C1680C220905890F00291AD1617EDF
:10298000002917D10168090714D581680123490777
:10299000002908DB416891434160A06B190288431C
:1029A0001843A06306E0A06B20210843A063E06BFE
:1029B0001843E063207E002801D1206802600020D7
:1029C000F8BD000070B5044620688068400720D438
:1029D00025462035287D012819D00120287520465C
:1029E000FEF75AFA002811D1A16B0B4A1140FF22C1
:1029F00001321143A1630021E163297522681C2182
:102A0000116021688A6804231A438A6070BD02201D
:102A100070BD022070BD0000FEF1FFFF70B50446DE
:102A2000002C24D020680168490849000160206812
:102A30000025056020684560206885602068C560C5
:102A40000C49206840181421FDF701FC8000206427
:102A50000949E163012282404A60A562E56225637B
:102A60006563A563203465702570002070BD01206A
:102A700070BD0000F8FFFDBF0000024070B50446C5
:102A8000002C26D01448256814212818FDF7DFFBF8
:102A9000800020641148E06302212046203041700C
:102AA0002A680F490A40A368616826691943E368E8
:102AB0003343194363691943A3691943E36919430C
:102AC000114329600021A16301224270017000209E
:102AD00070BD012070BD0000F8FFFDBF0000024086
:102AE0000FC0FFFF70B5044600F024FA0546601CD5
:102AF00002D004484068241800F01CFA401BA04291
:102B0000FAD370BDD4000020F8B504460E46012566
:102B100063480178012969D001210170614840684A
:102B20000004400F60490B688200604882581068BA
:102B3000C7B2BC46BB4229D14B68C701FF0DBB429F
:102B400024D10B690004000E83421FD18B685068AA
:102B5000C7B2BB421AD1CB684001400D834215D1A8
:102B600048699368DB03DB0B98420FD18869D3680F
:102B7000DB03DB0B984209D1CB69106987B2BB42FA
:102B800004D10B6A8000800C83421ED0604608602E
:102B90001068C001C00D486010880004000E086174
:102BA0001079886050684001400DC8609068C0038B
:102BB000C00B4861D068C003C00B8861108A80B226
:102BC000C86110698000800C08627D272068FF00C2
:102BD00004280DD002281CD00121C90288425AD1F4
:102BE0003846FFF747FC002836D054E00220F8BDF5
:102BF0003846FFF73FFC00284DD1FFF7F1FB384680
:102C0000FFF738FC05462A49486904229043486189
:102C100041E07D20C000FFF72DFC00283BD1401E85
:102C20003060676811E03846FFF7ECFB7D20C0009C
:102C3000FFF720FC05461E4841690222914341618D
:102C4000280001D0376026E08037A0686168C001A5
:102C50004018B842E7D81EE00020C0433060E76863
:102C600013E03846FFF7FCFB7D20C000FFF702FCB5
:102C700005460F484169C21491434161280001D0C3
:102C8000376008E0012000033F182069E168000375
:102C90004018B842E5D80248002101702846F8BD26
:102CA000AC0500200010024000210240045700083B
:102CB00000200240012005494A69C3071A434A61BE
:102CC0004969002900DA0020704700000020024016
:102CD000F7B50F463C4C207801285AD001202070CF
:102CE0003A4840680004400F39490D68820039486D
:102CF00080580268D3B29D4229D14D68D601F60DA5
:102D0000B54224D10D691204120E95421FD18D686F
:102D10004268D6B2B5421AD1CD685201520D9542E1
:102D200015D14A698568ED03ED0BAA420FD18A6976
:102D3000C568ED03ED0BAA4209D1CD69026996B2CF
:102D4000B54204D10D6A9200920C95421DD00B60E1
:102D50000268D201D20D4A6002881204120E0A6182
:102D600002798A6042685201520DCA608268D203B9
:102D7000D20B4A61C268D203D20B8A61028A92B234
:102D8000CA6100698000800C0862780603D00120C7
:102D9000FEBD0220FEBD7D25ED002846FFF76AFB43
:102DA00000280DD138460299FFF73CFB2846FFF773
:102DB00061FB09494A69520852004A610028E9D179
:102DC00000212170FEBD0000AC0500200010024073
:102DD000002102400457000800200240002006495C
:102DE0004A69002A07DA054A8A60054A8A60496901
:102DF000002900DA012070470020024023016745C6
:102E0000AB89EFCDF0B500227CE001249440A446CC
:102E10002340002B75D04C68022C01D0122C0CD111
:102E2000D408A40027183D6A5407E40E0F26A640D4
:102E3000B5430E69A6402E433E6206685500032442
:102E4000AC40A6430F79BF07BF0FAF4037430760C1
:102E50004E68012E05D0022E03D0112E01D0122E65
:102E60000ED18668A643CF68AF4037438760476876
:102E70006646B7430E79F606F60F96403E43466027
:102E8000C668A6438C68AC403443C4604C68E40018
:102E900037D595081E4CAD002F193D6E9407E40EF2
:102EA0000F26A640B54305263607B04201D10026BD
:102EB00005E0184EB04201D1012600E00226A640EE
:102EC0002E43134D3E66124E803634689C434F6845
:102ED000FF0300D51C43346074689C434F68BF03F4
:102EE00000D51C4374602C689C434E68F60200D5E4
:102EF0001C432C606C689C434E68B60200D51C4392
:102F00006C60521C0B681C46D44000D07DE7F0BDBD
:102F100000180240000400500069084201D001205E
:102F2000704700207047002A01D08161704781629C
:102F3000704700000148806870470000D4000020FE
:102F400070B50446002C0FD0216810480860216835
:102F50000F4808602168606848602168A068886040
:102F6000FFF7E8FF054608E0012070BDFFF7E2FF2C
:102F7000401B302801D9032070BD2068C06800289C
:102F8000F4D1216803480860002070BDCCCC00005B
:102F900055550000AAAA00000068024901600020FF
:102FA00070470000AAAA0000024881684268891898
:102FB00081607047D400002010B50024032000F089
:102FC00009F8002801D0012401E000F023F8204690
:102FD00010BD000070B5054600240C4E7068002836
:102FE00011D00B4800F02CFA002801D001240BE08E
:102FF000042D06D200222946501E00F017F8356035
:1030000002E0012400E00124204670BDD40000202D
:10301000C05D000070470000C106C90E0120884055
:10302000014908607047000000E100E010B500F0C1
:10303000E5FC10BDF8B504460D46002C0FD04D48F8
:103040000068C007C00FA84218D24A4F386840082D
:10305000400028433860FFF76DFF064609E0012075
:10306000F8BDFFF767FF811B4348814201D9032068
:10307000F8BD3868C007C00FA842F2D120683F4EA3
:1030800081070DD5400704D5B0680721090308431F
:10309000B060B0680F2109028843A1680843B0609E
:1030A0002078C0072DD06068012808D000280BD0F8
:1030B00032494031096A89070BD40120F8BD3168D3
:1030C000890306D40120F8BD3168490501D40120E7
:1030D000F8BDB168C908C9000143B160FFF72AFF14
:1030E000074607E0FFF726FFC11B2348814201D9AD
:1030F0000320F8BDB068382108406168C9008842E3
:10310000F0D11C480168C907C90FA94216D9016846
:103110004908490029430160FFF70CFF074607E013
:10312000FFF708FFC11B1448814201D90320F8BDF5
:1031300010480068C007C00FA842F1D120784007AE
:1031400006D5B068072109038843E1680843B060E9
:1031500000F01CF8B1683C2289091140084A515C12
:10316000C906C90EC8400749086007480068FFF74C
:1031700031FFF8BD0020024088130000001002401B
:10318000485700084C030020D400002000B585B04B
:10319000142216496846FCF7D7FF1548816889064E
:1031A000490F0CD081688906490F012918D0806821
:1031B0008006400F032815D0002005B000BD01682F
:1031C00089044A0F0121914040680004400F0428FF
:1031D00000D9002080006A461058FDF738F8ECE767
:1031E0000448EAE70120C003E7E70000245700088D
:1031F0000010024000366E01F8B50446002C1DD0C8
:1032000020783827C007864D002856D0A868384057
:10321000082815D06068002807D0A068002817D0BB
:1032200029690C2291430143296101216068090445
:1032300088420FD12868084328601EE00120F8BDAD
:103240002868800339D56068002836D10120F8BD90
:103250000120F8BD052301221B049204984206D1E7
:1032600028681043286028680843286005E028681B
:1032700088432860286890432860606800280ED042
:10328000FFF758FE064606E0FFF754FE801BC828ED
:1032900001D90320F8BD28688003F5D50DE0FFF7BC
:1032A00049FE064606E0FFF745FE801BC82801D907
:1032B0000320F8BD28688003F5D42078800772D5F4
:1032C000AE683E40002E12D0FF20E1680130002998
:1032D00058D029680722D2029143226911432960FC
:1032E000296801432960FFF725FE064640E028686B
:1032F000400502D5E068002809D068686169000CC3
:10330000000408436860FFF715FE074608E0012047
:10331000F8BDFFF70FFEC01B022801D90320F8BD3E
:1033200028684005F5D5002E13D128680721C90269
:103330008843216908432860FFF728FFA9683C22D9
:1033400089091140374A515CC906C90EC84036493F
:10335000086036480068FFF73DFE002823D00120B2
:10336000F8BDFFF7E7FD801B022801D90320F8BD57
:1033700028684005F5D568686169000C00040843B9
:10338000686010E0296881432960FFF7D3FD064695
:1033900006E0FFF7CFFD801B022801D90320F8BD0E
:1033A00028684005F5D42078000736D5A8681C4D5C
:1033B0008006400F403503280AD0A06900281AD0A3
:1033C000286A012108432862FFF7B4FD04460EE095
:1033D000286A800721D5A06900281ED10120F8BDE8
:1033E000FFF7A8FD001B022801D90320F8BD286AB9
:1033F0008007F5D511E0286A400840002862FFF7F1
:1034000099FD044606E0FFF795FD001B022801D94F
:103410000320F8BD286A8007F5D40020F8BD00001D
:1034200000100240485700084C030020D400002040
:103430000249CA690243CA617047000000000140A6
:1034400010B50949401E884201D9012010BD074C22
:1034500060610321081F00F0D1FA0020A06107205D
:103460002061002010BD0000FFFFFF0000E000E031
:1034700070B50446002C05D025462035687F00280D
:1034800002D006E0012070BD00202877204600F021
:103490000AF802206877211D206800F0EFFA012069
:1034A0006877002070BD7047F8B504460E46254683
:1034B0002035287F01280DD0012028770220687749
:1034C0000427002A08D0042A19D0082A2ED00C2A52
:1034D00055D13EE00220F8BD3146206800F01AFBCD
:1034E0002068816908221143816120688169B9439C
:1034F0008161206881693269114381613FE0314611
:10350000206800F045FB206882690121C9020A4356
:103510008261206881690122920291438161206861
:103520008169326912021143816128E031462068C5
:1035300000F06EFB2068C26908210A43C26120685E
:10354000C169B943C1612068C16932691143C16170
:1035500015E03146206800F09BFB2068C16901221C
:10356000D2021143C1612068C269012189028A43E4
:10357000C2612068C169326912021143C161012030
:10358000687700202877F8BD10B50446012220682E
:1035900000F0B2FA0D482168814205D00C48814202
:1035A00002D00C48814204D1486C0122D20310435E
:1035B0004864206881684907490F062903D00168DB
:1035C000012211430160002010BD0000002C0140C9
:1035D000004401400048014008B540210268C94349
:1035E000116002684910116000680168416800912B
:1035F0000168416800910168416800910168406874
:10360000009008BDFEE7000010B5044600F0DAF8AF
:103610000C493F20002C09D00A780A704A780243EE
:103620004A70887837221043887010BD0A780243A8
:103630000A704A78712002434A708A7802438A707D
:1036400010BD0000CD00002010B504B2130000F042
:1036500067FB0604080C1014180780B200F05CF930
:1036600010BD204600F03CF910BD80B200F01CF9FE
:1036700010BDC0B200F0B6F810BD80B200F07EF907
:1036800010BD204600F0B8F810BD000070B500284D
:1036900004DB80B2012100F03FF970BD404200B26E
:1036A000632800DD63200A21FCF7DBFDCCB20A2190
:1036B000FCF7D7FDCDB200F085F80748402201782D
:1036C00011430170054942784B5D1A43427082787C
:1036D000095D0A43827070BDCD0000203857000894
:1036E00070B504461548844200D904460A21204694
:1036F000FCF7ADFD0E460A21FCF7A9FD0D4664213D
:103700002046FCF7A4FD0A21FCF7A1FD0C4600F0C1
:1037100059F80B480B4982788B5D1A438270224618
:103720002A4303D042784B5D1A434270002C03D0E9
:103730000278095D0A43027070BD0000E7030000D3
:10374000CD00002038570008054A0028517803D0E2
:1037500080200143517070474806400E50707047FA
:10376000CD00002010B5042807D0062809D007286E
:1037700002D10846FFF7E8FF10BD084600F006F842
:1037800010BD084600F010F810BD0000054A0028E2
:10379000917803D080200143917070474806400E15
:1037A00090707047CD000020054A0028117803D0A2
:1037B00080200143117070474806400E107070471A
:1037C000CD00002006480178C909C901017041787F
:1037D000C909C90141708178C909C901817070475F
:1037E000CD00002010B5002902D0FFF70DFF10BD5D
:1037F000FFF7E8FF10BD000010B5044600294ED0C9
:10380000FFF7E0FF274879214022032C32D00FDC5C
:10381000002C1BD0012C23D0022C08D1027802707E
:1038200042780A43427081785B221143817010BD57
:103830000F2C2AD0102CFAD1017811430170417855
:103840001143417081781143817010BD027802707C
:1038500042780A43427081783F221143817010BD43
:103860000278027042780A4342708178062211433E
:10387000817010BD03786D24234303704378134394
:10388000437082780A43827010BD027802704278D9
:103890000A434270817871221143817010BDFFF795
:1038A00091FF10BDCD00002070B50407240F010664
:1038B0000D0F0005060FFFF785FF074807498278BF
:1038C0000B5D1A43827042784B5D1A434270027856
:1038D000895D0A43027070BDCD0000203857000892
:1038E00010B5002912D0002802D0FFF7CFFE10BD7E
:1038F000FFF768FF07483F2102780A4302704278C9
:103900000A43427082780A43827010BDFFF75AFF63
:1039100010BD0000CD00002010B5002902D0FFF737
:10392000DFFE10BDFFF74EFF10BD000070B506466C
:103930000A213046FCF78BFC0C460A21FCF787FC79
:103940000D4664213046FCF782FC0A21FCF77FFC1F
:103950000E46FFF737FF0748074A8178135D194382
:1039600081704178535D194341700178925D114334
:10397000017070BDCD0000203857000810B5044616
:10398000FFF720FF092C00D909240749074A887846
:10399000125D1043887048783F22104348700878C1
:1039A00073221043087010BDCD0000203857000866
:1039B00070B506461E213046FCF749FC0C4C0D4DF7
:1039C000A1888E4209D9A080FDF742F9294601F06D
:1039D000A1FDFDF701F980B270BD3046FDF740F959
:1039E000294601F097FDFDF7F7F8A080304670BD3D
:1039F000040100203333333F704700008307FF2268
:103A0000DB0E9A408907090E994000280BDA00075F
:103A1000000F0838830808489B001818C3699343AF
:103A20000B43C3617047830804489B001818036860
:103A300093430B430360704700ED00E000E400E0B7
:103A40007047704710B5FFF7AFFA10BD08494868D6
:103A5000084A000C92880004D204D20C10430122C0
:103A6000520310434860C803034988607047000050
:103A700000100240000FFF1F00ED00E070B502686B
:103A8000184C194EA04201D0B04204D17025134603
:103A9000AB434A681A43154B154DA04208D0B042BB
:103AA00006D0144EB04203D0984201D0A84204D1AF
:103AB00003263602B243CE6832438026B2434E69B3
:103AC000324302608A68C2620A688262A04203D0FE
:103AD000984201D0A84201D10969016301214161E5
:103AE00070BD0000002C0140000400400044014073
:103AF000004801400020004010B5C906C90E01234E
:103B00008B40046A9C430462036A8A401343036245
:103B100010BD0000F0B5026A520852000262056A48
:103B2000436882697024A243920892000C6814438F
:103B3000022295438A682A43124E134FB04204D0A2
:103B4000B84202D0114DA84206D10825AA43CD683B
:103B50001543042295432A46B04204D0B84202D00D
:103B60000A4DA84208D1FF250135AB436D00AB4398
:103B70004D691D438B692B434360846149684163F0
:103B80000262F0BD002C01400044014000480140A9
:103B9000F0B5026A10239A430262046A436882699C
:103BA00007252D03AA4303252D02AA430D682D02E4
:103BB0001543202294438A6812012243114EB042D9
:103BC00007D180271446BC43CA681201224340240F
:103BD000A243B04205D00C4CA04202D00B4CA042F4
:103BE0000AD10124A402A3436400A3434C69A400A6
:103BF0001C438B699B002343436085614968816353
:103C00000262F0BD002C0140004401400048014028
:103C1000F0B5026AFF2301339A430262046A4368E3
:103C2000C2697025AA43920892000D6815430122CB
:103C3000520294438A6812022243124EB04207D1C4
:103C4000C7141446BC43CA68120222430415A24397
:103C5000B04205D00C4CA04202D00C4CA0420AD17C
:103C600001242403A3436400A3434C6924011C439F
:103C70008B691B0123434360C5614968C1630262CC
:103C8000F0BD0000002C014000440140004801400C
:103C900070B5026A01231B039A430262046A4268F8
:103CA000C36907252D03AB4303252D02AB430D68E4
:103CB0002D021D4301235B039C438B681E03264397
:103CC0000A4B984205D00A4B984202D0094B9842C1
:103CD00006D10124A4031346A3434A6992011A435F
:103CE0004260C56149680164066270BD002C0140F4
:103CF000004401400048014010B5084C20680068AD
:103D0000C043800601D400BF02E00448FFF764FC12
:103D100020202168C043086010BD0000F804002086
:103D200030B47446641E2578641CAB4200D21D4634
:103D3000635D5B00E31830BC1847000010B5FDF769
:103D400088FE0A498A6890420AD08860002807D015
:103D5000002211461020FDF7DBFE05480021C1823C
:103D600000F034F800F006F810BD00009C010020BF
:103D70009404002070B5144C0025A069002817D0C9
:103D8000A561E06900280AD000F0D0FD00221146AC
:103D90000F20FDF7BDFEFEF7B1F8E56108E0002257
:103DA00011460120FDF7B4FE00F0F8FD0120E061AE
:103DB000E069002806D06069002803D06561012011
:103DC00000F0B4FB70BD00005404002070B5FDF796
:103DD00040FE002412490123124A00280ED0908888
:103DE0000F2801D2401C908090880F2805D350786E
:103DF000002802D18B615370947070BD9088451E6D
:103E00000E2D00D24B610F2806D35078002803D026
:103E10009078002800D193709480547070BD000099
:103E2000540400209C01002010B51748407B002856
:103E30000ED00300FFF774FF110C0A0D10131F22A0
:103E4000250C0C0C0C0C0C1C16190C0001F0E0F9E4
:103E500010BD01F047FA10BD01F00EFA10BD01F0DF
:103E600075FA10BD01F0C4F810BD01F0DBF810BD0B
:103E700001F002F910BD01F02FF910BD01F094F925
:103E800010BD01F05DF910BD9404002070B5154817
:103E9000C16A154C0025A26A914204D0C06AA06292
:103EA000A5810120E070E078002810D00D4880380E
:103EB000C06800220121FFF7C7FBA089643080B2EF
:103EC000A0817D210901884200D3E57070BD0748BB
:103ED000006FFCF781FE80B200220121FFF7B4FBE6
:103EE00070BD000054040020A801002054030020ED
:103EF000F0B587B00C46029021463B4F029801F086
:103F000099FB460076083948384D807CC03D0690C4
:103F1000E96E0591002828D00598FCF75DFEAA6F90
:103F20000621904207D20120314A0B1A9B00D4503F
:103F3000401C0528F9DD2F4B9878002809D1012075
:103F40002B4F0A1A9200BC50401C0628F9DD0120B4
:103F500098702948864201DD284F09E028488642AA
:103F600001DA284F04E0204F02E02248002181704E
:103F70003946029801F0CEFA04467F203946C00542
:103F800001F058FB1A4E0490316801F0C3FA214643
:103F900001F050FA30600124601E8000305839462C
:103FA00001F0B8FA0190A10003910498715801F052
:103FB000B1FA019901F03EFA03997050641C062C85
:103FC000EADB069800280CD00598FCF705FEE96F9F
:103FD000884206D23F210906706901F02BFA07B02A
:103FE000F0BD3069FBE70000CDCC4C3D94040020CF
:103FF00004060020040100200000C841CDCCCC3DC7
:10400000000020410AD7233CFEB50090009801F043
:1040100011FB44003B4F6408BC603B4E3F252D061E
:10402000B4420ADA31462046FCF726FD374901F052
:1040300071FA294601F0FEF90DE03146204601F003
:10404000F9FA3146FCF718FD0221FCF70DFE81213B
:10405000C90501F0EFF9A84200DA284641252D06EE
:10406000A84200DD2846F860029031468C420ADA08
:104070002046FCF701FD264901F04CFA7F21C905D5
:1040800001F0D8F90DE00E46204601F0D3FA314692
:10409000FCF7F2FC0221FCF7E7FD8121C90501F0E4
:1040A000C9F97F24E405A04200DA2046A84200DDD9
:1040B0002846054638617868029901F0BBF9064642
:1040C0002946304601F0B6F901463046FCF7D4FCEB
:1040D000786101903D680098294601F0ABFA01999A
:1040E00001F018FA294601F0A5F905463860204686
:1040F000019901F09FFA314601F00CFA78602846E8
:10410000FEBD00008401002000002041000060404E
:104110000000404070B553490D6A524C002178268A
:104120000122803C2B00FFF7FBFD0A160625394DC6
:104130006776878E951600280ED0206AFF252D35CC
:10414000A84204D200F090F8216A40182062206A48
:10415000A84200D9256270BD206A642804D900F005
:1041600083F8216A081A2062206A6428F3D2642046
:10417000206270BD00280AD0606A782802D2606A86
:10418000401C6062606A7828F3D9666270BD606A1C
:104190000028FBD0606A401E606270BD00280AD013
:1041A000A06A782802D2A06A401CA062A06A78287F
:1041B000F3D9A66270BDA06A0028FBD0A06A401E99
:1041C000A06270BD00280BD0E06AB42802D2E06A79
:1041D000401CE062E06AB428F3D9B420E06270BD0C
:1041E000E06A3C2802D9E06A401EE062E06A3C28AE
:1041F000F5D23C20E06270BD6069002805D06161A5
:1042000000210720FFF7AEFA70BD6261012107208F
:10421000FFF7A8FA70BD002806D020693228F9DA25
:104220002069401C206170BD20693221C842FADD3E
:104230002069401E206170BDA069002801D0A161E5
:1042400070BDA26170BD606B002801D0616370BD5C
:10425000626370BD206B002801D0216370BD2263B2
:1042600070BD00005404002010B51C4800681C4AB2
:1042700000231169002903D110615061D3801370AC
:1042800011691924411A6401A14202D95061D380F5
:10429000137051697D24411AE400A1420BD3D188E7
:1042A000032905D91178FF2903D2491C117000E0B8
:1042B0001370D3805061D188491CD18010610520D2
:1042C0001178002905D0042900D904210A2041438E
:1042D000C8B2282800D9282010BD0000DC0000202A
:1042E000A801002010B50A48C16800290ED000219D
:1042F00002464032D182C160064A1170007C00F053
:104300000BF8002211461020FDF702FC10BD000042
:10431000540400209C01002010B50A4CE1690029DA
:1043200005D0FFF7F7FEA06A401CA06210BD00F0A8
:10433000B5F8E06A401CE062024800214030817418
:1043400010BD00005404002010B50020FDF7FAFA5B
:10435000044CA060FCF7D6FFA062FCF70BFFA06442
:1043600010BD00005403002010B50420FDF7EAFA48
:104370000149886110BD00005403002010B50120E0
:10438000FDF7E0FA024CE060FDF7D2FAE06210BD02
:104390005403002010B5FCF7F9FE0149C86410BDB4
:1043A0005403002070B5FDF7FFFE0020284900BF30
:1043B000401C80B28842FAD30220FDF7C3FA254D93
:1043C00028612549C97C732904D0D22906D0F52952
:1043D0000BD107E000F018FC286306E000F056FC63
:1043E000286302E000F094FC28631A4C8034E068F3
:1043F000FCF736FC0146286BFDF776F92865286046
:104400002046A030007C002811D004280FD0E0689E
:10441000FCF726FC0646E068FCF722FC014600207B
:10442000FFF7F2FD3146FFF763FD286770BDE068D6
:10443000FCF716FC0646E068FCF712FC014628680B
:10444000FFF7E2FD3146FFF753FD286770BD00001E
:10445000FF080000540300209404002010B5FFF76B
:1044600083FF0B4801218069C902884201D9F520E8
:1044700010BD0721C901884201D2D22010BD0549D3
:1044800040180549884201D2732010BD002010BD9C
:10449000540300207FFCFFFF7F02000070B5224C18
:1044A000A16900291BD0002806D0E069032809D2A1
:1044B000E069401CE06105E0E069012802D9E0699B
:1044C000401EE061E0693221401E4843FF302D303C
:1044D000E060E06800220121FFF7B6F870BD002817
:1044E0000ED0E068FF25C335A84204D2FFF7BCFE1A
:1044F000E1684018E060E068A8420ED9E5600CE091
:10450000E068692804D3FFF7AFFEE168081AE060AD
:10451000E068642801D26420E060E06800220121A4
:10452000FFF792F870BD0000D403002010B52549B4
:10453000002808D0086A401C0862086A08280ADDBA
:104540000120086207E0086A401E0862086A012824
:1045500001DA08200862086A0300FFF7E1FB0A0A93
:10456000060B10151A1F24292E0A01210620FFF719
:10457000F9F810BD00210620FFF7F4F810BD002166
:104580000620FFF7EFF810BD01210620FFF7EAF83B
:1045900010BD00210620FFF7E5F810BD012106201F
:1045A000FFF7E0F810BD00210620FFF7DBF810BD93
:1045B00000210620FFF7D6F810BD00210620FFF7E6
:1045C000D1F810BD5404002010B5FFF7BDFE05481A
:1045D0000549806C884204DD044806210174FCF71B
:1045E00051FD10BD540300200000964274040020C9
:1045F00070B5052020210007FEF78EFC134D144CEA
:10460000002814D00120FDF79DF9E86080B2FDF785
:104610004BFFFCF707FA00222346FCF7DFF8E20223
:104620000C4BFCF7DBF8FBF7C3FEE86670BD00201F
:10463000E860FDF739FFFCF7F5F900222346FCF7A7
:10464000CDF8FBF7B5FEE86670BD0000540300200E
:1046500000003840CCCCEC3F10B5314900280BD0DD
:104660000A6A084680381300FFF75AFB0A540C12F6
:104670002130363C42484E54086A04220121FEF79C
:10468000E3FF10BD006A00220121FEF7DDFF10BD2F
:10469000416A002905D0406A00220121FEF7D4FFBB
:1046A00010BD406A03220121FEF7CEFF10BD816AD2
:1046B000002905D0806A00220121FEF7C5FF10BD48
:1046C000806A03220121FEF7BFFF10BDC06A0022ED
:1046D0000121FEF7B9FF10BD406903220121FEF759
:1046E000B3FF10BD006901221146FEF7ADFF10BDFA
:1046F000806903220121FEF7A7FF10BD406B032252
:104700000121FEF7A1FF10BD006B03220121FEF77E
:104710009BFF10BD086A04220121FEF795FF10BD22
:1047200054040020F8B53048C16900242F4D0029F9
:1047300010D0016A6A89914216D0016A6981AC6120
:104740002C62806AE8610120A8706C620020FFF78B
:1047500083FFF8BDAC610021C94369812C62806A86
:10476000E861AC706C62F8BDA9787D27FF00002974
:104770000CD00020FFF770FF686A64306862B842AE
:10478000F1D3AC706C62AC612C62F8BD816AEA69ED
:10479000914207D0806AE8612C62AC610120FFF78A
:1047A0005BFFF8BD286A643028627D263601B0427E
:1047B00003D20120FFF750FFF8BDA869B84203D229
:1047C0000020FFF749FF08E0B04203D20120FFF7C5
:1047D00043FF02E00020FFF73FFFA8696430A861B3
:1047E000B042E9D3AC61F8BD54040020A801002018
:1047F000F0B585B04A4FF868FCF732FA394680398F
:10480000096F039100F00AFF400040080090454DF9
:10481000A86B401CA8630290384680300190C16AA2
:10482000EA6B4148914206D00199C96AE9630121C6
:104830002971016829643A4C29790026C03400297D
:104840000AD0012169630068296C411A7D200001AA
:1048500081420FD32E710DE0A07C002808D0F86EA5
:10486000FCF7BAF9F96F884202D20A20686301E0C6
:10487000012068630299286B0A1A696B8A4216D371
:10488000401828630198C069002810D12448A0303E
:10489000007C0300FFF744FA082E0B050B14270BCE
:1048A0000D0B052201210020FEF7CEFEA67405B0F7
:1048B000F0BD052201210320FEF7C6FEA674F6E72F
:1048C000174F0398803FFCF787F9E96A884208D2BE
:1048D00080B200220121FEF7B7FE386FFCF77CF9A9
:1048E000E862A674E3E7052201211020FEF7ACFE82
:1048F000A674DCE7FFF7CAFA7F210098C905884251
:1049000009DAA07C002804D1002211461020FDF70E
:10491000FFF80120A074FF20C330E862C7E7000061
:10492000D4030020A8010020DC00002010B5134CA7
:10493000A069002812D0E069012804D0022806D01E
:1049400003280BD107E0FF202D30E06006E0FF20B8
:104950005F30E06002E0FF209130E0600748012115
:1049600080300162E0680022FEF76EFE206B0028B6
:1049700003D101210620FEF7F5FE10BDD40300206F
:10498000884203D3904201D300207047814203D371
:10499000914201D301207047022070477047000008
:1049A000F3B581B005462846029900F0C7F82846BD
:1049B000029900F08FF80746374C606F002869D0E5
:1049C0002846FCF74DF9029900F034FE06463946B8
:1049D000A06C00F02FFD314600F09CFD6065314673
:1049E000E06C00F097FDE16D00F094FDA16D00F02A
:1049F00021FD0746A0653046A16E00F01BFE216D2B
:104A000000F088FD2066A6663846616E00F0DAFD8B
:104A100001D2606EA065214EA06D0027B04200D388
:104A2000A765A16D606D00F005FD216E00F002FD2F
:104A30000146E0661848C030C07C732804D0D228F4
:104A400005D0F52808D105E01548206704E0154891
:104A5000206701E014482067B14200D3E766216F68
:104A6000E06E00F0AFFD01D2206FE0660A488030B2
:104A70000068281AFCF7F4F8029900F0A3FD03D2AD
:104A8000962D01D9206FE066E06EFCF7A5F880B2A4
:104A9000FDF7ACFBFEBD0000D403002000008080C9
:104AA0000000AF4400A00C4500401C460748017CB4
:104AB000A038002907D000214167C1668165C16522
:104AC00003488163704701214167704774040020E7
:104AD0000004004010B50C46FCF7C2F8214600F077
:104AE000A9FD00210122D20590420BDB064C214694
:104AF00000F0A0FD0549896C00F00CFD2146FBF794
:104B0000BBFF0146084610BD00007041D4030020E1
:104B100010B50848007C05280BD0FFF743FC05487A
:104B2000A038C16800690818034980B20968FFF716
:104B300037FF10BD7404002054030020F3B581B08A
:104B400006463046FCF78CF807461D4C1B48E51D11
:104B5000C07CF9358034732804D0D22805D0F528DC
:104B600008D105E0FDF7D6FA04E0FDF7D3FA01E03D
:104B7000FDF7F4FAA8688019FCF772F8029900F0C2
:104B80009FFC04D20020A065E064E06513E0686843
:104B9000301AFCF765F8029900F092FC0BD2384607
:104BA000029900F00FFD06D2304600F00BF8E064E9
:104BB0007F20C005E065FFF779FFFEBD940400206B
:104BC0005403002010B50C4C642801D8204610BDB9
:104BD000FF21C331884201D3084810BD6438FCF777
:104BE00037F8074900F096FC0649FBF745FF2146D8
:104BF00000F020FC10BD0000CDCC4C3D000040403A
:104C0000CDCC3C400000AF43F8B504462046FBF74E
:104C1000E2FD164A164BFBF7E1FD06460F4620461D
:104C2000FCF71EF8009000F0D3F9FBF7FBFE114AE9
:104C3000114BFBF7D3FD04460D46009800F0CDF96B
:104C4000FBF7F0FE0D4A0E4BFBF7C8FD22462B4644
:104C5000FBF768FD32463B46FBF764FD094A0A4B09
:104C6000FBF760FDFBF7A4FBF8BD0000304CA60A83
:104C70004625EF3F2A4E5A5DF34F35BFE7A52A8DF3
:104C8000E517693E9A99999999D582C0F8B5044675
:104C90002046FBF7A0FD164A164BFBF79FFD064684
:104CA0000F462046FBF7DCFF009000F091F9FBF780
:104CB000B9FE114A114BFBF791FD04460D460098D1
:104CC00000F08BF9FBF7AEFE0D4A0E4BFBF786FDAD
:104CD00022462B46FBF726FD32463B46FBF722FDDC
:104CE000094A0A4BFBF71EFDFBF762FBF8BD00000B
:104CF000CB10C7BAB88DE83F44B97E0BFCF233BF86
:104D00007DAA55D59035733ECDCCCCCCCCCC70C0E3
:104D100010B5FBF7A5FFFBF785FE054A054BFBF732
:104D20005DFD054A054BFBF7FDFCFBF741FB10BDA4
:104D3000917EFB3A70CEC83FEE7C3F355E1A3A401A
:104D400070B5244D2968244C2068091A0A2907D314
:104D50000A302060FFF7DCFEFFF71CFBFFF764F86A
:104D60002968A068091A322903D33230A060FFF7FE
:104D7000B9FA29686068091AFA2908D3FA3060601C
:104D8000FCF778FCFCF714FB1448FEF705F92968DA
:104D9000E0680A1A7D21C9008A4205D34018E06004
:104DA000FFF712FCFCF786FC29682069091A6429C0
:104DB0000DD364302061FEF7C1FFFCF7CBFAFFF79B
:104DC00017FDFCF76FFAFFF7ADFCFCF75FFFFFF78D
:104DD0000FFC70BDDC000020E0000020A0050020DA
:104DE000FFB585B0059844680598806804900598DB
:104DF000008802900298401E8000201803900193C2
:104E000023E006980168039801600698001D06904B
:104E10000398001D0390002000902546049E029FE9
:104E200002CE01CD00F076FB009900F003FB00906C
:104E30007F1E002FF4D10799009808600798001D85
:104E40000790241D0198401E019001980028D8D198
:104E5000059841680298401E02E004CC04C1401E3F
:104E60000028FAD109B0F0BD30B5002903D004689C
:104E70000025012209E0002030BD9300C358A34261
:104E800001D91C461546521CD2B28A42F5D36D1C7C
:104E9000E8B230BD10B5094C884201DC208810BD55
:104EA000904201DBA08910BD521A401A06214843E6
:104EB0001146FBF7D6F94000205A10BD0E03002022
:104EC000FEF77AF8FF209130FDF70CFEFCF7A4FE08
:104ED000FCF7CAFEFCF7FCFD12480121008AC90359
:104EE000C004C00C4018FDF787F91920FDF7FAFD42
:104EF000FDF736F8FDF758F9FCF79CFDFCF752FD7D
:104F0000FDF79EF8FCF7F4FEFCF7B0FDFCF72CFC77
:104F1000FDF776F8002211461020FCF7F9FDFFF7A7
:104F20000FFFFCE7000FFF1FF0B585B0144D154CC7
:104F30002A78910060500521501CFBF788F92970F0
:104F400000206E46810062587250401C0528F9DB33
:104F5000002100200422571A09E0421C850092001B
:104F60007459B3589C4201D97351B450401C8742C4
:104F7000F3DC491C0429ECDB029805B0F0BD00000D
:104F800004010020E405002010B5002802D000F044
:104F900009F810BD0520002240210007FDF7C3FFDE
:104FA00010BD000010B500280BD001460548FBF7E6
:104FB0004EF9401E0449C86240084863496B0348E3
:104FC000816410BD00093D000044014054040020EC
:104FD00010B5014600F09EFA10BD10B504462146FA
:104FE000204600F097FA214600F094FA10BD000028
:104FF00070B50A4CE08B401C80B2E083012801D1DF
:1050000000F032F8E08B322806D3054800254573BE
:105010000020FFF7B9FFE58370BD0000EC01002020
:105020009404002070B50A4C208C401C80B220846F
:10503000012801D100F010F8208C052806D305487E
:10504000002545730020FFF79FFF258470BD0000F9
:10505000EC0100209404002010B50520012240211D
:105060000007FDF760FF10BD10B5052001224021AB
:105070000007FDF758FF10BDF8B5154CFF26217845
:10508000204600259136808C0127002908D0401D3C
:1050900080B2A0847D21C900884207D3257005E035
:1050A000401F80B2A084B04200D82770A08CFFF7C8
:1050B0006BFF608C401C80B26084C82807D300203E
:1050C000FFF762FF6584A684277002484573F8BD28
:1050D000EC0100209404002070B5174C00252089B5
:1050E000002814D1E088022806D3E58013484573D0
:1050F0000020FFF749FF70BD0F4940002A31085AD0
:10510000FFF742FFE088022801D2401CE08020899E
:10511000401C81B22181094817224038806C00F080
:105120004BF92089172802D10020FFF72DFF208995
:105130001928E0D3258170BDEC01002094040020E3
:1051400070B5174C0025A089002814D16089062865
:1051500006D36581134845730020FFF715FF70BD26
:105160000F494000F631085AFFF70EFF6089062804
:1051700001D2401C6081A089401C81B2A1810948F4
:1051800017224038806C00F017F9A089172802D147
:105190000020FFF7F9FEA0891928E0D3A58170BD92
:1051A000EC0100209404002070B5174C0025A08865
:1051B000002814D16088032806D3658013484573FE
:1051C0000020FFF7E1FE70BD0F4940002E31085A64
:1051D000FFF7DAFE6088032801D2401C6080A088B7
:1051E000401C81B2A180094817224038806C00F031
:1051F000E3F8A088172802D10020FFF7C5FEA08899
:105200001928E0D3A58070BDEC0100209404002093
:1052100070B5174C0025208A002814D1E089032896
:1052200006D3E581134845730020FFF7ADFE70BD3E
:105230000F4940003431085AFFF7A6FEE0890328E1
:1052400001D2401CE081208A401C81B221820948A1
:1052500017224038806C00F0AFF8208A172802D15E
:105260000020FFF791FE208A1928E0D3258270BD27
:10527000EC0100209404002070B5174C0025208B11
:10528000002813D1E08A092806D3E5821348457324
:105290000020FFF779FE70BD11494000085AFFF762
:1052A00073FEE08A092801D2401CE082208B401C5A
:1052B00081B22183094817224038806C00F07CF8C5
:1052C000208B172802D10020FFF75EFE208B1928C3
:1052D000E1D3258370BD0000EC0100209404002080
:1052E000EE02002070B5174C0025A08A002814D1CA
:1052F000608A032806D36582134845730020FFF7B0
:1053000043FE70BD0F4940003A31085AFFF73CFE9A
:10531000608A032801D2401C6082A08A401C81B2AE
:10532000A182094817224038806C00F045F8A08A15
:10533000172802D10020FFF727FEA08A1928E0D302
:10534000A58270BDEC0100209404002070B5174CBC
:105350000025A08B002813D1608B072806D3658316
:10536000134845730020FFF70FFE70BD1149400040
:10537000085AFFF709FE608B072801D2401C6083A2
:10538000A08B401C81B2A183094817224038806C51
:1053900000F012F8A08B172802D10020FFF7F4FDCF
:1053A000A08B1928E1D3A58370BD0000EC0100207B
:1053B000940400200003002010B50B46114600287D
:1053C00005D0CA1A5043FAF742FF0149486310BD9D
:1053D0000044014000B516490300FEF7A1FC110C82
:1053E0000A0D10131F22250C0C0C0C0C0C1C16198A
:1053F0000C000120487300BD0220487300BD03204B
:10540000487300BD0420487300BD0F20487300BDE1
:105410001020487300BD0E20487300BD052048735E
:1054200000BD0620487300BD0720487300BD000082
:105430009404002070B501250400ED074C4020D4F1
:10544000441A01D2001B0919C60D4B00F2B2FF2A03
:1054500029D01B0E2CD000020C02D31A2C43DC40A6
:105460002843051910D2280A02D3401C6D0611D01A
:10547000761EF6058019FF2A00DA70BDC00DC00542
:1054800070BD694000F0DCF801200543C541521CA5
:10549000761CE8E764089C40C90161408900E7D1B7
:1054A0000124A043E4E71B0E440200D0034870BD72
:1054B000002AFCD1C00FC00770BD00BF0000C07F34
:1054C00001230200DB050A430DD4DA4203D49A42D9
:1054D00007D488427047D84214D4D94212D48842A3
:1054E000704780427047DA4203D59A42F9D581422B
:1054F00070475B004200DA4204D24A00DA4201D22D
:105500008142704710B5024AFBF7D0FB10BD00BFC7
:105510000900160470B5420064414B005C41120E54
:1055200039D01B0E38D0FF2A3CD0FF2B3AD0400296
:105530004902400A490A060045184E43000A090A72
:10554000D2184843ED017F3A0104731A4019190C2F
:105550004318990F04D001215B0849075B1A521CBC
:10556000D80904D3401CF50301D19D0607D0FF2ABA
:1055700008D2D50506D0E4072043401970BD0125A7
:10558000A843F4E7002A01DCE00770BD2402FF20F5
:105590002043C00570BD1B0EFF2A03D0FF2B01D096
:1055A000E00770BDFF2645003606B54206D84D001F
:1055B000B54203D8D218FF2A00D0E7E7004870BDF3
:1055C0000000C07F01230A00DB0502430DD4DA424C
:1055D00003D49A4207D481427047D94214D4D842A6
:1055E00012D48142704789427047DA4203D59A4209
:1055F000F9D5884270475B004A00DA4204D2420083
:10560000DA4201D2884270474840414010B5024A10
:105610004840FBF74BFB10BD0900160470B501258F
:10562000ED07684004004C4002D5694000F008F8DE
:10563000FFF706FF70B501250400ED074C4022D4AA
:10564000441A02D26C40001B0919C60D4B00F2B27D
:10565000FF2A4BD01B0E50D000020C02D31A2C4351
:10566000DC40A843051B05D5AD0019D36D08761E97
:10567000521E37D0F605280A01D2801970BD70413C
:105680006D0603D070BD6940FFF7DAFE9C40090249
:105690006140490001D0401E70BD0124A04370BD8F
:1056A0006D081DD001202B0C01D12D0410302B0EC4
:1056B00001D12D0208302B0F01D12D01001DAB0FA0
:1056C00001D1AD00801CEB0F01D16D00401C6D00BD
:1056D000361A121A680AF5054019012A02DB70BD54
:1056E000002070BDC036300AC00770BD1B0E4402DA
:1056F00001D1FF2B00D1024870BD002AF0D070BD4F
:105700000000C07F1C0FFF1F300FFF1F440FFF1F43
:10571000580FFF1F6C0FFF1F1C0FFF1F1C0FFF1FD9
:105720001C0FFF1F00093D0000127A000024F40046
:105730004086510100366E013F065B4F666D7D0766
:105740007F6F777C395E79710000000000000000F7
:105750000000000000000000000000000000000049
:105760000000000000000000010000000200000036
:105770000300000004000000060000000700000015
:10578000080000000900000000093D0000127A0036
:105790000024F4004086510100366E0100093D00EE
:1057A00000093D0000093D00818283848586878849
:1057B000898B8C8D8E8F919293959697999A9C9DBB
:1057C0009FA0A2A3A5A7A8AAACAEB0B2B3B5B7B923
:1057D000BCBEC0C2C5C7C9CCCED1D4D7D9DCDFE2EC
:1057E000E6E9ECF0F3F7FAFE0858000800000020A4
:1057F000AC040000120E000804590008AC0400209C
:10580000240600000401000801D43204021D01CB6B
:10581000803E04812BC0413C13C4052320F42A2080
:105820000C5AD40C593802103F580C9A99193ECD95
:10583000CC4C3E9A9999085A1950492C1914223D7A
:105840009B48437C69443240995069181A80182952
:105850000401180338FFFF0223013A902518092C90
:1058600009270527052C090A400C082C094C0A4C6D
:105870000A2C092C082FBF0D6E0F591004659914BE
:105880006E0F2920880BBF0D3F0CBF0D59103F0C28
:10589000143AE9048559104C0A2B5910021C6E0F5A
:1058A000E9186B6E0F40091456091458299C495683
:1058B000292E88095A125A1299145910602D6E0F08
:1058C000BF0D4E2936A119C019C8494449D22BE948
:1058D0000A222984296229AA29E2C91CA123C842D3
:1058E00033E14322411AA004791022401A80047146
:1058F00004C1366E0112F012081AF8041AFF0401EE
:045900008F00000014
:04000005080000C12E
:00000001FF
