:020000040800F2
:10000000D80A002081010008213900087535000850
:1000100000000000000000000000000000000000E0
:100020000000000000000000000000006B39000824
:100030000000000000000000693900086D39000868
:100040009301000893010008930100089301000840
:100050009301000893010008930100081923000888
:100060000000000093010008930100080000000058
:1000700093010008930100089301000800000000AC
:10008000930100089301000800000000930100089C
:10009000000000009301000893010008930100088C
:1000A000000000009301000800000000213C00084F
:1000B00093010008000000000000000000000000A4
:1000C00000F002F800F030F80CA030C8083824180E
:1000D0002D18A246671EAB4654465D46AC4201D180
:1000E00000F022F87E460F3E0FCCB6460126334282
:1000F00000D0FB1AA246AB4633431847C855000050
:10010000E85500000023002400250026103A01D302
:1001100078C1FBD8520700D330C100D50B607047BF
:100120001FB51FBD10B510BD00F012FE1146FFF740
:10013000F7FF00F099FE00F02AFE03B4FFF7F2FF8C
:1001400003BC00F05FFE000070B505460C46164685
:1001500002E00FCC0FC5103E102EFAD2082E02D3AB
:1001600003CC03C5083E042E07D301CC01C5361FBE
:1001700003E021782970641C6D1C761EF9D270BDD5
:100180000748804707480047FEE7FEE7FEE7FEE72F
:10019000FEE7FEE704480549034A054B70470000A7
:1001A00075390008C1000008D8060020D80A0020D0
:1001B000D8060020034610B50B439B070FD1042A35
:1001C0000DD308C810C9121FA342F8D018BA21BA1B
:1001D000884201D9012010BD0020C04310BD002A73
:1001E00003D0D30703D0521C07E0002010BD0378D2
:1001F0000C78401C491C1B1B07D103780C78401C51
:10020000491C1B1B01D1921EF1D1184610BD01E003
:1002100004C0091F0429FBD28B0701D50280801C72
:10022000C90700D00270704700290BD0C30702D065
:100230000270401C491E022904D3830702D50280A4
:10024000801C891EE3E70022EEE70022DFE70022A0
:1002500003098B422CD3030A8B4211D300239C4603
:100260004EE003460B433CD4002243088B4231D37B
:1002700003098B421CD3030A8B4201D394463FE00F
:10028000C3098B4201D3CB01C01A524183098B426F
:1002900001D38B01C01A524143098B4201D34B0158
:1002A000C01A524103098B4201D30B01C01A5241BB
:1002B000C3088B4201D3CB00C01A524183088B4242
:1002C00001D38B00C01A524143088B4201D34B002B
:1002D000C01A5241411A00D201465241104670479D
:1002E0005DE0CA0F00D04942031000D340425340A2
:1002F00000229C4603098B422DD3030A8B4212D362
:10030000FC22890112BA030A8B420CD38901921193
:100310008B4208D3890192118B4204D389013AD0D0
:10032000921100E08909C3098B4201D3CB01C01AA5
:10033000524183098B4201D38B01C01A52414309B8
:100340008B4201D34B01C01A524103098B4201D3A6
:100350000B01C01A5241C3088B4201D3CB00C01A13
:10036000524183088B4201D38B00C01A5241D9D22B
:1003700043088B4201D34B00C01A5241411A00D2AC
:100380000146634652415B10104601D34042002BA8
:1003900000D54942704763465B1000D3404201B527
:1003A0000020C046C04602BD70477047704700003D
:1003B0000246C80FC00781434B0030B54B405B007D
:1003C0009B0D20D01923DB06C91801231B05994278
:1003D00020DB0324A40704251346AB400BD3002BDA
:1003E00004D1EB0613409B00E34204D401246407CC
:1003F000002312195941FF231B0599420BD2C90052
:100400000143500F09E0CB0204D501430803024326
:1004100005D0054830BDFF21C905084330BD084659
:1004200007210905884330BD0000C07FF0B50C46A8
:10043000871A9C410D46861A9D4103D2C01BA141DB
:10044000D21963410D0D1F0DC94EEC1BAE435CD09C
:100450007F057F0D0026002F51D02D05AC46A94306
:10046000DD020123ED0A1B051D4320231B1B24D4A1
:100470001746E740381871412F46E740CC199D4098
:100480002818314661410C0D27D161449A4013D59B
:100490000023401C594152000ED140084000012267
:1004A0004B005205D34207D305204007C14201D576
:1004B000B04900E0B0493046F0BD6B00002A00D0E2
:1004C00001229A181F23203C1B1B01D5002302E0A8
:1004D000E540281871410C0DD7D0012424050919D5
:1004E000C407CD0740084908E40F28436144002CA5
:1004F000D5D00024401C61419A40D0D1CDE76A0597
:10050000520DD9D1C90FC907D5E79C4D4E0000281F
:1005100001D0012400E0002434195F00002A01D03A
:10052000012600E00026BE19954FAC420CD8AE4221
:100530000AD8B44206D001256D05EC42BCD0104665
:100540001946F0BD9942FCD000203946F0BDF0B507
:100550001FB40C460F46811A9F412546861A9D41BD
:1005600006D20125ED076F40401ABC4152187B416D
:10057000210D1E0D8D1BAC467D4D8D437ED0750526
:100580006D0D7CD00D05AE46AC431B031B0B794DA6
:1005900052429D41202366469B1B14D31746F740C9
:1005A000381800260090744160462F460741E41930
:1005B00000989D402818664116D4714671189A40DB
:1005C00025D5012320E093182A466A415200002BCA
:1005D00000D0521C1E23203E9B1B002B61DD3541A9
:1005E000EE1728186641E8D5001876415B1C9A4042
:1005F00000D3401C4B05F3181524E34010D3002B07
:1006000052D071467118D30FC01802D3491C05B0DF
:10061000F0BD0123DB079A42F9D140084000F6E71C
:1006200001225205B21801D1002853D00123CC0A6F
:10063000DB029943891E002A08D1020C03D0020C68
:100640000004103902E00246002020390023550B37
:1006500005D112020823550B01D152010D23550C6F
:1006600001D112011B1DD50C01D192009B1C150D4F
:1006700001D152005B1C2025EE1A01E02CE022E0A3
:100680000546F54015439840CA1AE1076918130555
:10069000C918002ABBDA032040070818C10FC90790
:1006A0000FE071466118B2E7F10740080843711086
:1006B00071444A000CD001235B059A42A7D2C90FAE
:1006C000C9070020A3E74905490D26D1002001E014
:1006D0000028F4D100219AE7284D6600002801D0B7
:1006E000012100E0002171185F00002A01D00126DD
:1006F00000E00026BE19224FA94210D8AE420ED803
:10070000B14208D001256D05E94206D01946A8027C
:10071000414010467BE79C4201D0214677E700200C
:10072000394674E710B50C465C4005D50124E40752
:100730006340FFF70CFF10BDFFF778FE10BD30B42B
:100740000C465C4004D50124E407634030BC6DE6F0
:1007500030BCFCE670B50124E40761400D465D4005
:1007600002D4FFF763FE70BD6340FFF7F0FE70BD7B
:10077000FF0700000000F0FF0000F07F0000E0FF36
:100780000000F87F1F22030C02D10F22000402D0C8
:10079000030E03D004E00020014670470002083A2F
:1007A000030F01D10001121F830F01D18000921E9F
:1007B000002801DB4000521E120551184205C012EC
:1007C000411810467047C10FC90700D040420122AE
:1007D00092071143D6E701218907D3E7F0B58B4C87
:1007E0000F09254689B0BD437BD01D092646AE437F
:1007F000FAD00E465E402740F60F3E43254071D0AA
:1008000024012142FBD0FF24AD19A4042D1B039524
:1008100001252D05DB02DB0AC9022B43C90A294346
:100820001E010901040F130F050121431701880B55
:10083000820391432D098C46A90B1E438A039543DD
:10084000B30B9A0396433F09BA0B9403A74302964E
:100850002E467E430497B6464E19D7190C4601968C
:10086000544305977E43371B7646BF1B3601B64679
:10087000BE0B361900967646BC043719009C01D38E
:10088000641C00946400002F01D001263443029EB2
:10089000049F754366467E430496760034196E00C5
:1008A00034190094029C019E1C196643751BAE46C8
:1008B000069465464519059C05956C435943754654
:1008C0000891691A0191049E01465143A41B0491A9
:1008D000611A009C0791E10605D0610901221143CC
:1008E00002E072E06EE06109089D00272C0A2D06E7
:1008F0006918049D7C412A0A2D066918019D6241F0
:10090000AC0DAD026D185441079A910D9202551924
:100910006141029A644658435443069B059A5A43E0
:10092000121A131B9A0E9B015B187A41010B0005EA
:10093000C3185141220A200644195A419A4200D252
:10094000491C01204002814203D315230226F643AD
:1009500002E014230326F6432020C51AA9401746B7
:10096000AF40DA400A4320460399D840091473186F
:1009700019055118039A3843D2075140AC4009D0A9
:100980000122944006D30022401C5141002C01D189
:10099000400840001E4A934212D301220398920657
:1009A000904207DB0520400709181A480143C0128E
:1009B000414004E0032040070818C10FC907002088
:1009C00009B0F0BD0020F107FAE705180C464C41CC
:1009D00011486D42A04115D394181A465A410E4849
:1009E000644290410ED301204A004005824209D35F
:1009F0005A00824206D35940C90F084AC90700204D
:100A00001143DDE700200649DAE700000000FF0798
:100A1000FE070000FFFFFF7F0000E0FF0000F07F07
:100A20000000F87F0121C9050123411842001B067F
:100A3000D3185B0E0AD0C1100722D20689184007CE
:100A40005242D14201D5520089187047090208D597
:100A50000146002A03D0C10FC90700207047104685
:100A60007047420202D00020024970470721090561
:100A70000143F4E70000F87FF0B5FF252D04C60917
:100A8000C209FF2704462E400137CB093E434840A8
:100A90002A402B400746002A6BD0002B69D0AA427F
:100AA00067D0AB4265D0002800DA32460125ED055B
:100AB00029432C4309022002090AD21A4B0C7F2435
:100AC000E31A434C000A7C44E35C7D24240412199D
:100AD00014145B00A218884201D3521C00E04000AD
:100AE00049420C465C4324115C43DB016415E31866
:100AF000040A5C43C502200D0C4644436419250AD0
:100B00005D432303EC0C0D46654300030019EB180D
:100B10004C42A34201D35B18401CD4052018002B83
:100B200007D05B00C91804D3401C002901D140083C
:100B300040003F2189048A4209D3002A08DC1106BB
:100B4000090F04D0032149074018C00FC007F0BDAA
:100B500001224100120689187F2252069142F6D2E4
:100B600005214907C84201D59010F0BDFF20C005FE
:100B7000F0BD002F00DA32461648AA4207D2AB4237
:100B800005D21902090E17D0F80FC007F0BDFF25D6
:100B900063002D06AB42F9D84900A942F6D8AB4212
:100BA00001D1A942F2D0A94201D1002101E06100A6
:100BB0004908D0050843F0BD1102090EFBD0FF2003
:100BC0000243D005F0BD0A460146104654E7000036
:100BD000BA4B00000000C07F0102C21504D00123FF
:100BE000DB071943002A0ADB9E239A1A02D408461F
:100BF000D0407047FF2241001206914201D90020E7
:100C00007047C017C04370471F22030C02D10F2248
:100C100000041CD0030E01D10002083A030F01D1D9
:100C20000001121F830F01D18000921E002801DBFA
:100C30004000521ED205511802125118192290403C
:100C400004D3491C002801D14908490008467047CF
:100C5000C10FC90700D04042012292071143D3E7D8
:100C600001218907D0E7000010B5FF22C30D134012
:100C700009D05A4007D0914205DA5C42A14202DD18
:100C8000C905081810BDC40FE407002B06D0002AC0
:100C900006D0002902DBFF20C0050443204610BD1A
:100CA0004102FCD0004810BD0000C07F10B5FF23FA
:100CB0001B0644009C421DD84C009C421AD8034697
:100CC000124A0B4307D4401A02D3EFF3008010BD41
:100CD000EFF3008010BD081A06D2EFF30080012167
:100CE0009043C907084302E0EFF30080904380F38C
:100CF000008810BD0D231B041A4204D011460020A9
:100D000000F006F810BD00F01BF810BD00000090C8
:100D1000C80212D54803400F002804D0C803C043BE
:100D2000012188407047EFF3008000010009032192
:100D30000907084380F300887047002070470000CF
:100D400010B5024800F02BF810BD00000000C07F75
:100D5000754600F053F8AE46050069465346C00894
:100D6000C000854618B020B5FFF714FA60BC002714
:100D70004908B6460026C0C5C0C5C0C5C0C5C0C567
:100D8000C0C5C0C5C0C5403D49008D46704710B5BF
:100D90000446C046C0462046FFF7CFF910BD10B547
:100DA0000C461107090F092904D00A290AD008297D
:100DB0000CD104E011460820FFF7AAFF06E0510617
:100DC00006D501E0510601D50120C007214610BD1E
:100DD000D10607D501010909CC084907000E000614
:100DE000044309E0410F20024907000A0143200E95
:100DF00000061D22D14101430846E7E7004870473D
:100E00007806002001491820ABBEFEE7260002004C
:100E1000704770B58C180578401C6B075B0F01D1CB
:100E20000378401C2A1106D10278401C03E00678A2
:100E3000401C0E70491C5B1EF9D12B0705D4002302
:100E4000521E0DD40B70491CFAE70378401CCB1AD4
:100E5000921C03E01D780D70491C5B1C521EF9D5D5
:100E6000A142D8D3002070BD10B50122D2060020C7
:100E7000074B810054585C50401CC0B23028F8D356
:100E8000012004494007886003F0B8FF002010BD2E
:100E90000000002000ED00E008B50021009101688D
:100EA0008A68D243D2071ED08A68104B1A400123A9
:100EB000002A08D0816B102211438163C16B194352
:100EC000C163012008BD8868184388600948084943
:100ED0000068FFF7BCF9009002E00098401E009007
:100EE00000980028F9D1002008BD000015000080FE
:100EF00040420F0054030020F0B5002314E09A0094
:100F00008458944627461E465A1C06E095004559CB
:100F1000A54201DA2C461646521C8A42F6DBB20084
:100F20008750624684505B1C8B42E8DBF0BD0000BA
:100F300010B586B010494B6B202213434B63496BAD
:100F4000114000910024022101220C4B002809D0FD
:100F5000019102940392049101A9184601F00AFF3D
:100F600006B010BD019102920394049101A91846A4
:100F700001F000FFF4E700000010024000140050F0
:100F800010B50120FFF7D4FF00F016F8094C01223C
:100F90001146204601F07FFF00F00EF800220121EB
:100FA000204601F078FF00F007F80020FFF7C0FFAF
:100FB00010BD000000140050002000BF401CC0B253
:100FC0000A28FAD37047000070B50446144D00207B
:100FD0002870144E200605D501220221304601F06A
:100FE0005AFF04E000220221304601F054FFFFF7CF
:100FF000E3FF01221146304601F04DFFFFF7DCFF11
:1010000000220121304601F046FF6006040E2878D8
:10101000401CC0B228700828DCD3FFF7B1FF70BDB8
:10102000CC0000200014005010B5084C0022022112
:10103000204601F030FFFFF7BFFF002201212046CC
:1010400001F029FFFFF7B8FF10BD000000140050A9
:1010500010B50B4C00220221204601F01CFFFFF7C7
:10106000ABFF01221146204601F015FFFFF7A4FF58
:1010700001220221204601F00EFFFFF79DFF10BD67
:101080000014005070B501F0A5F80121002002F015
:1010900021FB0121084602F01DFB0121022002F084
:1010A00019FB0121032002F015FB0021062002F0AC
:1010B00011FB0021052002F00DFB00221146104615
:1010C00002F07AFA294C2A4D2A4801F01DFF207DB2
:1010D000030002F0B9FD0928060C1228282823185D
:1010E0002800052201210F2002F066FA1BE00522EC
:1010F0000121022002F060FA15E005220121002002
:1011000002F05AFA0FE005220121032002F054FAFE
:1011100000F02EFB207D002826D004E001210522CE
:10112000084602F049FA00F0C5FD2878002806D1EB
:1011300000221146102000F0EFFC01202870FF264D
:10114000F536304601F086FC00221146104602F0CA
:1011500033FA00F0AFFD304601F07CFC002211466E
:10116000102000F0D9FCAFE770BD00007C04002027
:1011700058030020AC05002001B582B0012301AA6C
:1011800002A9024803F0CAFD01980EBD100100201B
:1011900070B51348C06E0121C9050025114C884265
:1011A00001DAE57070BD1049884202DBFF20E07073
:1011B00070BDFFF761FC0321FFF756FD0B4904F0FA
:1011C000A7F8FFF709FDC0B2082800D908200028B9
:1011D00004D001218140491EE17070BDE57070BDF1
:1011E000DC030020CD00002000401C46CDCC4C3F4D
:1011F00070B51E48C268FF230146C3330024803106
:101200001B4D9A4203D9CC616C71EC8170BD184BB7
:10121000CA695B79002A1DD0144AC032002B11D054
:10122000EB895B1C9BB2EB81C66A9E42EED8C36819
:10123000322B02D3C368323BC360CC6194756C71AE
:10124000EC8170BDC1683231C16094750120687154
:10125000EC8170BD002BFCD0C168322902D3C1687B
:101260003239C1606C71EC8170BD0000DC0300207C
:10127000A801002070B5FFF7F3FC06460D4904F005
:10128000B7F80446304603F011FE0B4904F0B0F8FD
:101290000546304603F00FFE084904F0A9F8294638
:1012A00004F036F8214604F033F8054904F030F82C
:1012B00070BD0000D26F1FBEB67A7338E46A0FB2F9
:1012C000CD4C544310B50648007D062806D104488D
:1012D000A038406B002801D000F0DBFC10BD0000FE
:1012E0007C04002010B513480021007D124A042818
:1012F0000CD091801170062803D0052801D0002859
:1013000003D10021042002F0E5F910BD9088FA30E5
:1013100080B29080FF23F5339842F6D39180107805
:10132000002805D000211170042002F0D3F910BD6F
:101330000121F8E77C04002020030020F8B500F02C
:10134000D3F80646634D644C287D082804D0022853
:1013500002D0002803D00EE00020E062F8BD00F0CB
:1013600007F95C4F203FB86400F0C8F8B96C8842B8
:1013700001D20020E0625748297DA0380090002962
:1013800010D10098C068FFF76BFC5449096F04F056
:10139000BFF8074600F032F9394603F0FFFF01D2EB
:1013A0000020E06260782246002802D19662012087
:1013B0005070906A864201D9311A00E0811B009872
:1013C000446A7D20C00044430098876A44484743EC
:1013D000404801239B02203099421DD90023144626
:1013E000D3622363297D042903D0052901D006296E
:1013F00010D12B7539494A680099CA60837500215C
:10140000042002F067F900221146102000F084FB4E
:1014100000F02EFCA662F8BD314616469162297D89
:10142000002908D0042906D005294AD00629F2D17E
:10143000FFF748FFF8BD04291FD0002C07D0F16A40
:10144000A14204D2FA31F162A14200D9F462002C27
:1014500013D0F16AA14210D3042129751F494A68AB
:101460000099096A8A4201D9002181750020306300
:1014700000221146102000F04FFB002C01D0FFF796
:1014800031FF002C02D0287D0428D3D1002F07D0B3
:10149000306BB84204D2FA303063B84200D93763B7
:1014A000002FC7D0306BB842C4D305202875012166
:1014B000042002F00FF900221146102000F02CFB4E
:1014C000F8BD0648006807498842F9DA0620287501
:1014D000F8BD00007C040020200300205C030020F5
:1014E00060EA000000005C4210B5072000F02EFA10
:1014F0000149486210BD00005C030020F8B51A4C99
:101500001A48C068FFF7ACFB0090A168009803F090
:1015100045FF03D82069FFF75FFBF8BDE16800983D
:1015200003F0BEFF03D86069FFF756FBF8BDA16862
:10153000E0680E4603F0ECFF216905460F4660693E
:1015400003F0E6FF04463146009803F0E1FF214630
:1015500003F04EFF2946FFF78FFA394603F0D8FE15
:10156000FFF73AFBF8BD000020030020DC03002059
:10157000F8B51E48026C1E4800901E481E4E817829
:10158000002906D18B00F250491C0329FADB012106
:10159000817034681046214603F0BAFF009903F0C9
:1015A00027FF214603F0B4FE30600124A5007759DF
:1015B000601E80003058394603F0AAFF009903F0FE
:1015C00017FF394603F0A4FE7051641C032CEDDBB9
:1015D000B068FF21C905C84201D30020F8BD3F21F2
:1015E000090603F095FEFFF7F7FAF8BD5C0400204A
:1015F000ABAAAA3E2003002028060020F8B5174C0D
:101600001748C068FFF72CFB0090A169009803F011
:10161000C5FE01D8206AF8BDE169009803F040FFDB
:1016200001D8606AF8BDA169E0690E4603F070FF59
:10163000216A05460F46606A03F06AFF0446314698
:10164000009803F065FF214603F0D2FE2946FFF71C
:1016500013FA394603F05CFEF8BD000020030020B9
:10166000DC03002010B50C49087D002806D00228B4
:1016700004D0082801D100F07BF810BD07480068AD
:10168000074A9042F9DB08200875002211460F2016
:1016900000F042FA10BD00007C0400205C03002032
:1016A0000000164470B50F48C069002818D10D48D5
:1016B0002030007D002813D10B4D68682C46803403
:1016C000E16888420CD0094E3078401CC0B23070BE
:1016D000032805D900F026FCE0686860002030701F
:1016E00070BD00005C0400205C0300209C01002011
:1016F000F8B505461B497F201B4CC0058D4203DD14
:10170000256060602846F8BD7F20C005E060174F67
:1017100027617F21C905606803F0FAFD0646394656
:10172000304603F0F5FD01463046FFF7A5F90746C0
:101730006061206800900146284603F0E9FE3946C2
:1017400003F056FE009903F0E3FD054620607F207C
:101750003946C00503F0DCFE314603F049FE606007
:101760002846F8BD00001644280100200000204152
:10177000FEB50024009401940294002502F020FE9E
:10178000002855D0732804D0D22806D0F5280BD1D4
:1017900007E00098401C009006E00198401C019072
:1017A00002E00298401C02906D1C0A2DE6DB03212A
:1017B000684603F0F7FA4D4D012804D0022805D001
:1017C000032808D105E07320E87504E0D220E8750D
:1017D00001E0F520E87500F0FDFCE87D0526360700
:1017E000434F732825D0D22823D001222021384608
:1017F00001F051FB02F07AFD00228021304601F019
:101800004AFB00222021384601F045FB374E203E9E
:1018100034753848C06AFFF7DFF9FF213731884255
:101820000DD902203075002211460F2000F074F906
:10183000FEBD01228021304601F02DFBDAE7782839
:1018400002D208203075FEBD2A48EA7DC11D0F2353
:101850001425F9318030732A1CD0D22A30D0F52AD1
:10186000F1D1254A8264C464244A0265244A42664E
:10187000C465244A82677D221201C267192008606C
:1018800018224A608860204888632048486400F035
:101890007BFCFEBD1E4A82641E4AC26404651E4A69
:1018A0004266C465642282679622C2670D604B60FF
:1018B0008D601A4888631A48486400F041FCFEBDF8
:1018C000184A8264184AC2640465184A4266C465AC
:1018D000C8228267C2670D604B608B6014488863C2
:1018E0001448486400F02CFCFEBD00009C0400205D
:1018F000000400505C030020000034420000C84196
:1019000000803B456C0700003333F340000010417A
:101910000000F040CDCCCC3D00803B44333343400D
:1019200000009040000070419A99193E00A00C45BB
:10193000666606400000C04010B5FFF791F9024905
:1019400003F056FD10BD0000510AA53D10B5134926
:101950000A68824212D00860114A0021916211493E
:1019600092144A60086008460C3000F0EFFD002831
:1019700004D00D4801210175FFF784FB09480C30A4
:1019800000F0D8FF07480A210C3000F073FF05482B
:101990000C3000F067FE80B210BD0000C0000020D7
:1019A00000240140B80400207C040020F8B51F4941
:1019B0000A6B0120000502430A630A6B82430A6333
:1019C0001A4940310A6802430A60096801400091DF
:1019D000184C174F2760204600F090FD164D012649
:1019E000002802D02E75FFF74DFB2760032000076B
:1019F00060600020A060E0602661042161612676BD
:101A00006076A076FF21C231E16120620949203170
:101A10000871A0620620E062064800F027FE002858
:101A200002D02E75FFF72EFBF8BD0000001002401B
:101A300000240140C40400207C04002000B585B0CF
:101A40009F2000900020029003200190052069460D
:101A5000000701F08FF905B000BD10B50121052088
:101A60000903000701F010FA002801D0002010BD82
:101A7000012010BD70B586B01548416B012421438B
:101A80004163416B21400091426B20210A43426334
:101A9000406B08400090C801019003940325049511
:101AA00000260296052001A9000701F063F9042031
:101AB0000190039604950294064C01A9204601F07A
:101AC00059F900220421204601F0E5F906B070BD65
:101AD000001002400014005010B586B00D48426B53
:101AE00001210A434263406B08400090402001906E
:101AF000029100200390022004900524240701A9EC
:101B0000204601F037F900224021204601F0C3F9B8
:101B100006B010BD00100240F8B50F463A4D696995
:101B200000291ED02C46C034617C002919D1374EC3
:101B3000002A0CD0030002F087F8111415191D219A
:101B40005B5F6314141414141457252914000F2810
:101B500003D0102003F0ACFB02E00F2003F0A8FB41
:101B60006682F8BD012003F0A3FBF8BD022003F05C
:101B70009FFBF8BD032003F09BFBF8BD042003F09E
:101B800097FBF8BD0F2003F093FBF8BD102003F086
:101B90008FFB002F08D0E868FF2200B2E1326421F9
:101BA00003F016F96082F8BD17488030016A0029F9
:101BB00008D0406A030002F047F80604070A0D1037
:101BC0001404F0E76682F8BD11486082F8BD114840
:101BD0006082F8BD10486082F8BD0F489D30608279
:101BE000F8BD0E486082F8BD0E2003F061FBF8BD21
:101BF000052003F05DFBF8BD062003F059FBF8BD9E
:101C0000072003F055FBF8BDDC0300206E0F000039
:101C10002C0800002C0900004C0A00003F0C0000BA
:101C200010B586B01048426B20210A434263406BD6
:101C300008400090032001900120029000200390B2
:101C400002200490094C01A9204601F093F80122DA
:101C50001146204601F01FF901220221204601F021
:101C60001AF906B010BD0000001002400014005028
:101C700010B5EFF3108472B6FFF7D6F94820FFF7DE
:101C8000A3F97120FFF7A0F9FFF7E2F984F31088B8
:101C900010BD10B5EFF3108472B6FFF7C5F94820F8
:101CA000FFF792F90020FFF78FF9FFF7D1F984F3DE
:101CB000108810BD70B5EFF3108572B6FFF7B4F958
:101CC0006820FFF781F9134C2078FFF77DF9FFF7C3
:101CD000BFF9FFF7A9F96A20FFF776F96078FFF7F7
:101CE00073F9FFF7B5F9FFF79FF96C20FFF76CF96F
:101CF000A078FFF769F9FFF7ABF9FFF795F96E20C8
:101D0000FFF762F9E078FFF75FF9FFF7A1F985F3D4
:101D1000108870BDCD00002010B586B01248426B0F
:101D200001210A434263406B0840009080200190EB
:101D300003910020049002900C4C01A9204601F070
:101D400019F80B4902914021019101A9204601F0A7
:101D500011F8072001F018F900221146072001F0C0
:101D60001DF906B010BD0000001002400004005034
:101D700000002110F8B506460024064D0127305911
:101D8000401C02D02F75FFF77DF9241D342CF6D3AB
:101D9000F8BD00007C04002010B586B00446002188
:101DA000059114216846FEF750FA02210091019432
:101DB0000124029405A9684600F05EFE002803D0C5
:101DC00002480475FFF75EF906B010BD7C040020E0
:101DD000F0B5A3B022901648219034264C20343020
:101DE000209000246D461FE0002021990A19431E0F
:101DF00081000F19B74202D257586F5000E06B5064
:101E0000401C2028F4D322986A460119012000F0D2
:101E100017FF002807D00648012198300175FFF709
:101E200031F923B0F0BD803420988442DCD3F8E748
:101E3000E403002070B506460024084D3046FFF745
:101E4000C7FF342229463046FEF7B4F9002803D0F4
:101E5000641CE4B2022CF1D370BD0000E403002046
:101E600010B52F492D4A8A604268CA60CA680B467D
:101E7000803B5A60C2684A6182680A6102698A616D
:101E80004269CA61C26A4A63026A8A62026B8A63F1
:101E900000230B63426ACA6282690A62C0694862AF
:101EA000C868FF222D32642804D3C868FF24E134B7
:101EB000A04200D9CA6008693224E04202DB086906
:101EC000322800DD0B618B6A0120782B00D98862F3
:101ED0004B6A782B01D93C234B620B6A642B02D3EB
:101EE0000B6A934201D9C8230B62CB69042B00D93A
:101EF000C8618869002809D0C869012807D002286C
:101F000007D0032802D1FF209130C86010BDCA60FD
:101F100010BDFF205F30C86010BD0000AAAAAAAAA9
:101F2000DC03002010B50748816B491C816306481B
:101F300000F010F8054800F00DF8054800F00AF828
:101F400010BD0000DC03002000F0000800F80008CD
:101F500000FF000870B50546EFF3108472B609481B
:101F600000F0D2FF00F0F2FE2846FFF715FF2846EA
:101F7000FFF700FF2846FFF75DFF00F053FE84F3F4
:101F8000108870BDAC05002010B5EFF3108472B658
:101F9000034800F0B9FF00F005F884F3108810BD85
:101FA000AC05002070B51D4C1D4BE06B01689942DB
:101FB00007D1216C0A689A4203D1626C15689D4270
:101FC00015D0A360FF202D30E06001216161002069
:101FD0002061A061E1616063A16220633C21E16254
:101FE000C82222626162A063FFF79CFF70BD126B82
:101FF000096B006B02F06AFC002807D0012809D0A9
:102000000228F3D1606CFFF72BFF70BDE06BFFF788
:1020100027FF70BD206CFFF723FF70BDDC0300209D
:10202000AAAAAAAA10B50B48016A01242143016299
:102030000A480949016003214160FF2109018160CB
:1020400000F036FF002803D005480475FFF71AF8A2
:1020500010BD00004010024000300040AC050020E0
:102060007C04002010B500202849FF220A54401C9F
:10207000C0B20428FAD3264CA06900281FD0E0691A
:10208000012804D002280AD003281CD10FE0FF2029
:102090002D30E060E06880B201F000FC13E0FF202A
:1020A0005F30E060E06880B201F0F8FB0BE0FF20F9
:1020B0009130E060E06880B201F0F0FB03E0E0689E
:1020C00080B201F0EBFB0121002001F0DDFB1048A4
:1020D000012180304162206B002803D000210620BE
:1020E00001F0F8FA6069002804D00121072001F00E
:1020F000F1FA03E00021072001F0ECFA00210420AE
:1021000001F0E8FAFFF7D6FD10BD0000CD00002079
:10211000DC03002010B500F0B9F800F0E1F804216C
:10212000054801F0E9F9002804D0044801210175AF
:10213000FEF7A8FF10BD0000500500207C04002021
:1021400030B587B00E48416B012529434163406B90
:1021500028400190802002900220039000210491E9
:1021600005900695052002A9000700F003FE054C26
:10217000207D002802D1FFF7CDFF257507B030BDC7
:10218000001002409C04002030B587B00E494A6B15
:10219000022002434A63496B0140019120210291D0
:1021A00003900021049105900125069502A9074896
:1021B00000F0E0FD064C207D002802D1FFF7AAFFC9
:1021C000257507B030BD000000100240000400502B
:1021D0009C04002010B586B00D48426B02210A43D2
:1021E0004263406B08400090202001900120029043
:1021F000002003900491074C01A9204600F0BAFD8D
:1022000000222021204600F046FE06B010BD00004E
:10221000001002400004005001498863704700002C
:102220000004004070B58CB005461C2105A8FEF7DF
:102230000CF8002401940294039404940B2005905C
:10224000FF200130089009940A9506940C2007900D
:1022500001260B9605A800F087FF0B4D002802D041
:102260002E75FEF70FFF072001900294039404944B
:10227000002101A800F096FE002802D02E75FEF77E
:1022800001FF0CB070BD00007C04002008B50F48B1
:10229000C26B02210A43C263C06B084000900D4824
:1022A0000B4901600C49C1600521416000210161B9
:1022B00081604161816101F093F8002804D00748F2
:1022C00001210175FEF7DEFE08BD0000001002408E
:1022D0000004004050050020102700007C0400206E
:1022E00010B50B4860210160002181600161C1606F
:1022F00081614161416001460422403801F08CF85F
:10230000002804D0034801210175FEF7BBFE10BD73
:10231000900500207C040020F8B5194E3068194D56
:102320006968401A322803D217494020C860F8BDB6
:10233000164C0120E0608021154800F0A5FD0746FD
:102340004021134800F0A0FD874201D1012000E0A8
:10235000002032686968521A322A00D928702A7817
:10236000904205D03368591A322901D8226101E020
:10237000206128703068686003494020C860F8BD5B
:10238000DC000020C4000020001802405C04002093
:1023900000040050054900204860054841690422B6
:1023A000114341610348C10608607047B805002029
:1023B0000020024021433412054A002151600549A2
:1023C0004A6902231A434A61FF21016070470000F5
:1023D000B80500200020024070B500220C4C636953
:1023E00001252B436361EFF3108372B60125ED04E1
:1023F00008E040C940C0521CD2B21F2A02D166690F
:102400002E436661202AF4D383F3108870BD000048
:102410000020024003494A69CB141A434A61FF2154
:10242000016070470020024070B5044600F03AFD9C
:102430000419084D05E000F035FDA04201D303204A
:1024400070BD2869C043C003F5D50348286100204A
:1024500070BD00000020024011800000FEB504465F
:102460000020019025462035287D01281ED001201E
:10247000287520688168C943C90734D0A16BFF2241
:102480000132914302263143A163C1688907890F54
:102490000091C16889088900C16020688168D205FF
:1024A0001143816000F0FEFC07460FE00220FEBDF4
:1024B00000F0F8FCC01B022808D9A06B1021B04323
:1024C0000843A063002028750120FEBD20688068B5
:1024D0000028EDDB2068C168009A1143C160A06B41
:1024E000B043A06305E0A06B20210843A063012056
:1024F0000190002028750198FEBD0000F1B58AB05A
:102500000024114D05AE6F460A98FFF7A7FF00287B
:1025100002D001200BB0F0BDA868A10070504002AD
:102520007850641C052CEFDB05216846FEF7E4FCBF
:10253000029840122861E868686168680121C9034F
:10254000084368600020E5E740240140F8B5002515
:102550000022009204462034227D012A39D0012332
:1025600023750268966876076AD43A4F4E68BE4271
:1025700050D0966A0F78BB401E4396620123C26A10
:102580001B079A421FD0012A1DD0022A1BD0032A02
:1025900019D0042A17D0052A15D0062A13D0072AE5
:1025A00011D002688B6856697607760FB3420AD05D
:1025B0005369DB08DB005361006842690B7A5B07F3
:1025C0005B0F1A43426108680B2804D00C2802D024
:1025D0003BE00220F8BD204B9A680B2807D0012071
:1025E000800502439A6008680B2803D02DE0012083
:1025F000C005F6E71A4819490068FDF728FE0A21C8
:102600004843009002E00098401E00900098002887
:10261000F9D11AE0906A0E78B34098439062086846
:102620000B2801D00C2810D10B498A680B2804D044
:102630000120800582438A6007E00120C005F9E798
:10264000816B2022114381630125002020752846DB
:10265000F8BD0000011000000027014040420F00BB
:10266000540300200068006C70470000F8B5044671
:102670000025002C05D0A06B26462036002802D06D
:1026800007E00120F8BD0020E0633075204600F02F
:10269000A1F8A06B1022C00600287DDB20688168AD
:1026A000490779D4A16B1301994302231943A1630C
:1026B0008168C943C9070CD0C16818239943A3682E
:1026C0001943C16020680169636809010909194358
:1026D00001612068C1683D4B1940C160207EE168FE
:1026E00080030143607EA36A4703012B02D00123CC
:1026F0001B0300E000231F4323693943022B09D049
:102700000023194333795B001943A67E0123012E70
:1027100002D00AE00423F4E7002826D0A06B20268C
:102720003043A063E06B1843E063E0690646FF3E78
:10273000C23E02D0266A304301432068C6680E4379
:10274000C6600126E06A3607B04212D0012810D0D8
:1027500002280ED003280CD004280AD0052808D05F
:10276000062806D0072804D00FE00120000401430A
:10277000DBE720684669F608F6004661206846698E
:10278000A78D7F077F0F3E4346612068C068104ECB
:102790003040884209D100E011E00020E063A06BE6
:1027A00080088000401CA0630DE0A06B02218843DC
:1027B0001043A063E06B1843E063012503E0A06BC6
:1027C0001043A06301252846F8BD000019C2FEFF92
:1027D000E7FF3FC370B586B00546142101A8FDF799
:1027E00034FD21490A68012002430A600A68024058
:1027F00000921D4A403A936B03439363936B0340EB
:102800000093536B03435363526B024000920B6877
:10281000020513430B6009681140009101900320E9
:10282000029000260396052001A9000700F0A2FAF5
:10283000002000F0B5FD0E4C0C4820606660A660DC
:10284000E66040152061800060612020A0610320C7
:102850000003E061204600F099F8204600F0C6F839
:102860002C63656206B070BD401002400800024053
:1028700034060020F8B504460D4627466069203727
:1028800008280BD02068C068C00709D0A06B2021A1
:102890000843A063002038750120F8BD082600E039
:1028A0000C2600F0FFFA009011E0681C0FD0002DFC
:1028B00005D000F0F7FA0099401AA84207D9A06B9A
:1028C00004210843A063002038750320F8BD206868
:1028D00000683042E9D0A06B012149020843A0639F
:1028E0002068C1680C220905890F00291AD1617E70
:1028F000002917D10168090714D581680123490708
:10290000002908DB416891434160A06B19028843AC
:102910001843A06306E0A06B20210843A063E06B8E
:102920001843E063207E002801D120680260002067
:10293000F8BD000070B5044620688068400720D4C8
:1029400025462035287D012819D0012028752046EC
:10295000FEF7A2FA002811D1A16B0B4A1140FF2209
:1029600001321143A1630021E163297522681C2112
:10297000116021688A6804231A438A6070BD0220AE
:1029800070BD022070BD0000FEF1FFFF70B504466F
:10299000002C24D0206801684908490001602068A3
:1029A0000025056020684560206885602068C56056
:1029B0000C49206840181421FDF749FC8000206470
:1029C0000949E163012282404A60A562E56225630C
:1029D0006563A563203465702570002070BD0120FB
:1029E00070BD0000F8FFFDBF0000024070B5044656
:1029F000002C26D01448256814212818FDF727FC40
:102A0000800020641148E06302212046203041709C
:102A10002A680F490A40A368616826691943E36878
:102A20003343194363691943A3691943E36919439C
:102A3000114329600021A16301224270017000202E
:102A400070BD012070BD0000F8FFFDBF0000024016
:102A50000FC0FFFF70B5044600F024FA0546601C65
:102A600002D004484068241800F01CFA401BA04221
:102A7000FAD370BDD4000020F8B504460E460125F7
:102A800063480178012969D00121017061484068DB
:102A90000004400F60490B6882006048825810684B
:102AA000C7B2BC46BB4229D14B68C701FF0DBB4230
:102AB00024D10B690004000E83421FD18B6850683B
:102AC000C7B2BB421AD1CB684001400D834215D139
:102AD00048699368DB03DB0B98420FD18869D368A0
:102AE000DB03DB0B984209D1CB69106987B2BB428B
:102AF00004D10B6A8000800C83421ED060460860BF
:102B00001068C001C00D486010880004000E086104
:102B10001079886050684001400DC8609068C0031B
:102B2000C00B4861D068C003C00B8861108A80B2B6
:102B3000C86110698000800C08627D272068FF0052
:102B400004280DD002281CD00121C90288425AD184
:102B50003846FFF769FC002836D054E00220F8BD63
:102B60003846FFF761FC00284DD1FFF713FC3846CB
:102B7000FFF75AFC05462A494869042290434861F8
:102B800041E07D20C000FFF74FFC00283BD1401EF4
:102B90003060676811E03846FFF70EFC7D20C0000A
:102BA000FFF742FC05461E484169022291434161FC
:102BB000280001D0376026E08037A0686168C00136
:102BC0004018B842E7D81EE00020C0433060E768F4
:102BD00013E03846FFF71EFC7D20C000FFF724FC01
:102BE00005460F484169C21491434161280001D054
:102BF000376008E0012000033F182069E168000306
:102C00004018B842E5D80248002101702846F8BDB6
:102C1000B80500200010024000210240E0550008E5
:102C200000200240012005494A69C3071A434A614E
:102C30004969002900DA00207047000000200240A6
:102C4000F7B50F463C4C207801285AD0012020705F
:102C50003A4840680004400F39490D6882003948FD
:102C600080580268D3B29D4229D14D68D601F60D35
:102C7000B54224D10D691204120E95421FD18D6800
:102C80004268D6B2B5421AD1CD685201520D954272
:102C900015D14A698568ED03ED0BAA420FD18A6907
:102CA000C568ED03ED0BAA4209D1CD69026996B260
:102CB000B54204D10D6A9200920C95421DD00B6072
:102CC0000268D201D20D4A6002881204120E0A6113
:102CD00002798A6042685201520DCA608268D2034A
:102CE000D20B4A61C268D203D20B8A61028A92B2C5
:102CF000CA6100698000800C0862780603D0012058
:102D0000FEBD0220FEBD7D25ED002846FFF78CFBB1
:102D100000280DD138460299FFF75EFB2846FFF7E1
:102D200083FB09494A69520852004A610028E9D1E7
:102D300000212170FEBD0000B805002000100240F7
:102D400000210240E0550008002002400020064912
:102D50004A69002A07DA054A8A60054A8A60496991
:102D6000002900DA01207047002002402301674556
:102D7000AB89EFCDF0B500227CE001249440A4465D
:102D80002340002B75D04C68022C01D0122C0CD1A2
:102D9000D408A40027183D6A5407E40E0F26A64065
:102DA000B5430E69A6402E433E62066855000324D3
:102DB000AC40A6430F79BF07BF0FAF403743076052
:102DC0004E68012E05D0022E03D0112E01D0122EF6
:102DD0000ED18668A643CF68AF4037438760476807
:102DE0006646B7430E79F606F60F96403E434660B8
:102DF000C668A6438C68AC403443C4604C68E400A9
:102E000037D595081E4CAD002F193D6E9407E40E82
:102E10000F26A640B54305263607B04201D100264D
:102E200005E0184EB04201D1012600E00226A6407E
:102E30002E43134D3E66124E803634689C434F68D5
:102E4000FF0300D51C43346074689C434F68BF0384
:102E500000D51C4374602C689C434E68F60200D574
:102E60001C432C606C689C434E68B60200D51C4322
:102E70006C60521C0B681C46D44000D07DE7F0BD4E
:102E800000180240000400500069084201D00120EF
:102E9000704700207047002A01D08161704781622D
:102EA000704700000148806870470000D40000208F
:102EB00070B50446002C0FD02168104808602168C6
:102EC0000F4808602168606848602168A0688860D1
:102ED000FFF7E8FF054608E0012070BDFFF7E2FFBD
:102EE000401B302801D9032070BD2068C06800282D
:102EF000F4D1216803480860002070BDCCCC0000EC
:102F000055550000AAAA000000680249016000208F
:102F100070470000AAAA0000024881684268891828
:102F200081607047D400002010B50024032000F019
:102F300009F8002801D0012401E000F023F8204620
:102F400010BD000070B5054600240C4E70680028C6
:102F500011D00B4800F02CFA002801D001240BE01E
:102F6000042D06D200222946501E00F017F83560C5
:102F700002E0012400E00124204670BDD4000020BE
:102F8000C05D000070470000C106C90E01208840E6
:102F9000014908607047000000E100E010B500F052
:102FA000C1FC10BDF8B504460D46002C0FD04D48AD
:102FB0000068C007C00FA84218D24A4F38684008BE
:102FC000400028433860FFF76DFF064609E0012006
:102FD000F8BDFFF767FF811B4348814201D90320F9
:102FE000F8BD3868C007C00FA842F2D120683F4E34
:102FF00081070DD5400704D5B068072109030843B0
:10300000B060B0680F2109028843A1680843B0602E
:103010002078C0072DD06068012808D000280BD088
:1030200032494031096A89070BD40120F8BD316863
:10303000890306D40120F8BD3168490501D4012077
:10304000F8BDB168C908C9000143B160FFF72AFFA4
:10305000074607E0FFF726FFC11B2348814201D93D
:103060000320F8BDB068382108406168C900884273
:10307000F0D11C480168C907C90FA94216D90168D7
:103080004908490029430160FFF70CFF074607E0A4
:10309000FFF708FFC11B1448814201D90320F8BD86
:1030A00010480068C007C00FA842F1D1207840073F
:1030B00006D5B068072109038843E1680843B0607A
:1030C00000F01CF8B1683C2289091140084A515CA3
:1030D000C906C90EC8400749086007480068FFF7DD
:1030E00031FFF8BD002002408813000000100240AC
:1030F0002456000854030020D400002000B585B0F9
:10310000142216496846FDF71FF81548816889069C
:10311000490F0CD081688906490F012918D08068B1
:103120008006400F032815D0002005B000BD0168BF
:1031300089044A0F0121914040680004400F04288F
:1031400000D9002080006A461058FDF780F8ECE7AF
:103150000448EAE70120C003E7E700000056000842
:103160000010024000366E01F8B50446002C1DD058
:1031700020783827C007864D002856D0A8683840E8
:10318000082815D06068002807D0A068002817D04C
:1031900029690C22914301432961012160680904D6
:1031A00088420FD12868084328601EE00120F8BD3E
:1031B0002868800339D56068002836D10120F8BD21
:1031C0000120F8BD052301221B049204984206D178
:1031D00028681043286028680843286005E02868AC
:1031E00088432860286890432860606800280ED0D3
:1031F000FFF758FE064606E0FFF754FE801BC8287E
:1032000001D90320F8BD28688003F5D50DE0FFF74C
:1032100049FE064606E0FFF745FE801BC82801D997
:103220000320F8BD28688003F5D42078800772D584
:10323000AE683E40002E12D0FF20E1680130002928
:1032400058D029680722D20291432269114329608C
:10325000296801432960FFF725FE064640E02868FB
:10326000400502D5E068002809D068686169000C53
:10327000000408436860FFF715FE074608E00120D8
:10328000F8BDFFF70FFEC01B022801D90320F8BDCF
:1032900028684005F5D5002E13D128680721C902FA
:1032A0008843216908432860FFF728FFA9683C226A
:1032B00089091140374A515CC906C90EC8403649D0
:1032C000086036480068FFF73DFE002823D0012043
:1032D000F8BDFFF7E7FD801B022801D90320F8BDE8
:1032E00028684005F5D568686169000C000408434A
:1032F000686010E0296881432960FFF7D3FD064626
:1033000006E0FFF7CFFD801B022801D90320F8BD9E
:1033100028684005F5D42078000736D5A8681C4DEC
:103320008006400F403503280AD0A06900281AD033
:10333000286A012108432862FFF7B4FD04460EE025
:10334000286A800721D5A06900281ED10120F8BD78
:10335000FFF7A8FD001B022801D90320F8BD286A49
:103360008007F5D511E0286A400840002862FFF781
:1033700099FD044606E0FFF795FD001B022801D9E0
:103380000320F8BD286A8007F5D40020F8BD0000AE
:10339000001002402456000854030020D4000020EE
:1033A0000249CA690243CA61704700000000014037
:1033B00010B50949401E884201D9012010BD074CB3
:1033C00060610321081F00F0ADFA0020A061072012
:1033D0002061002010BD0000FFFFFF0000E000E0C2
:1033E00070B50446002C05D025462035687F00289E
:1033F00002D006E0012070BD00202877204600F0B2
:103400000AF802206877211D206800F0CBFA01201D
:103410006877002070BD7047F8B504460E46254613
:103420002035287F01280DD00120287702206877D9
:103430000427002A08D0042A19D0082A2ED00C2AE2
:1034400055D13EE00220F8BD3146206800F0F6FA82
:103450002068816908221143816120688169B9432C
:103460008161206881693269114381613FE03146A1
:10347000206800F021FB206882690121C9020A430B
:1034800082612068816901229202914381612068F2
:103490008169326912021143816128E03146206856
:1034A00000F04AFB2068C26908210A43C261206813
:1034B000C169B943C1612068C16932691143C16101
:1034C00015E03146206800F077FB2068C1690122D1
:1034D000D2021143C1612068C269012189028A4375
:1034E000C2612068C169326912021143C1610120C1
:1034F000687700202877F8BD10B5044601222068BF
:1035000000F08EFA0D482168814205D00C488142B6
:1035100002D00C48814204D1486C0122D2031043EE
:103520004864206881684907490F062903D001686B
:10353000012211430160002010BD0000002C014059
:10354000004401400048014008B540210268C943D9
:1035500011600268491011600068016841680091BB
:103560000168416800910168416800910168406804
:10357000009008BDFEE7000010B5044600F0DAF840
:103580000C493F20002C09D00A780A704A7802437F
:103590004A70887837221043887010BD0A78024339
:1035A0000A704A78712002434A708A7802438A700E
:1035B00010BD0000CD00002010B504B2130000F0D3
:1035C00043FB0604080C1014180780B200F05CF9E5
:1035D00010BD204600F03CF910BD80B200F01CF98F
:1035E00010BDC0B200F0B6F810BD80B200F07EF998
:1035F00010BD204600F0B8F810BD000070B50028DE
:1036000004DB80B2012100F03FF970BD404200B2FE
:10361000632800DD63200A21FCF723FECCB20A21D7
:10362000FCF71FFECDB200F085F807484022017874
:1036300011430170054942784B5D1A43427082780C
:10364000095D0A43827070BDCD0000201456000849
:1036500070B504461548844200D904460A21204624
:10366000FCF7F5FD0E460A21FCF7F1FD0D4664213D
:103670002046FCF7ECFD0A21FCF7E9FD0C4600F0C2
:1036800059F80B480B4982788B5D1A4382702246A9
:103690002A4303D042784B5D1A434270002C03D07A
:1036A0000278095D0A43027070BD0000E703000064
:1036B000CD00002014560008054A0028517803D098
:1036C00080200143517070474806400E507070478B
:1036D000CD00002010B5042807D0062809D00728FF
:1036E00002D10846FFF7E8FF10BD084600F006F8D3
:1036F00010BD084600F010F810BD0000054A002873
:10370000917803D080200143917070474806400EA5
:1037100090707047CD000020054A0028117803D032
:1037200080200143117070474806400E10707047AA
:10373000CD00002006480178C909C901017041780F
:10374000C909C90141708178C909C90181707047EF
:10375000CD00002010B5002902D0FFF70DFF10BDED
:10376000FFF7E8FF10BD000010B5044600294ED059
:10377000FFF7E0FF274879214022032C32D00FDCED
:10378000002C1BD0012C23D0022C08D1027802700F
:1037900042780A43427081785B221143817010BDE8
:1037A0000F2C2AD0102CFAD10178114301704178E6
:1037B0001143417081781143817010BD027802700D
:1037C00042780A43427081783F221143817010BDD4
:1037D0000278027042780A434270817806221143CF
:1037E000817010BD03786D24234303704378134325
:1037F000437082780A43827010BD0278027042786A
:103800000A434270817871221143817010BDFFF725
:1038100091FF10BDCD00002070B50407240F0106F4
:103820000D0F0005060FFFF785FF0748074982784F
:103830000B5D1A43827042784B5D1A4342700278E6
:10384000895D0A43027070BDCD0000201456000847
:1038500010B5002912D0002802D0FFF7CFFE10BD0E
:10386000FFF768FF07483F2102780A430270427859
:103870000A43427082780A43827010BDFFF75AFFF4
:1038800010BD0000CD00002010B5002902D0FFF7C8
:10389000DFFE10BDFFF74EFF10BD000070B50646FD
:1038A0000A213046FCF7D3FC0C460A21FCF7CFFC7A
:1038B0000D4664213046FCF7CAFC0A21FCF7C7FC20
:1038C0000E46FFF737FF0748074A8178135D194313
:1038D00081704178535D194341700178925D1143C5
:1038E000017070BDCD0000201456000810B50446CC
:1038F000FFF720FF092C00D909240749074A8878D7
:10390000125D1043887048783F2210434870087851
:1039100073221043087010BDCD000020145600081B
:10392000704700008307FF22DB0E9A408907090ECB
:10393000994000280BDA0007000F08388308084870
:103940009B001818C36993430B43C36170478308F6
:1039500004489B001818036893430B4303607047A7
:1039600000ED00E000E400E07047704710B5FFF79D
:10397000D3FA10BD08494868084A000C9288000430
:10398000D204D20C10430122520310434860C803F2
:10399000034988607047000000100240000FFF1FBD
:1039A00000ED00E070B50268184C194EA04201D03D
:1039B000B04204D170251346AB434A681A43154BF5
:1039C000154DA04208D0B04206D0144EB04203D0EC
:1039D000984201D0A84204D103263602B243CE68F1
:1039E00032438026B2434E69324302608A68C26223
:1039F0000A688262A04203D0984201D0A84201D155
:103A0000096901630121416170BD0000002C014082
:103A100000040040004401400048014000200040F4
:103A200010B5C906C90E01238B40046A9C43046289
:103A3000036A8A401343036210BD0000F0B5026AB6
:103A4000520852000262056A436882697024A243E8
:103A5000920892000C681443022295438A682A4314
:103A6000124E134FB04204D0B84202D0114DA842BA
:103A700006D10825AA43CD681543042295432A465A
:103A8000B04204D0B84202D00A4DA84208D1FF2566
:103A90000135AB436D00AB434D691D438B692B432F
:103AA00043608461496841630262F0BD002C0140BB
:103AB0000044014000480140F0B5026A10239A43D7
:103AC0000262046A4368826907252D03AA4303251D
:103AD0002D02AA430D682D021543202294438A68C3
:103AE00012012243114EB04207D180271446BC4335
:103AF000CA68120122434024A243B04205D00C4CB4
:103B0000A04202D00B4CA0420AD10124A402A3433C
:103B10006400A3434C69A4001C438B699B002343AE
:103B200043608561496881630262F0BD002C0140F9
:103B30000044014000480140F0B5026AFF23013310
:103B40009A430262046A4368C2697025AA439208D4
:103B500092000D6815430122520294438A681202B2
:103B60002243124EB04207D1C7141446BC43CA6860
:103B7000120222430415A243B04205D00C4CA042CD
:103B800002D00C4CA0420AD101242403A3436400B8
:103B9000A3434C6924011C438B691B0123434360ED
:103BA000C5614968C1630262F0BD0000002C01409C
:103BB000004401400048014070B5026A01231B0324
:103BC0009A430262046A4268C36907252D03AB4326
:103BD00003252D02AB430D682D021D4301235B031A
:103BE0009C438B681E0326430A4B984205D00A4B20
:103BF000984202D0094B984206D10124A4031346EF
:103C0000A3434A6992011A434260C561496801644D
:103C1000066270BD002C0140004401400048014094
:103C200010B5084C20680068C043800601D400BF6E
:103C300002E00448FFF788FC20202168C0430860A8
:103C400010BD00000405002030B47446641E2578C1
:103C5000641CAB4200D21D46635D5B00E31830BCC0
:103C60001847000010B5FDF7F8FE0A498A6890422F
:103C70000AD08860002807D0002211461020FDF7E6
:103C80004BFF05480021418300F03AF800F006F8A8
:103C900010BD00009C0100209C04002070B5174C52
:103CA0000025A0690126002816D0A561206A0028F9
:103CB0000AD000F0E1FD002211460F20FDF72CFF95
:103CC000FEF730F9256207E0002211460120FDF7DA
:103CD00023FF00F009FE26626069002806D06561B6
:103CE000206A002803D0012000F0D2FB70BD0348F9
:103CF0002030007D0028F9D1E66170BD5C04002011
:103D000070B5FDF7AAFE002412490123124A0028CB
:103D10000ED090880F2801D2401C908090880F28E8
:103D200005D35078002802D18B615370947070BD18
:103D30009088451E0E2D00D24B610F2806D3507877
:103D4000002803D09078002800D19370948054709C
:103D500070BD00005C0400209C01002010B51748D5
:103D6000407C00280ED00300FFF76EFF110C0A0DF7
:103D700010131F22250C0C0C0C0C0C1C16190C001B
:103D800001F0B4F910BD01F01BFA10BD01F0E2F929
:103D900010BD01F049FA10BD01F098F810BD01F016
:103DA000AFF810BD01F0D6F810BD01F003F910BD59
:103DB00001F068F910BD01F031F910BD9C0400203C
:103DC00070B51548016B154C0025A26A914204D0CC
:103DD000006BA062A5810120E070E078002810D07F
:103DE0000D488038C06800220121FFF7E5FBA0895B
:103DF000643080B2A0817D210901884200D3E57042
:103E000070BD0748006FFCF7E7FE80B20022012179
:103E1000FFF7D2FB70BD00005C040020A801002069
:103E20005C030020F0B587B00C46029021463B4F62
:103E3000029801F06DFB460076083948384D807DC8
:103E4000C03D0690E96E0591002828D00598FCF742
:103E5000C3FEAA6F0621904207D20120314A0B1AF5
:103E60009B00D450401C0528F9DD2F4B9878002882
:103E700009D101202B4F0A1A9200BC50401C062881
:103E8000F9DD012098702948864201DD284F09E0BC
:103E90002848864201DA284F04E0204F02E02248F9
:103EA000002181703946029801F0A2FA04467F2071
:103EB0003946C00501F02CFB1A4E0490316801F020
:103EC00097FA214601F024FA30600124601E800038
:103ED0003058394601F08CFA0190A1000391049802
:103EE000715801F085FA019901F012FA03997050A6
:103EF000641C062CEADB069800280CD00598FCF719
:103F00006BFEE96F884206D23F210906706901F015
:103F1000FFF907B0F0BD3069FBE70000CDCC4C3DA8
:103F20009C04002010060020040100200000C8416D
:103F3000CDCCCC3D000020410AD7233CFEB50090FB
:103F4000009801F0E5FA44003B4F6408BC603B4E2A
:103F50003F252D06B4420ADA31462046FCF78CFD97
:103F6000374901F045FA294601F0D2F90DE0314612
:103F7000204601F0CDFA3146FCF77EFD0221FCF728
:103F800073FE8121C90501F0C3F9A84200DA284671
:103F900041252D06A84200DD2846F86002903146F2
:103FA0008C420ADA2046FCF767FD264901F020FA28
:103FB0007F21C90501F0ACF90DE00E46204601F065
:103FC000A7FA3146FCF758FD0221FCF74DFE81218E
:103FD000C90501F09DF97F24E405A04200DA2046DE
:103FE000A84200DD2846054638617868029901F04C
:103FF0008FF906462946304601F08AF901463046D7
:10400000FCF73AFD786101903D680098294601F07F
:104010007FFA019901F0ECF9294601F079F905469A
:1040200038602046019901F073FA314601F0E0F959
:1040300078602846FEBD0000840100200000204179
:10404000000060400000404070B560494A6A5F4C23
:10405000002578260121803C1300FFF7F5FD0A16A4
:10406000062541638190A1A8AF1600280ED0206AD2
:10407000FF252D35A84204D200F0AAF8216A401885
:104080002062206AA84200D9256270BD206A642897
:1040900004D900F09DF8216A081A2062206A642879
:1040A000F3D26420206270BD00280CD0606A7828AA
:1040B00004D200F08DF8616A40186062606A782866
:1040C000F1D9666270BD606A002804D000F080F803
:1040D000616A081A6062606A7828F3D9656270BD07
:1040E00000280FD0A06A782807D200F071F80521C7
:1040F000FCF7ADF8A16A4018A062A06A7828EED952
:10410000A66270BDA06A002807D000F061F8052102
:10411000FCF79DF8A16A081AA062A06A7828F0D975
:10412000A56270BD00280DD0E06AB42804D200F06A
:104130004FF8E16A4018E062E06AB428F1D9B4208F
:10414000E06270BDE06A3C2804D900F041F8E16A01
:10415000081AE062E06A3C28F3D23C20E06270BDBD
:104160006069002805D0656100210720FFF7B2FAD9
:1041700070BD616101210720FFF7ACFA70BD002816
:1041800006D020693228F9DA2069401C206170BD10
:1041900020693221C842FADD2069401E206170BDCD
:1041A000A069002801D0A56170BDA16170BD606BE0
:1041B000002801D0656370BD616370BD206B00286D
:1041C00001D0256370BD216370BD00005C04002038
:1041D00010B51C4800681C4A00231169002903D14E
:1041E00010615061D380137011691924411A640160
:1041F000A14202D95061D380137051697D24411AC4
:10420000E400A1420BD3D188032905D91178FF29F5
:1042100003D2491C117000E01370D3805061D18823
:10422000491CD180106105201178002905D004298E
:1042300000D904210A204143C8B2282800D92820E7
:1042400010BD0000DC000020A801002010B50A48C5
:10425000C16800290ED00021024640325183C1605E
:10426000064A1170007C00F00BF800221146102065
:10427000FDF752FC10BD00005C0400209C010020F2
:1042800010B50C4C216A002905D0FFF7DDFEE06A6D
:10429000401CE06210BD07492031097D0029F9D199
:1042A00000F0AEF8206B401C206302480021403033
:1042B000817510BD5C04002010B50020FDF746FBA1
:1042C000044CA060FCF7D6FFA062FCF755FFA06489
:1042D00010BD00005C03002010B50420FDF736FB84
:1042E0000149886110BD00005C03002010B5012069
:1042F000FDF72CFB024CE060FDF71EFBE06210BDF9
:104300005C03002070B5FDF765FF0020294900BF60
:10431000401C80B28842FAD30220FDF717FB264DDD
:1043200028612649C97D732904D0D22906D0F529F0
:104330000BD107E000F00AFC286306E000F048FC1F
:10434000286302E000F086FC28631B4C8034E068A0
:10435000FCF786FC0146286BFDF7CAF92865286042
:104360002046A030007D022813D0032811D0062853
:104370000FD0E068FCF774FC0646E068FCF770FCC0
:1043800001462868FFF7DAFD3146FFF74BFD286745
:1043900070BDE068FCF764FC0646E068FCF760FC72
:1043A00001460020FFF7CAFD3146FFF73BFD2867B5
:1043B00070BD0000FF0800005C0300209C0400208A
:1043C00010B5FFF789FF0B4801218069C9028842B7
:1043D00001D9F52010BD0721C901884201D2D220A0
:1043E00010BD054940180549884201D2732010BD0F
:1043F000002010BD5C0300207FFCFFFF7F02000057
:1044000070B5224CA16900291BD0002806D0E069B4
:10441000032809D2E069401CE06105E0E069012859
:1044200002D9E069401EE061E0693221401E484344
:10443000FF302D30E060E06800220121FFF7BCF87A
:1044400070BD00280ED0E068FF25E135A84204D2F7
:10445000FFF7BEFEE1684018E060E068A8420ED9B0
:10446000E5600CE0E068692804D3FFF7B1FEE1687D
:10447000081AE060E068642801D26420E060E06827
:1044800000220121FFF798F870BD0000DC03002036
:1044900010B52549002808D0486A401C4862486A7F
:1044A00008280ADD0120486207E0486A401E486289
:1044B000486A012801DA08204862486A0300FFF7C9
:1044C000C3FB0A0A060B10151A1F24292E0A012104
:1044D0000620FFF7FFF810BD00210620FFF7FAF8CD
:1044E00010BD00210620FFF7F5F810BD01210620C0
:1044F000FFF7F0F810BD00210620FFF7EBF810BD24
:1045000001210620FFF7E6F810BD00210620FFF785
:10451000E1F810BD00210620FFF7DCF810BD0021F6
:104520000620FFF7D7F810BD5C04002010B5FFF798
:10453000C3FE05480549806C884204DD0448072114
:104540000175FCF79FFD10BD5C0300200000964242
:104550007C04002010B5314900280BD04A6A084677
:1045600080381300FFF770FB0A540C122130363CE0
:1045700042484E54486A04220121FFF71DF810BD3D
:10458000006A00220121FFF717F810BD416A0029D7
:1045900005D0406A00220121FFF70EF810BD406AE5
:1045A00003220121FFF708F810BD816A002905D018
:1045B000806A00220121FEF7FFFF10BD806A0322FE
:1045C0000121FEF7F9FF10BDC06A00220121FEF7AC
:1045D000F3FF10BD406903220121FEF7EDFF10BD7E
:1045E000006901221146FEF7E7FF10BD8069032232
:1045F0000121FEF7E1FF10BD406B03220121FEF710
:10460000DBFF10BD006B03220121FEF7D5FF10BDBB
:10461000486A04220121FEF7CFFF10BD5C04002090
:10462000F8B53148016A0024304D002910D0416AA4
:104630006A89914216D0416A6981AC612C62C06A74
:10464000E8610120A8706C620020FFF783FFF8BDCD
:10465000AC610021C94369812C62C06AE861AC7019
:104660006C62F8BDA9787D27FF0000290DD00020DD
:10467000FFF770FF686A64306862B842F1D3AC70CB
:104680006C627810A8612C62F8BDC16AEA69914237
:1046900007D0C06AE8612C62AC610120FFF75AFFC5
:1046A000F8BD286A643028627D263601B04203D204
:1046B0000120FFF74FFFF8BDA869B84203D20020E0
:1046C000FFF748FF08E0B04203D20120FFF742FFA6
:1046D00002E00020FFF73EFFA8696430A861B04205
:1046E000E9D3AC61F8BD00005C040020A801002003
:1046F000FEB57D2109015C4FB86B401CB863029088
:104700005A480190026BFB6B594801269A4205D02A
:10471000019A126BFA633E7102683A64554D3A7918
:104720002C46FF3441348035002A08D07E6300686F
:104730003A6C801A88420FD3002038710CE0A07DBB
:10474000002808D0E86EFCF747FAE96F884202D2E9
:104750000A20786300E07E630299386B0A1A796B4D
:104760008A421BD3401838630198006A002815D18B
:104770003E482030017D3F480B00026F0092FFF75A
:1047800063FA09550D060D163A4D0D0E0D00052262
:1047900001210020FEF710FF0020A075FEBD0522BC
:1047A00001210320FEF708FF0020A075FEBD696A05
:1047B0000029FBD04068296A8842F7D9286AE86056
:1047C000E868FCF74DFA009900F096FE40004008BA
:1047D00078640098FCF700FA80B200220121FEF70D
:1047E000EBFE7F20796CC0058142DFDAA07D0028D6
:1047F000DCD1A675FEBD05460098FCF7EDF9F96A17
:10480000884208D280B200220121FEF7D5FE286F2F
:10481000FCF7E2F9F8620020A075FEBD0522012137
:104820001020FEF7C9FE0020A075FEBDE868FCF769
:1048300017FA009900F060FE400040087864FFF726
:10484000BFFA7F20796CC005814208DAA07D00287C
:1048500004D1002211461020FDF75EF9A675FF2055
:10486000E130F862FEBD0000A80100205C040020D9
:10487000DC0000205C03002010B5134CA069002868
:1048800012D0E069012804D0022806D003280BD1F9
:1048900007E0FF202D30E06006E0FF205F30E060A1
:1048A00002E0FF209130E060074801218030416242
:1048B000E0680022FEF780FE206B002803D1012172
:1048C0000620FEF707FF10BDDC030020884203D35B
:1048D000904201D300207047814203D3914201D31B
:1048E000012070470220704770470000F3B581B087
:1048F00005462846029900F0C3F82846029900F0C0
:1049000091F80746374C606F002869D02846FCF7BD
:10491000A7F9029900F0FCFD06463946A06C00F0AC
:10492000F7FC314600F064FD60653146E06C00F054
:104930005FFDE16D00F05CFDA16D00F0E9FC074654
:10494000A0653046A16E00F0E3FD216D00F050FD42
:104950002066A6663846616E00F0A2FD01D2606E48
:10496000A065214EA06D0027B04200D3A765A16DC0
:10497000606D00F0CDFC216E00F0CAFC0146E066DF
:104980001848C030C07D732804D0D22805D0F5283F
:1049900008D105E01548206704E01548206701E0CC
:1049A00014482067B14200D3E766216FE06E00F043
:1049B00077FD01D2206FE0660A4880300068281A2F
:1049C000FCF74EF9029900F06BFD03D2962D01D948
:1049D000206FE066E06EFCF7FFF880B2FDF71CFC8C
:1049E000FEBD0000DC030020000080800000AF441A
:1049F00000A00C4500401C460848017DA038002955
:104A000009D0042907D000214167C1668165C165CD
:104A10000348816370470121416770477C0400208F
:104A20000004004010B50C46FCF71AF9214600F0CE
:104A30006FFD00210122D20590420BDB064C21467E
:104A400000F066FD0549896C00F0D2FC2146FCF7B8
:104A500013F80146084610BD00007041DC03002039
:104A600010B5FFF74FFC0548C168006908180349F5
:104A700080B280390968FFF739FF10BDDC030020E0
:104A8000F3B581B006463046FCF7EAF807461D4C00
:104A90001B48E51DC07DF9358034732804D0D22829
:104AA00005D0F52808D105E0FDF74AFB04E0FDF745
:104AB00047FB01E0FDF768FBA8688019FCF7D0F818
:104AC000029900F06BFC04D20020A065E064E06570
:104AD00013E06868301AFCF7C3F8029900F05EFC36
:104AE0000BD23846029900F0DBFC06D2304600F0CB
:104AF0000BF8E0647F20C005E065FFF77DFFFEBD99
:104B00009C0400205C03002010B50C4C642801D8E4
:104B1000204610BDFF21C331884201D3084810BD93
:104B20006438FCF795F8074900F062FC0649FBF78A
:104B3000A3FF214600F0ECFB10BD0000CDCC4C3DA6
:104B400000004040CDCC3C400000AF43F8B50446E7
:104B50002046FBF740FE164A164BFBF73FFE064683
:104B60000F462046FCF77CF8009000F09FF9FBF719
:104B700059FF114A114BFBF731FE04460D460098D0
:104B800000F099F9FBF74EFF0D4A0E4BFBF726FE9E
:104B900022462B46FBF7C6FD32463B46FBF7C2FDDD
:104BA000094A0A4BFBF7BEFDFBF702FCF8BD00000B
:104BB000304CA60A4625EF3F2A4E5A5DF34F35BFCB
:104BC000E7A52A8DE517693E9A99999999D582C0EA
:104BD000F8B504462046FBF7FEFD164A164BFBF7D8
:104BE000FDFD06460F462046FCF73AF8009000F01F
:104BF0005DF9FBF717FF114A114BFBF7EFFD044678
:104C00000D46009800F057F9FBF70CFF0D4A0E4BCC
:104C1000FBF7E4FD22462B46FBF784FD32463B467C
:104C2000FBF780FD094A0A4BFBF77CFDFBF7C0FB55
:104C3000F8BD0000CB10C7BAB88DE83F44B97E0B71
:104C4000FCF233BF7DAA55D59035733ECDCCCCCC8C
:104C5000CCCC70C010B5FCF703F8FBF7E3FE054AB7
:104C6000054BFBF7BBFD054A054BFBF75BFDFBF76F
:104C70009FFB10BD917EFB3A70CEC83FEE7C3F3566
:104C80005E1A3A4070B5224D2968224C2068091AF4
:104C90000A2905D30A302060FFF7E2FEFFF75EF82D
:104CA0002968A068091A322903D33230A060FFF7BF
:104CB000CDFA29686068091AFA2908D3FA306060C9
:104CC000FCF7D0FCFCF73AFB1348FEF71DF9296806
:104CD000E0680A1A7D21C9008A4207D34018E060C3
:104CE000FFF724FCFCF7DEFCFCF782FA2968206958
:104CF000091A64290BD364302061FEF7B3FFFFF774
:104D0000F7FCFCF745FAFFF78BFCFCF7D3FF70BD0F
:104D1000DC000020E0000020AC050020FFB585B0DD
:104D2000059844680598806804900598008802906A
:104D30000298401E800020180390019323E00698FB
:104D40000168039801600698001D06900398001DF5
:104D50000390002000902546049E029F02CE01CDC4
:104D600000F046FB009900F0D3FA00907F1E002F60
:104D7000F4D10799009808600798001D0790241D3A
:104D80000198401E019001980028D8D105984168EB
:104D90000298401E02E004CC04C1401E0028FAD153
:104DA00009B0F0BD30B5002903D004680025012208
:104DB00009E0002030BD9300C358A34201D91C462E
:104DC0001546521CD2B28A42F5D36D1CE8B230BDF2
:104DD00010B5094C884201DC208810BD904201DBEF
:104DE000A08910BD521A401A062148431146FBF70C
:104DF00038FA4000205A10BD12030020FEF794F844
:104E0000FF209130FDF726FEFCF70AFFFCF730FF8C
:104E1000FCF762FE12480121008AC903C004C00CDD
:104E20004018FDF7FFF91920FDF714FEFDF7ACF867
:104E3000FDF7D0F9FCF702FEFCF7B8FDFDF712F91B
:104E4000FCF76AFFFCF716FEFCF792FCFDF7EAF8A8
:104E5000002211461020FCF75FFEFFF713FFFCE76E
:104E6000000FFF1F10B5002802D000F009F810BD98
:104E70000520002240210007FEF70DF810BD0000BC
:104E800010B500280BD001460548FBF7E0F9401E9D
:104E90000449C86240084863496B0348C16410BDB7
:104EA00000093D00004401405C04002010B50146AB
:104EB00000F09EFA10BD10B504462146204600F0D1
:104EC00097FA214600F094FA10BD000070B50A4C24
:104ED000E08B401C80B2E083012801D100F032F861
:104EE000E08B322806D30548002545740020FFF7E3
:104EF000B9FFE58370BD0000F00100209C04002094
:104F000070B50A4C208C401C80B22084012801D14D
:104F100000F010F8208C052806D3054800254574BC
:104F20000020FFF79FFF258470BD0000F0010020E6
:104F30009C04002010B50520012240210007FDF748
:104F4000AAFF10BD10B50520012240210007FDF782
:104F5000A2FF10BDF8B5154CFF262178204600258C
:104F60009136808C0127002908D0401D80B2A08492
:104F70007D21C900884207D3257005E0401F80B21B
:104F8000A084B04200D82770A08CFFF76BFF608C24
:104F9000401C80B26084C82807D30020FFF762FF5E
:104FA0006584A684277002484574F8BDF00100208E
:104FB0009C04002070B5174C00252089002814D1CE
:104FC000E088022806D3E580134845740020FFF7E7
:104FD00049FF70BD0F4940002A31085AFFF742FFD0
:104FE000E088022801D2401CE0802089401C81B268
:104FF0002181094817224038C06C00F04BF9208904
:10500000172802D10020FFF72DFF20891928E0D3AF
:10501000258170BDF00100209C04002070B5174C64
:105020000025A089002814D16089062806D365814F
:10503000134845740020FFF715FF70BD0F4940006D
:10504000F631085AFFF70EFF6089062801D2401C8E
:105050006081A089401C81B2A18109481722403893
:10506000C06C00F017F9A089172802D10020FFF7C3
:10507000F9FEA0891928E0D3A58170BDF0010020B8
:105080009C04002070B5174C0025A088002814D17E
:105090006088032806D36580134845740020FFF715
:1050A000E1FE70BD0F4940002E31085AFFF7DAFECD
:1050B0006088032801D2401C6080A088401C81B217
:1050C000A180094817224038C06C00F0E3F8A0889E
:1050D000172802D10020FFF7C5FEA0881928E0D3C9
:1050E000A58070BDF00100209C04002070B5174C15
:1050F0000025208A002814D1E089032806D3E58101
:10510000134845740020FFF7ADFE70BD0F49400005
:105110003431085AFFF7A6FEE089032801D2401C6B
:10512000E081208A401C81B2218209481722403840
:10513000C06C00F0AFF8208A172802D10020FFF7DA
:1051400091FE208A1928E0D3258270BDF00100204D
:105150009C04002070B5174C0025208B002813D12B
:10516000E08A092806D3E582134845740020FFF73A
:1051700079FE70BD11494000085AFFF773FEE08ABE
:10518000092801D2401CE082208B401C81B221837F
:10519000094817224038C06C00F07CF8208B172893
:1051A00002D10020FFF75EFE208B1928E1D3258372
:1051B00070BD0000F00100209C040020F2020020DD
:1051C00070B5174C0025A08A002814D1608A0328E6
:1051D00006D36582134845740020FFF743FE70BD77
:1051E0000F4940003A31085AFFF73CFE608A032815
:1051F00001D2401C6082A08A401C81B2A182094871
:1052000017224038C06C00F045F8A08A172802D158
:105210000020FFF727FEA08A1928E0D3A58270BDE1
:10522000F00100209C04002070B5174C0025A08BD5
:10523000002813D1608B072806D365831348457473
:105240000020FFF70FFE70BD11494000085AFFF71C
:1052500009FE608B072801D2401C6083A08B401C94
:1052600081B2A183094817224038C06C00F012F8BF
:10527000A08B172802D10020FFF7F4FDA08B19287E
:10528000E1D3A58370BD0000F00100209C04002044
:105290000403002010B50B461146002805D0CA1A99
:1052A0005043FAF7D4FF0149486310BD0044014060
:1052B00000B516490300FEF7C7FC110C0A0D1013C8
:1052C0001F22250C0C0C0C0C0C1C16190C000120B8
:1052D000487400BD0220487400BD0320487400BD1E
:1052E0000420487400BD0F20487400BD102048748D
:1052F00000BD0E20487400BD0520487400BD062086
:10530000487400BD0720487400BD00009C040020C4
:1053100070B501250400ED074C4020D4441A01D299
:10532000001B0919C60D4B00F2B2FF2A29D01B0E33
:105330002CD000020C02D31A2C43DC402843051960
:1053400010D2280A02D3401C6D0611D0761EF60535
:105350008019FF2A00DA70BDC00DC00570BD69401C
:1053600000F0DCF801200543C541521C761CE8E73B
:1053700064089C40C90161408900E7D10124A04331
:10538000E4E71B0E440200D0034870BD002AFCD1A4
:10539000C00FC00770BD00BF0000C07F0123020026
:1053A000DB050A430DD4DA4203D49A4207D488427B
:1053B0007047D84214D4D94212D4884270478042F0
:1053C0007047DA4203D59A42F9D5814270475B00B3
:1053D0004200DA4204D24A00DA4201D281427047E6
:1053E00010B5024AFBF762FC10BD00BF09001604AD
:1053F00070B5420064414B005C41120E39D01B0E67
:1054000038D0FF2A3CD0FF2B3AD040024902400A54
:10541000490A060045184E43000A090AD2184843B3
:10542000ED017F3A0104731A4019190C4318990FC2
:1054300004D001215B0849075B1A521CD80904D328
:10544000401CF50301D19D0607D0FF2A08D2D505DF
:1054500006D0E4072043401970BD0125A843F4E7B6
:10546000002A01DCE00770BD2402FF202043C005B4
:1054700070BD1B0EFF2A03D0FF2B01D0E00770BDCB
:10548000FF2645003606B54206D84D00B54203D882
:10549000D218FF2A00D0E7E7004870BD0000C07FA7
:1054A00001230A00DB0502430DD4DA4203D49A42F9
:1054B00007D481427047D94214D4D84212D48142D1
:1054C000704789427047DA4203D59A42F9D588423B
:1054D00070475B004A00DA4204D24200DA4201D24D
:1054E000884270474840414010B5024A4840FBF7A7
:1054F000DDFB10BD0900160470B50125ED076840FD
:1055000004004C4002D5694000F008F8FFF706FFA0
:1055100070B501250400ED074C4022D4441A02D294
:105520006C40001B0919C60D4B00F2B2FF2A4BD08C
:105530001B0E50D000020C02D31A2C43DC40A843AF
:10554000051B05D5AD0019D36D08761E521E37D048
:10555000F605280A01D2801970BD70416D0603D08E
:1055600070BD6940FFF7DAFE9C40090261404900C6
:1055700001D0401E70BD0124A04370BD6D081DD038
:1055800001202B0C01D12D0410302B0E01D12D0246
:1055900008302B0F01D12D01001DAB0F01D1AD0043
:1055A000801CEB0F01D16D00401C6D00361A121AE1
:1055B000680AF5054019012A02DB70BD002070BDA4
:1055C000C036300AC00770BD1B0E440201D1FF2B4C
:1055D00000D1024870BD002AF0D070BD0000C07F2D
:1055E0001C0FFF1F300FFF1F440FFF1F580FFF1F1F
:1055F0006C0FFF1F1C0FFF1F1C0FFF1F1C0FFF1F37
:1056000000093D0000127A000024F4004086510198
:1056100000366E013F065B4F666D7D077F6F777CBE
:10562000395E7971000000000000000000000000F9
:10563000000000000000000000000000000000006A
:105640000000000001000000020000000300000054
:105650000400000006000000070000000800000031
:105660000900000000093D0000127A000024F40047
:105670004086510100366E0100093D0000093D00E1
:1056800000093D008182838485868788898B8C8D83
:105690008E8F919293959697999A9C9D9FA0A2A385
:1056A000A5A7A8AAACAEB0B2B3B5B7B9BCBEC0C2CC
:1056B000C5C7C9CCCED1D4D7D9DCDFE2E6E9ECF05E
:1056C000F3F7FAFEE456000800000020B8040000DA
:1056D000120E0008E0570008B80400202006000061
:1056E0000401000801D43204021D01CB803E048174
:1056F0002BC0413C13D0052320F42A200C5AE00C87
:10570000593802103F580C9A99193ECDCC4C3E9A0C
:105710009999085A1950492C1914223D9B48437CE9
:1057200069443240995069181A80182904011803F5
:105730003CFFFF0223013A902518092C0927052771
:10574000052C090A400C082C094C0A4C0A2C092C7F
:10575000082FBF0D6E0F5910046599146E0F292084
:10576000880BBF0D3F0CBF0D59103F0C143AE904D4
:105770008559104C0A2B5910021C6E0FE9186B6EDC
:105780000F40091456091458299C4956292E880996
:105790005A125A1299145910602D6E0FBF0D4E29CE
:1057A00036A119C019C8494449D22BE90A222984D3
:1057B000296229AA29E2C91CA123C84233E1432254
:1057C000411AA004791022401A8004B104C1366E37
:1057D0000112F012081AF8041AFF040193000000E5
:04000005080000C12E
:00000001FF
