:020000040800F2
:100000001009002081010008592500084D2400082E
:1000100000000000000000000000000000000000E0
:10002000000000000000000000000000A325000800
:100030000000000000000000A1250008A525000820
:100040009301000893010008930100089301000840
:100050009301000893010008930100084912000869
:100060000000000093010008930100080000000058
:1000700093010008930100089301000800000000AC
:10008000930100089301000800000000930100089C
:10009000000000009301000893010008930100088C
:1000A000000000009301000800000000592800082B
:1000B00093010008000000000000000000000000A4
:1000C00000F002F800F030F80CA030C8083824180E
:1000D0002D18A246671EAB4654465D46AC4201D180
:1000E00000F022F87E460F3E0FCCB6460126334282
:1000F00000D0FB1AA246AB4633431847AC2A000097
:10010000CC2A00000023002400250026103A01D349
:1001100078C1FBD8520700D330C100D50B607047BF
:100120001FB51FBD10B510BD00F088F91146FFF7CF
:10013000F7FF00F0E1F900F0A0F903B4FFF7F2FFD8
:1001400003BC00F0A7F9000070B505460C46164642
:1001500002E00FCC0FC5103E102EFAD2082E02D3AB
:1001600003CC03C5083E042E07D301CC01C5361FBE
:1001700003E021782970641C6D1C761EF9D270BDD5
:100180000748804707480047FEE7FEE7FEE7FEE72F
:10019000FEE7FEE704480549034A054B70470000A7
:1001A000AD250008C100000810050020100900203E
:1001B00010050020034610B50B439B070FD1042AFE
:1001C0000DD308C810C9121FA342F8D018BA21BA1B
:1001D000884201D9012010BD0020C04310BD002A73
:1001E00003D0D30703D0521C07E0002010BD0378D2
:1001F0000C78401C491C1B1B07D103780C78401C51
:10020000491C1B1B01D1921EF1D1184610BD01E003
:1002100004C0091F0429FBD28B0701D50280801C72
:10022000C90700D00270704700290BD0C30702D065
:100230000270401C491E022904D3830702D50280A4
:10024000801C891EE3E70022EEE70022DFE70022A0
:1002500003098B422CD3030A8B4211D300239C4603
:100260004EE003460B433CD4002243088B4231D37B
:1002700003098B421CD3030A8B4201D394463FE00F
:10028000C3098B4201D3CB01C01A524183098B426F
:1002900001D38B01C01A524143098B4201D34B0158
:1002A000C01A524103098B4201D30B01C01A5241BB
:1002B000C3088B4201D3CB00C01A524183088B4242
:1002C00001D38B00C01A524143088B4201D34B002B
:1002D000C01A5241411A00D201465241104670479D
:1002E0005DE0CA0F00D04942031000D340425340A2
:1002F00000229C4603098B422DD3030A8B4212D362
:10030000FC22890112BA030A8B420CD38901921193
:100310008B4208D3890192118B4204D389013AD0D0
:10032000921100E08909C3098B4201D3CB01C01AA5
:10033000524183098B4201D38B01C01A52414309B8
:100340008B4201D34B01C01A524103098B4201D3A6
:100350000B01C01A5241C3088B4201D3CB00C01A13
:10036000524183088B4201D38B00C01A5241D9D22B
:1003700043088B4201D34B00C01A5241411A00D2AC
:100380000146634652415B10104601D34042002BA8
:1003900000D54942704763465B1000D3404201B527
:1003A0000020C046C04602BD70477047704701023A
:1003B000C21504D00123DB071943002A0ADB9E2360
:1003C0009A1A02D40846D0407047FF224100120614
:1003D000914201D900207047C017C04370471F22C7
:1003E000030C02D10F2200041CD0030E01D1000225
:1003F000083A030F01D10001121F830F01D18000C1
:10040000921E002801DB4000521ED2055118021234
:1004100051181922904004D3491C002801D14908E1
:10042000490008467047C10FC90700D04042012269
:1004300092071143D3E701218907D0E7754600F001
:1004400025F8AE46050069465346C008C0008546FB
:1004500018B020B5FFF79EFE60BC00274908B646DD
:100460000026C0C5C0C5C0C5C0C5C0C5C0C5C0C5C3
:10047000C0C5403D49008D46704710B50446C04692
:10048000C0462046FFF759FE10BD000000487047E7
:10049000AC04002001491820ABBEFEE72600020094
:1004A000704770B58C180578401C6B075B0F01D145
:1004B0000378401C2A1106D10278401C03E006781C
:1004C000401C0E70491C5B1EF9D12B0705D400237C
:1004D000521E0DD40B70491CFAE70378401CCB1A4E
:1004E000921C03E01D780D70491C5B1C521EF9D54F
:1004F000A142D8D3002070BD10B50122D206002041
:10050000074B810054585C50401CC0B23028F8D3CF
:10051000012004494007886002F030FA002010BD35
:100520000000002000ED00E008B500210091016806
:100530008A68D243D2071ED08A68104B1A40012322
:10054000002A08D0816B102211438163C16B1943CB
:10055000C163012008BD88681843886009480849BC
:100560000068FFF774FE009002E00098401E0090C3
:1005700000980028F9D1002008BD00001500008077
:1005800040420F000C020020F0B5002314E09A0056
:100590008458944627461E465A1C06E09500455945
:1005A000A54201DA2C461646521C8A42F6DBB200FE
:1005B0008750624684505B1C8B42E8DBF0BD000034
:1005C00010B586B010494B6B202213434B63496B27
:1005D000114000910024022101220C4B002809D077
:1005E000019102940392049101A9184601F05AFB6B
:1005F00006B010BD019102920394049101A918461E
:1006000001F050FBF4E7000000100240001400501D
:1006100010B50120FFF7D4FF00F016F8094C0122B5
:100620001146204601F0CFFB00F00EF80022012118
:10063000204601F0C8FB00F007F80020FFF7C0FFDC
:1006400010BD000000140050002000BF401CC0B2CC
:100650000A28FAD37047000070B50446144D0020F4
:100660002870144E200605D501220221304601F0E3
:10067000AAFB04E000220221304601F0A4FBFFF7B0
:10068000E3FF01221146304601F09DFBFFF7DCFF3E
:1006900000220121304601F096FB6006040E287806
:1006A000401CC0B228700828DCD3FFF7B1FF70BD32
:1006B000CC0000200014005010B5084C002202218C
:1006C000204601F080FBFFF7BFFF002201212046FA
:1006D00001F079FBFFF7B8FF10BD000000140050D7
:1006E00010B50B4C00220221204601F06CFBFFF7F5
:1006F000ABFF01221146204601F065FBFFF7A4FF86
:1007000001220221204601F05EFBFFF79DFF10BD94
:100710000014005070B500F0FBFC0121002001F036
:10072000DDFE0121084601F0D9FE0121022001F081
:10073000D5FE0121032001F0D1FE0021062001F0A9
:10074000CDFE0021052001F0C9FE002001F003FFCD
:10075000264CE51FFD3D264801F042FBE0790300F1
:1007600002F08EF80822050A0F22221E142201210F
:100770000F2001F0EFFE17E00121022001F0EAFE58
:1007800012E00121002001F0E5FE0DE0012103202F
:1007900001F0E0FE00F02EF8E079002824D003E01C
:1007A0000121084601F0D6FE00F0A8FA28780028BA
:1007B00006D100221146102000F0E0F90120287037
:1007C000FF26F536304601F0DDF80021084601F03D
:1007D000C1FE00F093FA304601F0D4F80022114631
:1007E000102000F0CBF9B6E770BD00001403002024
:1007F00044040020FEB500250095019502950024D3
:1008000002F062F8002856D0732804D0D22806D00F
:10081000F5280BD107E00098401C009006E00198F5
:10082000401C019002E00298401C0290641C0A2CBB
:10083000E6DB0321684602F075F84C4E012804D02F
:10084000022805D0032808D105E07320F07104E0E8
:10085000D220F07101E0F520F07100F059FCF07940
:1008600005242407424F732826D0D22824D0012201
:100870002021384601F0A7FA02F01AF80022802160
:10088000204601F0A0FA00222021384601F09BFA10
:10089000364C203CE571E01FF938C06AFFF787FD50
:1008A000FF21373188420DD90220E0710022114624
:1008B0000F2000F063F9FEBD01228021204601F0E7
:1008C00082FAD9E7782802D20720E071FEBD2748D6
:1008D000F1790F221423A03873291CD0D22930D0EB
:1008E000F529F3D12349C1630564234941642349B0
:1008F000816505652249C1667D21090101671921CC
:10090000416718228267C1671E48A0601E48606167
:1009100000F0D8FBFEBD1D49C1631D49016445645B
:100920001C49816505656421C1669621016743679D
:100930008267C3671848A0601848606100F09EFB9A
:10094000FEBD1749C16317490164456416498165B5
:100950000565C821C166016743678267C26713489E
:10096000A0601348606100F089FBFEBD34030020E5
:1009700000040050000034420000C84100803B45A4
:100980006C0700003333F340000010410000F040DA
:10099000CDCCCC3D00803B443333434000009040FD
:1009A000000070419A99193E00A00C456666064009
:1009B0000000C04010B5FFF73EFD024902F052F8BA
:1009C00010BD0000510AA53D10B513490A688242C6
:1009D00012D00860114A00219162114992144A60B4
:1009E000086008460C3000F049FD002804D00D488E
:1009F0000121C171FFF78EFE09480C3000F032FF73
:100A000007480A210C3000F0CDFE05480C3000F0FC
:100A1000C1FD80B210BD0000C000002000240140D4
:100A20004003002014030020F8B51F490A6B012081
:100A3000000502430A630A6B82430A631A49403184
:100A40000A6802430A60096801400091184C174F78
:100A50002760204600F0EAFC164D0126002802D04F
:100A6000EE71FFF757FE276003200007606000204B
:100A7000A060E06026610421616126766076A07640
:100A8000FF21C231E1612062094920310871A06271
:100A90000620E062064800F081FD002802D0EE71D9
:100AA000FFF738FEF8BD00000010024000240140AE
:100AB0004C0300201403002000B585B09F20009057
:100AC000002002900320019005206946000701F0F4
:100AD000E9F805B000BD000070B586B01548416B5F
:100AE000012421434163416B21400091426B20214D
:100AF0000A434263406B08400090C8010190039490
:100B00000325049500260296052001A9000701F09F
:100B1000C9F804200190039604950294064C01A99B
:100B2000204601F0BFF800220421204601F04BF9D5
:100B300006B070BD001002400014005010B586B021
:100B40000D48426B01210A434263406B084000900C
:100B5000402001900291002003900220049005247F
:100B6000240701A9204601F09DF8002240212046DB
:100B700001F029F906B010BD00100240F8B50F468B
:100B80003B4D6969002920D02946A03149780029C8
:100B90001BD12C46374E8034002A0CD0030001F0C4
:100BA0006FFE111415191D215A5E621414141414C9
:100BB0001456252914000F2803D0102001F022FF1D
:100BC00002E00F2001F01EFF6684F8BD012001F055
:100BD00019FFF8BD022001F015FFF8BD032001F058
:100BE00011FFF8BD042001F00DFFF8BD0F2001F04A
:100BF00009FFF8BD102001F005FF002F08D0E868BC
:100C0000FF2200B2C332642101F0A2FE6084F8BD6D
:100C10002079002809D005202056030001F030FE7D
:100C20000604070A0D101404F1E76684F8BD1248A3
:100C30006084F8BD11486084F8BD11486084F8BD37
:100C40000F489D306084F8BD0E486084F8BD0E20CA
:100C500001F0D8FEF8BD052001F0D4FEF8BD062055
:100C600001F0D0FEF8BD072001F0CCFEF8BD000079
:100C7000940200206E0F00002C0800002C090000D8
:100C80004C0A00003F0C000010B586B01048426BC3
:100C900020210A434263406B0840009003200190EA
:100CA000012002900020039002200490094C01A929
:100CB000204600F0F7FF01221146204601F083F89C
:100CC00001220221204601F07EF806B010BD00008E
:100CD000001002400014005010B5EFF3108472B6FB
:100CE000FFF7EAFC4820FFF7B7FC7120FFF7B4FCE0
:100CF000FFF7F6FC84F3108810BD000070B5EFF329
:100D0000108572B6FFF7D8FC6820FFF7A5FC134CDE
:100D10002078FFF7A1FCFFF7E3FCFFF7CDFC6A208A
:100D2000FFF79AFC6078FFF797FCFFF7D9FCFFF715
:100D3000C3FC6C20FFF790FCA078FFF78DFCFFF759
:100D4000CFFCFFF7B9FC6E20FFF786FCE078FFF7D9
:100D500083FCFFF7C5FC85F3108870BD34040020C8
:100D600010B586B01248426B01210A434263406BC2
:100D70000840009080200190039100200490029090
:100D80000C4C01A9204600F08DFF0B490291402137
:100D9000019101A9204600F085FF072001F060F8CD
:100DA00000221146072001F065F806B010BD0000D2
:100DB000001002400004005000002110F8B5064663
:100DC0000024064D01273059401C02D0EF71FFF777
:100DD000A1FC241D282CF6D3F8BD0000140300202C
:100DE00010B586B004460021059114216846FFF72E
:100DF0002CFA0221009101940124029405A968466D
:100E000000F0D2FD002803D00248C471FFF782FC35
:100E100006B010BD14030020F0B5A3B02290164810
:100E20002190282658202830209000246D461FE06D
:100E3000002021990A19431E81000F19B74202D2DE
:100E400057586F5000E06B50401C2028F4D3229874
:100E50006A460119012000F08BFE002807D00648E1
:100E600001217830C171FFF755FC23B0F0BD80340B
:100E700020988442DCD3F8E79C02002070B5064637
:100E80000024084D3046FFF7C7FF28222946304688
:100E9000FFF790F9002803D0641CE4B2022CF1D3D0
:100EA00070BD00009C0200202849274A8A604268E1
:100EB000CA60CA680B46803B5A60C2684A61826851
:100EC0000A6102698A614269CA6182690A62C26909
:100ED0004A62426ACA62006A8862C868FF222D328A
:100EE000642804D3C868FF23C333984200D9CA607A
:100EF00008693223D84202DB0869322801DD00206C
:100F00000861486A124B984202D8486A3C2801D2CC
:100F10003C204862C869042801D90120C861886959
:100F2000002809D0C869012807D0022807D0032863
:100F300002D1FF209130C8607047CA607047FF201F
:100F40005F30C86070470000ACACACAC94020020CD
:100F5000E703000010B50748C16A491CC162064892
:100F600000F010F8054800F00DF8054800F00AF808
:100F700010BD00009402002000F0000800F80008F6
:100F800000FF000870B50546EFF3108472B60948FB
:100F900000F026FF00F072FE2846FFF721FF2846EA
:100FA000FFF70CFF2846FFF769FF00F0D3FD84F33D
:100FB000108870BD4404002010B5EFF3108472B6A1
:100FC000034800F00DFF00F005F884F3108810BD11
:100FD0004404002070B51B4C1B4B206B01689942E8
:100FE00007D1616B0A689A4203D1A26B15689D42D2
:100FF00011D0A360FF202D30E0600121616100204D
:101000002061A061E16120623C216162A062E06236
:10101000FFF7A0FF70BD526A496A406A01F074FC94
:10102000002807D0012809D00228F3D1A06BFFF7D0
:101030003BFF70BD206BFFF737FF70BD606BFFF7A4
:1010400033FF70BD94020020ACACACAC7047000024
:1010500010B500F0B3F800F0DBF80421054801F00A
:10106000B7F9002804D004480121C171FFF752FBF1
:1010700010BD0000D80300201403002030B587B055
:101080000E48416B012529434163406B2840019084
:101090008020029002200390002104910590069583
:1010A000052002A9000700F0FDFD054C207900286D
:1010B00002D1FFF7CDFF257107B030BD001002400F
:1010C0003403002030B587B00E494A6B022002433A
:1010D0004A63496B01400191202102910390002154
:1010E000049105900125069502A9074800F0DAFD54
:1010F000064C2079002802D1FFF7AAFF257107B01E
:1011000030BD0000001002400004005034030020F5
:1011100010B586B00D48426B02210A434263406B12
:1011200008400090202001900120029000200390B0
:101130000491074C01A9204600F0B4FD00222021B3
:10114000204600F040FE06B010BD00000010024036
:101150000004005070B58CB005461C2105A8FFF7AF
:1011600074F8002401940294039404940B200590D5
:10117000FF200130089009940A9506940C200790EE
:1011800001260B9605A800F05BFF0B4D002802D04E
:10119000EE71FFF7BFFA07200190029403940494C4
:1011A000002101A800F06AFE002802D0EE71FFF7CE
:1011B000B1FA0CB070BD00001403002008B50F4850
:1011C000C26B02210A43C263C06B084000900D4805
:1011D0000B4901600C49C16005214160002101619A
:1011E00081604161816101F067F8002804D00748FF
:1011F0000121C171FFF78EFA08BD00000010024006
:1012000000040040D8030020102700001403002031
:1012100010B50B4860210160002181600161C1604F
:1012200081614161416001460422403801F060F86B
:10123000002804D003480121C171FFF76BFA10BDEB
:101240001804002014030020F8B5194E3068194D19
:101250006968401A322803D217494020C860F8BD97
:10126000164C012020708021154800F0A5FD07468E
:101270004021134800F0A0FD874201D1012000E089
:10128000002032686968521A322A00D928702A78F8
:10129000904205D03368591A322901D8627001E0B2
:1012A000607028703068686003494020C860F8BDED
:1012B000D8000020C40000200018024014030020C1
:1012C0000004005005490020486005484169042297
:1012D000114341610348C106086070475004002073
:1012E0000020024021433412054A00215160054983
:1012F0004A6902231A434A61FF21016070470000D6
:10130000500400200020024070B500220C4C63699C
:1013100001252B436361EFF3108372B60125ED04C1
:1013200008E040C940C0521CD2B21F2A02D16669EF
:101330002E436661202AF4D383F3108870BD000029
:101340000020024003494A69CB141A434A61FF2135
:10135000016070470020024070B5044600F03AFD7D
:101360000419084D05E000F035FDA04201D303202B
:1013700070BD2869C043C003F5D50348286100202B
:1013800070BD00000020024011800000FEB5044640
:101390000020019025462035287D01281ED00120FF
:1013A000287520688168C943C90734D0A16BFF2222
:1013B0000132914302263143A163C1688907890F35
:1013C0000091C16889088900C16020688168D205E0
:1013D0001143816000F0FEFC07460FE00220FEBDD5
:1013E00000F0F8FCC01B022808D9A06B1021B04304
:1013F0000843A063002028750120FEBD2068806896
:101400000028EDDB2068C168009A1143C160A06B21
:10141000B043A06305E0A06B20210843A063012036
:101420000190002028750198FEBD0000F1B58AB03A
:101430000024114D05AE6F460A98FFF7A7FF00285C
:1014400002D001200BB0F0BDA868A100705040028E
:101450007850641C052CEFDB05216846FFF794F8F3
:10146000029840122861E868686168680121C90330
:10147000084368600020E5E740240140F8B50025F6
:101480000022009204462034227D012A39D0012313
:1014900023750268966876076AD43A4F4E68BE4252
:1014A00050D0966A0F78BB401E4396620123C26AF1
:1014B0001B079A421FD0012A1DD0022A1BD0032AE3
:1014C00019D0042A17D0052A15D0062A13D0072AC6
:1014D00011D002688B6856697607760FB3420AD03E
:1014E0005369DB08DB005361006842690B7A5B07D4
:1014F0005B0F1A43426108680B2804D00C2802D005
:101500003BE00220F8BD204B9A680B2807D0012051
:10151000800502439A6008680B2803D02DE0012063
:10152000C005F6E71A4819490068FEF790FE0A213F
:101530004843009002E00098401E00900098002868
:10154000F9D11AE0906A0E78B34098439062086827
:101550000B2801D00C2810D10B498A680B2804D025
:101560000120800582438A6007E00120C005F9E779
:10157000816B2022114381630125002020752846BC
:10158000F8BD0000011000000027014040420F009C
:101590000C0200200068006C70470000F8B504469B
:1015A0000025002C05D0A06B26462036002802D04E
:1015B00007E00120F8BD0020E0633075204600F010
:1015C000A1F8A06B1022C00600287DDB206881688E
:1015D000490779D4A16B1301994302231943A163ED
:1015E0008168C943C9070CD0C16818239943A3680F
:1015F0001943C16020680169636809010909194339
:1016000001612068C1683D4B1940C160207EE168DE
:1016100080030143607EA36A4703012B02D00123AC
:101620001B0300E000231F4323693943022B09D029
:101630000023194333795B001943A67E0123012E51
:1016400002D00AE00423F4E7002826D0A06B20266D
:101650003043A063E06B1843E063E0690646FF3E59
:10166000C23E02D0266A304301432068C6680E435A
:10167000C6600126E06A3607B04212D0012810D0B9
:1016800002280ED003280CD004280AD0052808D040
:10169000062806D0072804D00FE0012000040143EB
:1016A000DBE720684669F608F6004661206846696F
:1016B000A78D7F077F0F3E4346612068C068104EAC
:1016C0003040884209D100E011E00020E063A06BC7
:1016D00080088000401CA0630DE0A06B02218843BD
:1016E0001043A063E06B1843E063012503E0A06BA7
:1016F0001043A06301252846F8BD000019C2FEFF73
:10170000E7FF3FC370B586B00546142101A8FEF778
:101710009CFD21490A68012002430A600A680240D0
:1017200000921D4A403A936B03439363936B0340CB
:101730000093536B03435363526B024000920B6858
:10174000020513430B6009681140009101900320CA
:10175000029000260396052001A9000700F0A2FAD6
:10176000002000F089FD0E4C0C4820606660A660E9
:10177000E66040152061800060612020A0610320A8
:101780000003E061204600F099F8204600F0C6F81A
:101790002C63656206B070BD401002400800024034
:1017A00068040020F8B504460D46274660692037D6
:1017B00008280BD02068C068C00709D0A06B202182
:1017C0000843A063002038750120F8BD082600E01A
:1017D0000C2600F0FFFA009011E0681C0FD0002DDD
:1017E00005D000F0F7FA0099401AA84207D9A06B7B
:1017F00004210843A063002038750320F8BD206849
:1018000000683042E9D0A06B012149020843A0637F
:101810002068C1680C220905890F00291AD1617E50
:10182000002917D10168090714D5816801234907E8
:10183000002908DB416891434160A06B190288438D
:101840001843A06306E0A06B20210843A063E06B6F
:101850001843E063207E002801D120680260002048
:10186000F8BD000070B5044620688068400720D4A9
:1018700025462035287D012819D0012028752046CD
:10188000FEF752FE002811D1A16B0B4A1140FF2236
:1018900001321143A1630021E163297522681C21F3
:1018A000116021688A6804231A438A6070BD02208F
:1018B00070BD022070BD0000FEF1FFFF70B5044650
:1018C000002C24D020680168490849000160206884
:1018D0000025056020684560206885602068C56037
:1018E0000C49206840181421FEF7B1FC80002064E8
:1018F0000949E163012282404A60A562E5622563ED
:101900006563A563203465702570002070BD0120DB
:1019100070BD0000F8FFFDBF0000024070B5044636
:10192000002C26D01448256814212818FEF78FFCB7
:10193000800020641148E06302212046203041707D
:101940002A680F490A40A368616826691943E36859
:101950003343194363691943A3691943E36919437D
:10196000114329600021A16301224270017000200F
:1019700070BD012070BD0000F8FFFDBF00000240F7
:101980000FC0FFFF70B5044600F024FA0546601C46
:1019900002D004484068241800F01CFA401BA04202
:1019A000FAD370BDD0000020F8B504460E460125DC
:1019B00063480178012969D00121017061484068BC
:1019C0000004400F60490B6882006048825810682C
:1019D000C7B2BC46BB4229D14B68C701FF0DBB4211
:1019E00024D10B690004000E83421FD18B6850681C
:1019F000C7B2BB421AD1CB684001400D834215D11A
:101A000048699368DB03DB0B98420FD18869D36880
:101A1000DB03DB0B984209D1CB69106987B2BB426B
:101A200004D10B6A8000800C83421ED0604608609F
:101A30001068C001C00D486010880004000E0861E5
:101A40001079886050684001400DC8609068C003FC
:101A5000C00B4861D068C003C00B8861108A80B297
:101A6000C86110698000800C08627D272068FF0033
:101A700004280DD002281CD00121C90288425AD165
:101A80003846FFF769FC002836D054E00220F8BD44
:101A90003846FFF761FC00284DD1FFF713FC3846AC
:101AA000FFF75AFC05462A494869042290434861D9
:101AB00041E07D20C000FFF74FFC00283BD1401ED5
:101AC0003060676811E03846FFF70EFC7D20C000EB
:101AD000FFF742FC05461E484169022291434161DD
:101AE000280001D0376026E08037A0686168C00117
:101AF0004018B842E7D81EE00020C0433060E768D5
:101B000013E03846FFF71EFC7D20C000FFF724FCE1
:101B100005460F484169C21491434161280001D034
:101B2000376008E0012000033F182069E1680003E6
:101B30004018B842E5D80248002101702846F8BD97
:101B4000500400200010024000210240142B000825
:101B500000200240012005494A69C3071A434A612F
:101B60004969002900DA0020704700000020024087
:101B7000F7B50F463C4C207801285AD00120207040
:101B80003A4840680004400F39490D6882003948DE
:101B900080580268D3B29D4229D14D68D601F60D16
:101BA000B54224D10D691204120E95421FD18D68E1
:101BB0004268D6B2B5421AD1CD685201520D954253
:101BC00015D14A698568ED03ED0BAA420FD18A69E8
:101BD000C568ED03ED0BAA4209D1CD69026996B241
:101BE000B54204D10D6A9200920C95421DD00B6053
:101BF0000268D201D20D4A6002881204120E0A61F4
:101C000002798A6042685201520DCA608268D2032A
:101C1000D20B4A61C268D203D20B8A61028A92B2A5
:101C2000CA6100698000800C0862780603D0012038
:101C3000FEBD0220FEBD7D25ED002846FFF78CFB92
:101C400000280DD138460299FFF75EFB2846FFF7C2
:101C500083FB09494A69520852004A610028E9D1C8
:101C600000212170FEBD0000500400200010024041
:101C700000210240142B00080020024000200649E9
:101C80004A69002A07DA054A8A60054A8A60496972
:101C9000002900DA01207047002002402301674537
:101CA000AB89EFCDF0B500227CE001249440A4463E
:101CB0002340002B75D04C68022C01D0122C0CD183
:101CC000D408A40027183D6A5407E40E0F26A64046
:101CD000B5430E69A6402E433E62066855000324B4
:101CE000AC40A6430F79BF07BF0FAF403743076033
:101CF0004E68012E05D0022E03D0112E01D0122ED7
:101D00000ED18668A643CF68AF40374387604768E7
:101D10006646B7430E79F606F60F96403E43466098
:101D2000C668A6438C68AC403443C4604C68E40089
:101D300037D595081E4CAD002F193D6E9407E40E63
:101D40000F26A640B54305263607B04201D100262E
:101D500005E0184EB04201D1012600E00226A6405F
:101D60002E43134D3E66124E803634689C434F68B6
:101D7000FF0300D51C43346074689C434F68BF0365
:101D800000D51C4374602C689C434E68F60200D555
:101D90001C432C606C689C434E68B60200D51C4303
:101DA0006C60521C0B681C46D44000D07DE7F0BD2F
:101DB00000180240000400500069084201D00120D0
:101DC000704700207047002A01D08161704781620E
:101DD000704700000148806870470000D000002074
:101DE000006802490160002070470000AAAA0000B4
:101DF000024881684268891881607047D0000020DD
:101E000010B50024032000F009F8002801D00124B7
:101E100001E000F023F8204610BD000070B5054633
:101E200000240C4E7068002811D00B4800F02CFAEA
:101E3000002801D001240BE0042D06D200222946FF
:101E4000501E00F017F8356002E0012400E0012484
:101E5000204670BDD0000020C05D0000704700002B
:101E6000C106C90E01208840014908607047000082
:101E700000E100E010B500F071FB10BDF8B50446BC
:101E80000D46002C0FD04D480068C007C00FA84277
:101E900018D24A4F38684008400028433860FFF79E
:101EA00099FF064609E00120F8BDFFF793FF811B6B
:101EB0004348814201D90320F8BD3868C007C00FEC
:101EC000A842F2D120683F4E81070DD5400704D5C6
:101ED000B068072109030843B060B0680F21090208
:101EE0008843A1680843B0602078C0072DD060689F
:101EF000012808D000280BD032494031096A8907EF
:101F00000BD40120F8BD3168890306D40120F8BD47
:101F10003168490501D40120F8BDB168C908C9007C
:101F20000143B160FFF756FF074607E0FFF752FF96
:101F3000C11B2348814201D90320F8BDB068382174
:101F400008406168C9008842F0D11C480168C9078F
:101F5000C90FA94216D901684908490029430160FF
:101F6000FFF738FF074607E0FFF734FFC11B1448AF
:101F7000814201D90320F8BD10480068C007C00F96
:101F8000A842F1D12078400706D5B068072109039F
:101F90008843E1680843B06000F01CF8B1683C2257
:101FA00089091140084A515CC906C90EC840074951
:101FB000086007480068FFF731FFF8BD00200240C5
:101FC0008813000000100240482B00080C0200207B
:101FD000D000002000B585B0142216496846FEF7EF
:101FE000B3F8154881688906490F0CD081688906C5
:101FF000490F012918D080688006400F032815D0AA
:10200000002005B000BD016889044A0F01219140FC
:1020100040680004400F042800D9002080006A4670
:102020001058FEF714F9ECE70448EAE70120C00372
:10203000E7E70000342B00080010024000366E0174
:10204000F8B50446002C1DD020783827C007864DEF
:10205000002856D0A8683840082815D060680028A5
:1020600007D0A068002817D029690C2291430143AA
:10207000296101216068090488420FD1286808435A
:1020800028601EE00120F8BD2868800339D560680B
:10209000002836D10120F8BD0120F8BD052301221A
:1020A0001B049204984206D12868104328602868CF
:1020B0000843286005E02868884328602868904322
:1020C0002860606800280ED0FFF784FE064606E010
:1020D000FFF780FE801BC82801D90320F8BD2868BF
:1020E0008003F5D50DE0FFF775FE064606E0FFF725
:1020F00071FE801BC82801D90320F8BD2868800321
:10210000F5D42078800772D5AE683E40002E12D0FC
:10211000FF20E1680130002958D029680722D20247
:102120009143226911432960296801432960FFF71F
:1021300051FE064640E02868400502D5E0680028C8
:1021400009D068686169000C000408436860FFF703
:1021500041FE074608E00120F8BDFFF73BFEC01B2B
:10216000022801D90320F8BD28684005F5D5002EC6
:1021700013D128680721C9028843216908432860D0
:10218000FFF728FFA9683C2289091140374A515CB2
:10219000C906C90EC8403649086036480068FFF7CE
:1021A0003DFE002823D00120F8BDFFF713FE801B61
:1021B000022801D90320F8BD28684005F5D56868D4
:1021C0006169000C00040843686010E029688143DD
:1021D0002960FFF7FFFD064606E0FFF7FBFD801BC9
:1021E000022801D90320F8BD28684005F5D42078DD
:1021F000000736D5A8681C4D8006400F40350328DF
:102200000AD0A06900281AD0286A01210843286250
:10221000FFF7E0FD04460EE0286A800721D5A0699B
:1022200000281ED10120F8BDFFF7D4FD001B0228B5
:1022300001D90320F8BD286A8007F5D511E0286A86
:10224000400840002862FFF7C5FD044606E0FFF79E
:10225000C1FD001B022801D90320F8BD286A8007B0
:10226000F5D40020F8BD000000100240482B000803
:102270000C020020D00000200249CA690243CA6152
:10228000704700000000014010B50949401E884217
:1022900001D9012010BD074C60610321081F00F027
:1022A0005DF90020A06107202061002010BD000022
:1022B000FFFFFF0000E000E070B50446002C05D0F1
:1022C00025462035687F002802D006E0012070BD39
:1022D00000202877204600F00AF802206877211DA8
:1022E000206800F07BF901206877002070BD7047FE
:1022F000F8B504460E4625462035287F01280DD026
:1023000001202877022068770427002A08D0042AB1
:1023100019D0082A2ED00C2A55D13EE00220F8BD53
:102320003146206800F0A6F920688169082211432F
:10233000816120688169B94381612068816932695E
:10234000114381613FE03146206800F0D1F92068F7
:1023500082690121C9020A438261206881690122E0
:1023600092029143816120688169326912021143AE
:10237000816128E03146206800F0FAF92068C269DE
:1023800008210A43C2612068C169B943C16120685C
:10239000C16932691143C16115E03146206800F01E
:1023A00027FA2068C1690122D2021143C161206865
:1023B000C269012189028A43C2612068C169326908
:1023C00012021143C1610120687700202877F8BD0F
:1023D00010B504460122206800F03EF90D4821683E
:1023E000814205D00C48814202D00C48814204D180
:1023F000486C0122D2031043486420688168490771
:10240000490F062903D00168012211430160002011
:1024100010BD0000002C0140004401400048014074
:1024200008B540210268C943116002684910116073
:102430000068016841680091016841680091016885
:102440004168009101684068009008BDFEE7000007
:10245000054A0028917903D0042001439171704707
:10246000FB2001409171704734040020054A002888
:10247000917903D00220014391717047FD20014002
:102480009171704734040020054A0028917903D0E7
:1024900001200143917170474808400090717047D6
:1024A00034040020054A0028917903D00820014314
:1024B00091717047F72001409171704734040020FA
:1024C000054A0028517A03D0082001435172704711
:1024D000F7200140517270473404002010B50246C5
:1024E0000846130000F0CCF90705080B0E1114176D
:1024F0000700FFF7C9FF10BDFFF7B8FF10BDFFF7DA
:10250000A7FF10BDFFF7CEFF10BD00F007F810BD0C
:10251000FFF7D6FF10BD00F00FF810BD054A0028E8
:10252000D17903D008200143D1717047F7200140D1
:10253000D171704734040020054A0028D17A03D0B5
:1025400008200143D1727047F7200140D1727047D3
:102550003404002070477047704700008307FF2253
:10256000DB0E9A408907090E994000280BDA000714
:10257000000F0838830808489B001818C369934364
:102580000B43C3617047830804489B001818036815
:1025900093430B430360704700ED00E000E400E06C
:1025A0007047704710B5FFF723FC10BD0849486815
:1025B000084A000C92880004D204D20C1043012275
:1025C000520310434860C803034988607047000005
:1025D00000100240000FFF1F00ED00E070B5026820
:1025E000184C194EA04201D0B04204D170251346B8
:1025F000AB434A681A43154B154DA04208D0B04270
:1026000006D0144EB04203D0984201D0A84204D163
:1026100003263602B243CE6832438026B2434E6967
:10262000324302608A68C2620A688262A04203D0B2
:10263000984201D0A84201D1096901630121416199
:1026400070BD0000002C0140000400400044014027
:10265000004801400020004010B5C906C90E012302
:102660008B40046A9C430462036A8A4013430362FA
:1026700010BD0000F0B5026A520852000262056AFD
:10268000436882697024A243920892000C68144344
:10269000022295438A682A43124E134FB04204D057
:1026A000B84202D0114DA84206D10825AA43CD68F0
:1026B0001543042295432A46B04204D0B84202D0C2
:1026C0000A4DA84208D1FF250135AB436D00AB434D
:1026D0004D691D438B692B434360846149684163A5
:1026E0000262F0BD002C014000440140004801405E
:1026F000F0B5026A10239A430262046A4368826951
:1027000007252D03AA4303252D02AA430D682D0298
:102710001543202294438A6812012243114EB0428D
:1027200007D180271446BC43CA68120122434024C3
:10273000A243B04205D00C4CA04202D00B4CA042A8
:102740000AD10124A402A3436400A3434C69A4005A
:102750001C438B699B002343436085614968816307
:102760000262F0BD002C01400044014000480140DD
:10277000F0B5026AFF2301339A430262046A436898
:10278000C2697025AA43920892000D681543012280
:10279000520294438A6812022243124EB04207D179
:1027A000C7141446BC43CA68120222430415A2434C
:1027B000B04205D00C4CA04202D00C4CA0420AD131
:1027C00001242403A3436400A3434C6924011C4354
:1027D0008B691B0123434360C5614968C163026281
:1027E000F0BD0000002C01400044014000480140C1
:1027F00070B5026A01231B039A430262046A4268AD
:10280000C36907252D03AB4303252D02AB430D6898
:102810002D021D4301235B039C438B681E0326434B
:102820000A4B984205D00A4B984202D0094B984275
:1028300006D10124A4031346A3434A6992011A4313
:102840004260C56149680164066270BD002C0140A8
:10285000004401400048014010B5084C2068006861
:10286000C043800601D400BF02E00448FFF7D8FD52
:1028700020202168C043086010BD00008C030020A8
:1028800030B47446641E2578641CAB4200D21D46E9
:10289000635D5B00E31830BC1847000010B50420EE
:1028A000FEF792F80149886110BD00001402002073
:1028B00010B50120FEF788F8024CE060FEF77AF8C8
:1028C000E06210BD1402002010B5FFF7E7FF0B48CF
:1028D00001218069C902884201D9F52010BD072174
:1028E000C901884201D2D22010BD054940180549CE
:1028F000884201D2732010BD002010BD14020020B8
:102900007FFCFFFF7F020000884203D3904201D387
:1029100000207047814203D3914201D301207047C8
:102920000220704730B5002903D004680025012239
:1029300009E0002030BD9300C358A34201D91C46D2
:102940001546521CD2B28A42F5D36D1CE8B230BD96
:1029500010B5094C884201DC208810BD904201DB93
:10296000A08910BD521A401A062148431146FDF7AE
:1029700078FC4000205A10BDFE010020FFF740FA0D
:10298000FF209130FEF7FEFFFEF77EF9FEF7A4F977
:10299000FEF7D4F819480121008AC903C004C00C0D
:1029A0004018FEF7D7FB1920FEF7ECFFFEF704FBFB
:1029B000FEF792F8FEF7ACFBFEF77EF8FEF734F870
:1029C000FEF744FBFEF7CCF9FF2600270C4CFF2551
:1029D000F53500202654401C0428FBDB2846FEF772
:1029E000D1FFFEF78BF900202754401C0428FBDBA5
:1029F0002846FEF7C7FFFEF781F9EAE7000FFF1F41
:102A00003404002000B516490300FFF739FF110C0C
:102A10000A0D10131F22250C0C0C0C0C0C1C161983
:102A20000C000120487000BD0220487000BD03204A
:102A3000487000BD0420487000BD0F20487000BDE4
:102A40001020487000BD0E20487000BD0520487061
:102A500000BD0620487000BD0720487000BD000082
:102A60003403002070B5420064414B005C41120EFB
:102A700039D01B0E38D0FF2A3CD0FF2B3AD0400271
:102A80004902400A490A060045184E43000A090A4D
:102A9000D2184843ED017F3A0104731A4019190C0A
:102AA0004318990F04D001215B0849075B1A521C97
:102AB000D80904D3401CF50301D19D0607D0FF2A95
:102AC00008D2D50506D0E4072043401970BD012582
:102AD000A843F4E7002A01DCE00770BD2402FF20D0
:102AE0002043C00570BD1B0EFF2A03D0FF2B01D071
:102AF000E00770BDFF2645003606B54206D84D00FA
:102B0000B54203D8D218FF2A00D0E7E7004870BDCD
:102B10000000C07F1C0FFF1F300FFF1F440FFF1F5F
:102B2000580FFF1F6C0FFF1F1C0FFF1F1C0FFF1FF5
:102B30001C0FFF1F00093D0000127A000024F40062
:102B40004086510100366E010000000000000000C8
:102B50000000000000000000000000000000000075
:102B60000000000000000000010000000200000062
:102B70000300000004000000060000000700000041
:102B8000080000000900000000093D0000127A0062
:102B90000024F4004086510100366E0100093D001A
:102BA00000093D0000093D00C82B0008000000207E
:102BB00040030000A2040008682C00084003002025
:102BC000D00500000401000801D032047201690838
:102BD000011C3A902518092C09270527052C090AFC
:102BE000400C082C094C0A4C0A2C092C082FBF0D4C
:102BF0006E0F5910046599146E0F2920880BBF0DB4
:102C00003F0CBF0D59103F0C143AE9048559104C84
:102C10000A2B5910021C6E0FE9186B6E0F40091435
:102C200056091458299C4956292E88095A125A12B5
:102C300099145910602D6E0FBF0D4E2936A119C081
:102C400019C8494449D22BE90A222984296229AAB0
:102C500029E2C91C1104B5366E0112F012081AF8E7
:082C6000041AFF04016F0000DB
:04000005080000C12E
:00000001FF
